:020000040800F2
:10000000C83C002081020008874A0008FD3500082E
:10001000854A0008B50C0008255C000800000000B7
:10002000000000000000000000000000A101000826
:10003000DD0C000800000000FD010008854F0008ED
:10004000295C0008894A00089B0200089B020008FE
:100050009B0200089B020008DF0C00089B020008BE
:100060009B020008E50C0008090D00089B0200082F
:100070009B020008B90C00089B0200089B020008C4
:10008000C50C0008D10C00089B0200089B02000868
:100090009B0200089B0200089B0200089B020008CC
:1000A0009B020008CD4F00089B020008C14F0008CA
:1000B0003D50000800000000000000009B02000806
:1000C0009B0200089B0200089B0200089B0200089C
:1000D0009B0200089B020008195C00089B020008B4
:1000E0009B020008094B000800000000000000000F
:1000F0000000000000000000000000000000000000
:10010000000000009B020008000000009B020008A5
:100110000000000000000000495000085550000891
:100120009B0200089B0200089B0200089B0200083B
:100130009B0200080000000000000000000000001A
:100140009B0200089B0200089B02000800000000C0
:100150009B0200089B0200089B0200089B0200080B
:100160009B0200089B0200089B02000800000000A0
:100170009B0200089B020008000000000000000035
:100180009B0200089B0200089B020008DFF80CD0CD
:1001900000F002FC00480047E18A0008C83C00204B
:1001A0002C4B1968086800F05AB880F30988BFF32F
:1001B0006F8F4FF0000080F311887047000000003F
:1001C00008480068006880F308884FF0000080F35A
:1001D000148862B661B6BFF34F8FBFF36F8F00DF35
:1001E00000BF00BF08ED00E0DFF80C00016841F43B
:1001F00070010160704700BF88ED00E0EFF30980F7
:10020000BFF36F8F134B1A681EF0100F08BF20ED5D
:10021000108A20E9F04F106009B44FF0500080F3CD
:100220001188BFF34F8FBFF36F8F09F0F9FA4FF0CA
:10023000000080F3118809BC1968086800F014B840
:100240001EF0100F08BF00F014B880F30988BFF348
:100250006F8F70470C010020EFF30580704730C8A6
:10026000B0E8C04FFFF7A1BF30C8B0E8C04FFFF7FC
:10027000E7BFB0EC088AB0EC08CAFFF7E6BF0000A1
:100280000648804706480047FEE7FEE7FEE7FEE730
:10029000FEE7FEE7FEE7FEE7FEE7FEE7B14F0008F8
:1002A0008D0100082DE9F05F0546002092469B462F
:1002B00088460646814640241BE02846414647467C
:1002C000224600F072FA53465A46C01A914110D3A2
:1002D00011461846224600F059FA2D1A67EB01081C
:1002E0004F4622460120002100F050FA17EB00098A
:1002F0004E41201EA4F10104DFDC484631462A4667
:10030000434600F000B830BCBDE8C09F40EA01039E
:100310009B0703D009E008C9121F08C0042AFAD2BB
:1003200003E011F8013B00F8013B521EF9D270477F
:10033000D2B201E000F8012B491EFBD27047002227
:10034000F6E710B513460A4604461946FFF7F0FFD4
:10035000204610BD421C10F8011B0029FBD1801A59
:10036000704710B5002200E0521C835C8C5CA342F5
:1003700001D1002BF8D1D8B2E1B2401A10BD03462A
:1003800011F8012B00F8012B002AF9D1184670470B
:100390002DE9FE4F804681EA0300C00F0C46009015
:1003A00021F0004123F00045B8EB0200A94105D23D
:1003B0004046214690461C460B46024623F000402C
:1003C000104347D0270DC7F30A00C3F30A51029028
:1003D000401A019040286BDAC3F3130040F4801BED
:1003E0000098924620B10023D2EB030A63EB0B0B7B
:1003F00001985946C0F14002504600F0C7F9064640
:100400000D4650465946019A00F0DFF910EB0800FE
:100410006141002487EA115284EAE7731A4340D00D
:10042000009A62B3019A012A4FEA075215DC001BB9
:1004300061EB02014FF0004202EA0752CDE90042AF
:10044000001C41F5801132462B4600F016FA03B02D
:1004500000F045B840462146F9E7001B61EB020178
:10046000001C41F5801300185B412018A2F500170D
:1004700047EB030140EAD570B6196D4111E06D08F4
:100480004FEA360645EAC0754FEA0752001B61EB9A
:100490000201001C41F5801149084FEA30000019A3
:1004A000514132462B4603B000F01CB800F0D6B9DB
:1004B0000098012240000023D0EB020263EBE073BE
:1004C000009821464FEAE074B8EB000061EB0401AC
:1004D000E9E783F000435BE781F0004158E730BC77
:1004E000BDE8C08F30BCBDE8C04FFFF7DFBF2DE9CE
:1004F000FE4F81EA030404F0004421F0004100941F
:100500004FF0000B23F0004350EA01045ED052EAA2
:1005100003045BD0C3F30A54C1F30A552C44A4F27C
:10052000F3340194A0FB0254C1F3130141F4801190
:10053000C3F3130343F4801301FB024400FB034E97
:10054000840A970A44EA815447EA8357A4FB076860
:1005500002958D0A05FB07854FEA932C04FB0C548A
:100560002705029D4FEA065847EA1637B5EB0805FE
:100570006EEB070C870E920E47EA811742EA831250
:10058000A7FB0201B6EB0B0164EB00042B0D43EA61
:100590000C335E1844EB1C50DA465146E7FB02016F
:1005A000C5F313044FEA0B3343EA14534FEA043202
:1005B000019C43EA0603A4F10C040294009CCDE9DB
:1005C00000B400F05AF903B000F003B8002001466F
:1005D000F9E730BCBDE8C08F2DE9F04D81EA030496
:1005E00004F0004B21F0004514464FF0000A23F0C0
:1005F000004150EA050220D054EA01021DD0C5F3A3
:100600000A570246C5F31303C1F31300C1F30A5698
:1006100040F4801543F48013A7EB0608101BD64660
:1006200008F2FD3873EB050002D308F1010801E080
:1006300092185B41B8F1000F03DA00200146BDE8D3
:10064000F08D00204FF48011064684460EE0171B03
:1006500073EB050705D3121B63EB050306434CEA56
:10066000010C49084FEA300092185B4150EA01073B
:10067000EDD152EA030012D082EA040083EA0501B8
:10068000084305D0101BAB4106D20122002306E02F
:1006900000224FF0004302E06FF0010253101AEB0A
:1006A00006004CEB085110EB0A0041EB0B01BDE8D2
:1006B000F04D00F0D3B80EB540F233410291002165
:1006C000CDE900110A460B4600F0D7F803B000BD93
:1006D00000F0004230F000400AD0C10D01F5607119
:1006E000C0F3160042EA0151C208400711437047A7
:1006F000002001467047000030B5041E71F100046F
:1007000004DB4FF00044404264EB0101141E73F11E
:10071000000405DB1C464FF00043524263EB040328
:10072000994208BF904230BD01F0004330B421F03F
:10073000004150EA010206D00A0DA2F56072C1F331
:100740001301002A02DC30BC00207047440F44EA49
:10075000C104C100E01830BC00EBC25000F047B843
:1007600030B50B46014600202022012409E021FA81
:1007700002F59D4205D303FA02F5491B04FA02F57E
:100780002844151EA2F10102F1DC30BD202A04DB51
:10079000203A00FA02F1002070479140C2F1200394
:1007A00020FA03F3194390407047202A04DB203AD3
:1007B00021FA02F00021704721FA02F3D040C2F181
:1007C00020029140084319467047202A06DBCB17C8
:1007D000203A41FA02F043EAE07306E041FA02F3FC
:1007E000D040C2F1200291400843194670470029C9
:1007F000A8BF7047401C490008BF20F001007047A7
:1008000010B4B0FA80FC00FA0CF050EA010404BF06
:1008100010BC704749B1CCF1200421FA04F411FA5C
:100820000CF118BF012121430843A3EB0C01CB1DA0
:100830004FEA00614FEA102042BF002010BC704711
:1008400000EBC35010440029A4BF10BC7047401CEB
:10085000490008BF20F0010010BC704710B5141EFD
:1008600073F1000408DA401C41F1000192185B4169
:100870001A4301D120F0010010BD2DE9F04D924640
:100880009B4611B1B1FA81F202E0B0FA80F2203257
:100890009046FFF77BFF04460F4640EA0A0041EA14
:1008A0000B0153465A46084313D0114653EA010040
:1008B00019D0C8F140025046FFF777FF05460E46B3
:1008C000504659464246FFF761FF084305D00120D4
:1008D00004E020463946BDE8F08D0020054346EA95
:1008E000E0762C4337430A986305E40AA0EB08003E
:1008F0000022FD0A44EA47540A3002D5002001468E
:10090000E9E7010510196941DDE908450019694168
:10091000BDE8F04DA2E770B521F0004303430CD0D1
:10092000C1F30A550024D5EB040564EB0403D61784
:10093000AD1AB34102DB0020014670BD201841EB27
:10094000025170BD0EB5C10F80EAE0700844CA07BD
:10095000002140F233438DE80E000A460B46FFF7B4
:100960008CFF03B000BDC1F30A52C1F3130140F282
:10097000FF3341F480119A4202DA002001467047A9
:1009800040F233439A42A2F2334202DC5242FFF772
:100990000CBFFFF7FBBE0000064C074D06E0E06809
:1009A00040F0010394E8070098471034AC42F6D3B6
:1009B000FFF7F0FB94BB0208B4BB02082DE9F04D31
:1009C00000231A461B1A8A4103DB00200146BDE8BA
:1009D000F08DC1F30A52C1F3130141F480154FF0B9
:1009E000000BD10702D100186D41521E00270446AA
:1009F00040F2FF11384601EB620A3E46804602464D
:100A000000204FF48011FFF7D0FEC2197141BB18CE
:100A100046EB0100B4EB030C75EB000C04D3E41AB5
:100A200065EB000517460E46241908F101006D41DB
:100A300080463428E3DDF91946EB0600091BA8417E
:100A400003D24FF0FF32134601E0002213461BEBA6
:100A5000070046EB0A51BDE8F04DFFF7FFBE70B549
:100A60008C1810F8015B15F0070301D110F8013B59
:100A70002A1106D110F8012B03E010F8016B01F8E0
:100A8000016B5B1EF9D12B0705D40023521E0DD438
:100A900001F8013BFAE710F8013BCB1A921C03E086
:100AA00013F8015B01F8015B521EF9D5A142D8D3BE
:100AB000002070BD2DE9F041044600270D46006876
:100AC00003F006FB0646206803F0FEFA30435DD0D3
:100AD0002068C1682E4E890105D5617E012902D1A9
:100AE000217E01290BD0022D1DD0206803F0F0FAE1
:100AF000B8B120688168C1F3400169B111E00125F6
:100B0000244902E08F4232D27F1C0268D24352064F
:100B1000F8D440210160E8E78168314041F01001DC
:100B20008160012D11D0206803F0CEFA48B1206811
:100B30008168C1F3400121B98168314041F0200151
:100B40008160022D08D0032D04D0042500F01CFF85
:100B5000064617E00C25F9E70825F7E700F014FF33
:100B6000801B05280ED92068806828420AD0606D55
:100B700040F010006065A06D40F00100A06501200C
:100B8000BDE8F081206880682842E7D10020F7E7BF
:100B9000C0FFFF7F000040A370B504460068816875
:100BA0008268C1F3400112F0010F28D039BB81687F
:100BB00001F00D01012914D18168124A1140891CEC
:100BC000816021680320086000F0DEFE054612E027
:100BD00000F0DAFE401B02280DD920688068C007AB
:100BE00009D0606D40F010006065A06D40F001001C
:100BF000A065012070BD20688068C007E8D1002092
:100C000070BD0000C0FFFF7FF8B5044600200090D3
:100C10002068816811F0010F41D18168214A114299
:100C20002ED18168D5432940491C81601E488068C7
:100C300000F0E07000020DD51C481D490068B0FBB3
:100C4000F1F0401C00EB4000800000E0401E0090EE
:100C50000028FBD100F098FE06461BE0816811F0E9
:100C6000010F03D181682940491C816000F08CFE8E
:100C7000801B02280ED920680068C043C00709D035
:100C8000606D40F010006065A06D40F00100A0654F
:100C90000120F8BD20680168C943C907DED10020E2
:100CA000F8BD00003F000080000304500400002055
:100CB000400D0300FEE70000014800F0EABC000020
:100CC000B8030020014800F0E4BC0000300300201D
:100CD000014800F0DEBC0000E8020020704701205F
:100CE00000F048BD064810B5B0F87C0080B200F0B6
:100CF00041FD034803498030808880B2086010BD00
:100D000058B702081404014010B5054CA08980B200
:100D100000F030FDA08A034980B2086010BD0000D9
:100D2000D8B702081404014072B6FEE7F8B50026F1
:100D30000446009690F850000D4601280BD0012083
:100D400084F850002046FFF727FF0100606D04D0B3
:100D500040F010002BE00220F8BD20F4885040F055
:100D60000200606520688268134B1A4005F08043DA
:100D70001A4342F0004282604FF4912320680EE053
:100D8000009A521C00929A4209D3606D20F0020032
:100D900040F01000606584F850600120F8BD826862
:100DA000D20FEDD1606D20F0020040F001006065CF
:100DB00084F850600846F8BDC0FFFF3F2DE9F84FAA
:100DC00000270446009790F85000DFF8B0930D46D6
:100DD000B846012811D0012684F85060206803F03D
:100DE00077F960B1606D40F0200060655FF0010749
:100DF00084F85080384600F0D7B90220FBE76968D4
:100E00000C20052912D8022907D0032907D004296C
:100E100007D0052907D0062107E0686006E0122107
:100E200003E0182101E04FF480716960D5E90021E9
:100E3000236800EA91101844036B01F01F014FF082
:100E40001F0C0CFA01FCC2F3846223EA0C038A40F3
:100E500013430363206803F03BF98246206803F0E4
:100E600033F95AEA00001DD1AA682968206803F006
:100E70003BF920686969C268C2F3C102520091401F
:100E80002A69042A0FD000EB82002B68026EDFF87B
:100E9000F0C203F0F84302EA0C020B431A4342F09B
:100EA0000041016672E0002103F008F94003206868
:100EB0004FF0000172D003F001F990FAA0F0B0FAFF
:100EC00080F1286842036ED090FAA0F0B0FA80F06A
:100ED000814204D100221146206803F014F9012157
:100EE000206803F0EBF8400320684FF001015DD06B
:100EF00003F0E4F890FAA0F0B0FA80F12868420319
:100F000059D090FAA0F0B0FA80F0814204D10022CA
:100F10000121206803F0F7F80221206803F0CEF8E1
:100F2000400320684FF0020148D003F0C7F890FA60
:100F3000A0F0B0FA80F12868420344D090FAA0F003
:100F4000B0FA80F0814204D100220221206803F02F
:100F5000DAF80321206803F0B1F8400320684FF06D
:100F6000030133D003F0AAF890FAA0F0B0FA80F1B0
:100F7000286842032FD090FAA0F0B0FA80F08142A6
:100F800004D100220321206803F0BDF820688168A5
:100F900011F0010F22D0ABE000E004E003F08EF886
:100FA000C0F384618DE7C0F3846091E703F086F8B5
:100FB000C0F38461A2E7C0F38460A6E703F07EF883
:100FC000C0F38461B7E7C0F38460BBE703F076F851
:100FD000C0F38461CCE7C0F38460D0E72A7B296842
:100FE00050F8B03FC1F3120C23EA0C0302F0180CC6
:100FF000644A22FA0CF20A4013430360E968494547
:1010000076D1286841031BD090FAA0F1B1FA81F1A2
:10101000491C01F01F0109294FEA403131D800294C
:1010200011D090FAA0F1B1FA81F100BF01F10101F4
:1010300001F01F0106FA01F608D1C0F3846109E04E
:10104000C0F38461E4E7C0F38461EFE790FAA0F1B4
:10105000B1FA81F101F1010101F01F0146EA81615C
:1010600002D1C0F3846003E090FAA0F0B0FA80F0FF
:1010700000F1010000F01F0000EB400041EA0051C8
:1010800032E000290ED090FAA0F1B1FA81F100BF50
:1010900001F1010101F01F0106FA01F605D1C0F3CB
:1010A000846106E0C0F38461F2E790FAA0F1B1FA3E
:1010B00081F101F1010101F01F0146EA816102D1D4
:1010C000C0F3846003E090FAA0F0B0FA80F000F181
:1010D000010000F01F002C4A00EB400002EB005022
:1010E00041EA000141F00071AA68206802F0FCFFAB
:1010F00026482A6802423FF47BAE25488168254D88
:10110000254B01F0E071AA421BD10D0219D42268CF
:101110009A427FF46DAE826841F4000122F0E072E1
:101120000A4382601D481E490068B0FBF1F0401C74
:1011300000EB4000800000E0401E00900028FBD142
:1011400056E6184DAA4207D1CD0105D422689A422D
:10115000F6D141F080710AE06FF00045EA42EFD12C
:101160004A02EDD422689A42EAD141F480018268B1
:1011700022F0E0720A4382603AE6000000007F40FD
:1011800000F0FF03FFFF0700000020FE00000880C2
:1011900000030450000052C7000004500400002067
:1011A000400D0300000084CB18BCBDE8E08F006850
:1011B000006C7047F8B54FF0000504002E4600950E
:1011C00002D0606D10B107E00120F8BD204600F0AC
:1011D000C9F8A66584F8506020688168C1F3407141
:1011E00019B18168574A1140816020688168C1F354
:1011F000007189B98168544A114041F08051816081
:10120000524853490068B0FBF1F04000801C00E0F8
:10121000401E00900028FBD120688168C1F3007156
:1012200041B9616D41F010016165A16D41F00101AD
:10123000A165012502F04CFF616D01F01001014331
:10124000606D05D040F01000606501252846F8BDAE
:1012500020F4807040F0020060652068806810F023
:10126000010F0BD13B48806810F0010F06D13A48BE
:101270006168826822F47C120A438260E168606BD4
:10128000627E0843A16841EA4231084394F8201085
:1012900040EA0140012904D1A18C304A02EB4141CE
:1012A0000843A16A29B101F47071E26A014342EA7C
:1012B00001002268D1682A4B19400143D16020689F
:1012C00002F006FF0646206802F0FEFE304315D10C
:1012D000207E94F83010800340EA41022068C16803
:1012E00044F2020399431143C16094F83800012885
:1012F0000CD02068016921F00101016120690128F9
:101300002068016B21F00F0111D013E0D4E90F0127
:101310000843D4E911121143084321680A6940F2D5
:10132000FC739A43104340F001000861E6E7E2696C
:10133000521E11430163606D20F0020040F0010075
:10134000606583E7C0FFFF5FC0FFFF7F04000020F0
:10135000400D030000000450000304500000FEFF95
:1013600007C0F0FF2DE9F04F8FB00446142105A807
:10137000FEF7E5FF3C492068884271D13B48C16CCB
:1013800041F40051C164C16C002701F40051384B95
:1013900000913E46B9463A463C463D46394693F8AA
:1013A00000C04FF0904BDFF8CCE01FE001EB4108AC
:1013B0000EEB8808D8F80430B8F808A05B4503D1D4
:1013C000012742EA0A020FE0DFF8AC80434503D16F
:1013D000012644EA0A0407E0DFF8A080434503D170
:1013E0004FF0010945EA0A05491CC9B26145DDD340
:1013F0003FB1C16C41F00101C164C16C01F0010158
:1014000000913EB1C16C41F00201C164C16C01F0B8
:1014100002010091B9F1000F07D0C16C41F0040145
:10142000C164C06C00F0040000900026032732B1B4
:101430000796CDE9052705A9584600F0A7F934B16C
:101440000796CDE9054705A90B4800F09FF9002D47
:1014500006D00796CDE9055705A9084800F096F98A
:101460000FB000F00DB80000000004500010024062
:101470000000002028020020000400480008004866
:1014800030BCBDE8C08F2DE9F041044640690E46EE
:1014900008280AD02068C068C00708D0606D40F0F6
:1014A000200060650120BDE8F081082500E00425EA
:1014B00000F06AFA074614E0701C12D000F064FADB
:1014C000C01BB04200D866B920680068284208D125
:1014D000606D40F004006065002084F85000032037
:1014E000E1E7206800682842E6D0606D40F40070B3
:1014F0006065206802F0F0FD80B1607E70B9206800
:10150000006800070AD5606D20F480706065606D2A
:10151000C00403D4606D40F0010060652068C168BC
:10152000082D05D0490401D40C2101600020BAE740
:101530000821FAE710B50446006802F0C9FD10B1B1
:101540000221084610BD94F8500001280CD001205B
:1015500084F850002046FFF757FB01004FF00000D1
:1015600004D084F85000ECE7022010BD626D40F614
:1015700001639A4342F480726265626DD20404D5BD
:10158000A26D22F00602A26500E0A06523681C227D
:101590001A6084F850002068C268920105D5626D17
:1015A00022F4005242F4805262658268024B1A4073
:1015B000121D8260C5E70000C0FFFF7F10B5044622
:1015C00090F85000012808D0012084F85000032131
:1015D0002046FFF76FFA10B10BE0022010BD204645
:1015E000FFF7DAFA28B9616D21F4885141F0010161
:1015F0006165002184F8501010BD10B590F82510D9
:101600000022022905D00421C16380F82420012092
:1016100010BD01680B6823F00E030B6001680B68B6
:1016200023F001030B6090F84410046C01F01C03DC
:10163000012101FA03F3636080F8251080F824206B
:10164000104610BD10B590F825100024022903D0D3
:101650000421C16301241AE001680A6822F00E0225
:101660000A6001680A6822F001020A6090F84410DA
:10167000036C01F01C02012101FA02F25A6080F8A9
:101680002510002180F82410816B01B18847204685
:1016900010BDF0B4016C0C6801680D6890F844202E
:1016A00002F01C06042202FA06F3234211D06B0753
:1016B0000FD50B689B0603D40B6823F004030B6063
:1016C00090F8441001F01C018A40016C4A60016BE3
:1016D0001DE0022303FA06F727424FF0000C4FF0FB
:1016E000010218D0AF0716D50C68A40605D40C6803
:1016F00024F00A040C6080F8252090F8441001F0D2
:101700001C018B40016C4B6080F824C0C16A002929
:101710001AD0F0BC08470823B340234214D02B074B
:1017200012D50B6823F00E030B6090F84410036C85
:1017300001F01C0102FA01F15960C26380F8252012
:1017400080F824C0416BE2E7F0BC704770B50446F6
:1017500000F01AF90546601C02D0044800780444E1
:1017600000F012F9401BA042FAD370BD0001002026
:1017700070470000044910B50A68024202D00860B0
:10178000FFF7F6FF10BD0000140401402DE9F04FF3
:10179000DFF8AC9100230325A9F1040B85B04FF0CD
:1017A000010C0F2709F1040AABF1040EBFE000BFE2
:1017B0000CFA03F6324075D00C7904F00304012CC6
:1017C00001D0022C1BD1846800945C0005FA04F857
:1017D0000494009C24EA08040094D1F80C80049C32
:1017E00008FA04F8009C48EA0408C0F80880446835
:1017F000B4430E79C6F300169E40264346600C792A
:10180000E443A4070AD0C4684FEA430805FA08F67F
:10181000B4438E6806FA08F62643C6600C7904F0D5
:101820000304022C10D1DC0800EB84040294246A27
:101830005E074FEAD66807FA08F6B4430E6906FA5F
:1018400008F62643029C266204684FEA430805FA1C
:1018500008F6B4430E7906F0030606FA08F62643A6
:1018600006604C6814F4403F60D0364C266E46F05B
:1018700001062666246E23F0030604F0010400949A
:10188000314C34440294A4689E074FEA167807FA54
:1018900008F6B443B0F1904F05D02C4EB04204D1BD
:1018A000012612E042E000260FE0294EB04201D1AD
:1018B00002260AE0274EB04201D1032605E0264E5B
:1018C000B04201D1042600E0072606FA08F62643B6
:1018D000029CA660D9F800604C46D1F8048096437B
:1018E0005FEAC82800D516432660DAF8004056465D
:1018F000D1F8048094435FEA882800D5144334600B
:10190000DBF800405E46D1F8048094435FEA8838F3
:1019100000D514433460DEF800407646D1F80480E8
:1019200094435FEAC83800D5144334605B1C0A68EE
:1019300032FA03F47FF43CAF05B000F00FB80000BA
:10194000080401400010024000000140000400486B
:1019500000080048000C00480010004830BCBDE8FA
:10196000C08F0069084000D001207047426921EA19
:1019700002030A4043EA0241816170470AB1816172
:10198000704781627047000001488068704700001E
:101990000001002070B5040004D094F84100002537
:1019A00010B106E0012070BD84F84050204600F0E0
:1019B00048FA242084F841002068016821F00101E0
:1019C00001606068216820F07060086120688168AB
:1019D00021F400418160E0680128A06807D040F44C
:1019E000044021688860E068022803D006E040F4E3
:1019F0000040F6E721684FF40060486020684168C5
:101A0000114A114341602068C16821F40041C1605E
:101A1000D4E904010843A16940EA01202168C860B3
:101A2000D4E907010843216808602068016841F093
:101A3000010101606564202084F84100256384F879
:101A40004250002070BD0000008000022DE9F84FD8
:101A5000044690F84100DDF828A01F4690468B46CA
:101A600020287ED194F8400001287AD0012084F803
:101A70004000FFF789FF0646012200901923D10399
:101A8000204601F0D7FEE0BB222084F84100102060
:101A900084F8420000256564C4F824806785656386
:101AA000618D3148FF274FF080784FF00079FF2992
:101AB00003D927853A46009039E0618D2185009051
:101AC0003AE05946204601F09DFE13E001F0DEFEAB
:101AD000B8B92068406A616A0870606A401C606238
:101AE000208D401E80B22085618D491E6185618DEB
:101AF00001B168B1608D3246002851462046E5D1DB
:101B000000E002E001F010FFD0B1012000F030B899
:101B10005346002280212046009601F08BFE0028CB
:101B2000F3D1608DFF2804D927853A4600954346B6
:101B3000C7E7608D2085009594F828204B46C0E7C4
:101B400021682020C86121684A68084B1A404A6011
:101B500084F8410084F8425084F840500020D5E7D2
:101B6000FFE70220D2E700000024008000E800FE2A
:101B700018BCBDE8E08F00002DE9FF4F83B004469C
:101B8000DDE9108790F84100DDF848909A469346C9
:101B9000202874D15FEA080014D09FB194F8400067
:101BA00001286CD0012084F84000FFF7EDFE0646C6
:101BB000012200901923D103204601F03BFE0028AA
:101BC00071D103E04FF4007060646CE0222084F86F
:101BD0004100402084F8420000256564C4F8248058
:101BE00067856563CDE9009653465A4620460499B9
:101BF00001F0A4FD10B184F8405054E0618D3548E7
:101C0000FF274FF080784FF0007AFF2904D927850D
:101C10003A464346009005E0618D2185009094F896
:101C2000282053462046049901F0ECFD4B46002243
:101C300004212046009601F0FDFDA0BB2068406A0B
:101C4000616A0870606A401C6062208D401E81B22B
:101C50002185608D401E6085608DD8B1D1B94B461D
:101C6000002280212046009601F0E4FDD8B9608D65
:101C7000FF2805D927853A464346009506E026E029
:101C8000608D2085009594F82820534620460499BD
:101C900001F0B8FD608D0028C8D132464946204683
:101CA00001F042FE18B1012007B000F017B821681A
:101CB0002020C86121684A68074B1A404A6084F8AE
:101CC000410084F8425084F840500020ECE70220A4
:101CD000EAE700000024008000E800FE30BCBDE818
:101CE000C08F00002DE9FF4F83B00446DDE9108767
:101CF00090F84100DDF848909A469346202871D12B
:101D00005FEA080014D09FB194F84000012869D020
:101D1000012084F84000FFF737FE064601220090BC
:101D20001923D103204601F085FD00286ED103E080
:101D30004FF40070606469E0212084F84100402085
:101D400084F8420000256564C4F8248067856563D3
:101D5000CDE9009653465A462046049901F020FDED
:101D600010B184F8405051E0608DFF274FF080782B
:101D70004FF0007AFF2804D927853A46434600955C
:101D800005E0608D2085009594F828205346204674
:101D9000049901F037FD32464946204601F0EAFD3C
:101DA000A0BB606A216800788862606A401C60623B
:101DB000608D401E6085208D401E80B22085618D23
:101DC000D9B1D0B94B46002280212046009601F0BF
:101DD00031FDD8B9608DFF2805D927853A4643469D
:101DE000009506E026E0608D2085009594F8282077
:101DF00053462046049901F005FD608D0028CAD1A4
:101E000032464946204601F08FFD18B1012007B047
:101E100000F014B820682021C16120684268064B98
:101E20001A40426084F8411084F8425084F84050CF
:101E30000020ECE70220EAE700E800FE30BCBDE845
:101E4000C08F7047024881680278114481607047F2
:101E50000001002010B50024032000F09FF80F209F
:101E600000F008F808B1012401E000F04FF8204626
:101E700010BD000030B505461F4887B0816D41F0A8
:101E800020018165806D06A900F02000009001A866
:101E900000F07CF90498B0B100F098F940001749BF
:101EA000174AB0FBF1F11748491E0260416040F249
:101EB000E7320021C0E903218160816100F098FDD3
:101EC000040003D015E000F081F9E8E70D4800F0C8
:101ED00019FE04000DD1372000F032F8102D07D282
:101EE00000222946372000F039F80748056000E055
:101EF000012407B0204630BD0010024040420F00D0
:101F00000014004078010020040100200B4882B03A
:101F1000016E41F001010166016E01F001010091C5
:101F2000816D41F080518165806D002200F080500C
:101F300000900F21901E02B000F010B80010024077
:101F4000002809DB00F01F020121914040098000B8
:101F500000F1E020C0F8001170470000F0B40E4B13
:101F60001B680C46C3F30223C3F10705042D00D9F7
:101F70000425191D072901D2002300E0DB1E0126DC
:101F800006FA05F1491E214099409E40761E1640F2
:101F90003143F0BC03F09BBE0CED00E0064900F0BD
:101FA000070208684FF6FF03184040EA0220034A80
:101FB00010430860704700000CED00E00000FA05D7
:101FC0000248006800F4C0607047000000700040E4
:101FD00010B50D4C2068C00304D500F019F84FF47B
:101FE00080302060084C20342068800603D500F043
:101FF0000DF8202020602068400603D500F007F887
:102000004020206010BD000014040140704770475C
:1020100004484069000501D503A000E006A003F0D4
:1020200009BE000000700040E794B5E58E8BE8BF64
:1020300087E4BD8E2E0D0A00E794B5E58E8BE6ADE4
:10204000A3E5B8B82E0D0A002DE9F0470F460500AC
:102050006BD0494E306800F00700B84209D23068B2
:1020600020F0070038433060306800F00700B842C5
:102070005BD12878414C80070AD5A868A16801F097
:10208000F001884204D9A16821F0F0010143A16068
:102090002878C0072CD06868032811D0022812D0F5
:1020A000216898B1490500293FDAA16821F00301B0
:1020B0000143A160FFF768FC804641F2883910E0D7
:1020C00021688901EFE721688903ECE78907EAE7DE
:1020D000FFF75AFCA0EB0801494502D90320BDE8EF
:1020E000F087A068696800F00C00B0EB810FEFD1B9
:1020F000287880070AD5A868A16801F0F001884215
:1021000004D2A16821F0F0010143A160306800F021
:102110000700B8420BD9306820F007003843306020
:10212000306800F00700B84201D00120D7E72878D6
:10213000400705D5A068E96820F4E0600843A06086
:102140002878000706D5A068296920F4605040EA85
:10215000C100A06000F05EF8A168094AC1F3031154
:10216000515C01F01F01C84006490860064800683C
:10217000BDE8F047FFF77EBE00200240001002409D
:10218000D0A2000804000020040100200F220260F9
:102190000C4A936803F003034360936803F0F00371
:1021A0008360936803F4E063C36092684FF4E06374
:1021B00003EAD20202610448006800F007000860E8
:1021C0007047000000100240002002400548064908
:1021D00000688968054AC1F30221515C01F01F01C2
:1021E000C8407047040000200010024010A30008FF
:1021F0000548064900688968054AC1F3C221515C57
:1022000001F01F01C8407047040000200010024088
:1022100010A3000870B52549002318468A68CC68C9
:1022200012F00C0204F00306214C4FEA640509D0B9
:102230000C2A05D0042A32D0082A00D1284670BDC5
:10224000012E10D10B681B0704D4D1F89430C3F3CE
:10225000032302E00B68C3F30313164E56F8233032
:10226000DAB10C2AEBD1C86800F00300022818D0BC
:10227000032818D01846CA68CB68C2F30212C3F309
:1022800006234343521CB3FBF2F2C868C0F341601B
:10229000401C4000B2FBF0F070BD184670BD2046F7
:1022A00070BD2046E7E72846E5E700000010024041
:1022B0000024F400E0A200082DE9F84304006FD0E8
:1022C000FA4DA86800F00C06E86800F003072078D3
:1022D000C00664D576B10C2E01D1012F0AD0A069B9
:1022E000002828687AD040F001002860FFF74CFBF6
:1022F00080465DE02868800702D5A0690028DED00E
:10230000216A2868000703D5286800F0F00004E07F
:10231000D5F89400F02202EA1010814216D908463E
:1023200002F0B4FB00283BD1286840F00800286088
:102330002868216A20F0F000084328606868E16995
:1023400020F47F4040EA0120686016E0286840F0F1
:10235000080028602868216A20F0F00008432860FF
:102360006868E16920F47F4040EA0120686026B98E
:10237000206A02F08BFB0028D5D1FFF74BFFA9683C
:10238000CB4AC1F30311515C01F01F01C840C94998
:102390000860C9480068FFF76DFD00287ED12EE077
:1023A000CAE000BFFFF7F0FAA0EB0800022876D8D9
:1023B00028688007F6D5286840F00800286028685B
:1023C000216A20F0F000084328606868E16920F481
:1023D0007F4040EA0120686011E0FFE720F0010043
:1023E0002860FFF7D1FA804606E000BFFFF7CCFA7D
:1023F000A0EB08000228DAD828688007F6D42078F5
:10240000C00740D0082E18D00C2E01D1032F14D0B5
:102410006068B0F5803F17D0B0F5A02F286817D0BE
:1024200020F480302860286820F4802028606068CC
:10243000E0B1FFF7A9FA804614E02868800322D5AE
:102440006068002878D01EE0286840F48030EDE70E
:1024500040F480202860F7E7FFF796FAA0EB080029
:102460006428A4D828688003F6D50CE0FFF78CFA1E
:10247000804605E0FFF788FAA0EB0800642896D8AC
:1024800028688003F6D4207880073BD5042E11D02D
:102490000C2E01D1022F0DD0E06801E0AAE1FFE08F
:1024A000002828681ED040F480702860FFF76CFA7E
:1024B00007460CE0286840050CD5E0680028C1D02C
:1024C00008E000BFFFF760FAC01B022893D8286815
:1024D0004005F7D56868217C20F0F85040EA01609B
:1024E00068600FE020F480702860FFF74DFA07461F
:1024F00005E000BFFFF748FAC01B0228B1D82868E2
:102500004005F7D42078000729D560690028D5F860
:10251000940012D040F00100C5F89400FFF734FA9F
:10252000074604E0FFF730FAC01B022899D8D5F817
:1025300094008007F6D512E02BE120F00100C5F8E9
:102540009400FFF721FA074605E000BFFFF71CFAE9
:10255000C01B022885D8D5F894008007F6D42078CF
:10256000400766D5A86D0027C00008D4A86D40F0CC
:102570008050A865A86D012700F0805000904F485A
:102580000168C90512D40168814641F48071016077
:10259000FFF7FAF9804605E0FFF7F6F9A0EB08002F
:1025A00002287DD8D9F80000C005F5D5A06801281B
:1025B00016D00528D5F8900017D020F00100C5F8F6
:1025C0009000D5F8900020F0040000BFC5F89000FE
:1025D000A06841F28839C0B1FFF7D6F980460FE014
:1025E000D5F8900040F00100F0E740F00400C5F895
:1025F0009000F5E7FFF7C8F9A0EB080149454FD86F
:10260000D5F890008007F5D50EE0FFF7BDF98046BC
:1026100006E000BFFFF7B8F9A0EB080149453FD835
:10262000D5F890008007F5D41FB1A86D20F0805038
:10263000A8652078800628D5606A0028D5F898001B
:1026400012D040F00100C5F89800FFF79DF9074649
:1026500005E000BFFFF798F9C01B022820D8D5F885
:1026600098008007F6D510E020F00100C5F898002A
:10267000FFF78AF9074604E0FFF786F9C01B022836
:102680000ED8D5F898008007F6D4A06AF0B30228D7
:1026900016D00C2E7DD0286820F08070286000E0D5
:1026A000A7E0FFF771F90446A6E000000010024021
:1026B000D0A20008040000200401002000700040A7
:1026C000E868E26A00F00301914228D1216B00F032
:1026D000700209011039914221D1626B00F4FE4170
:1026E000B1EB022F1BD194F8382000F07841B1EB08
:1026F000C26F14D1A18F00F4C00249084905A1F5A9
:10270000001191420BD194F8401000E06AE04908B2
:10271000490600F0C060A1F1007181424BD00C2E3F
:1027200073D02868400170D4286820F08070286039
:10273000FFF72AF9064604E0FFF726F9801B022876
:1027400057D828688001F7D4F4E90B016FF00F0225
:1027500002EB01110843218A5204490802EB41515E
:10276000A26841EA02210843217D4FF07E424908D8
:1027700002EB41610843217B40EAC160E968244AD9
:1027800011400843E860286840F080702860E868DD
:1027900000E03AE040F08070E860FFF7F5F80446AA
:1027A00005E000BFFFF7F0F8001B022821D82868D9
:1027B0008001F7D527E02868800124D4286840F0FC
:1027C00080702860E86840F08070E860FFF7DCF80F
:1027D000044604E0FFF7D8F8001B022809D828684F
:1027E0008001F7D50FE000BFFFF7CEF8001B0228ED
:1027F00002D90320BDE8F88328688001F4D4E86892
:1028000004490840E8600020F4E70120F2E70000F6
:102810008C809D01FCFFEEFE704700000EB506F0B7
:102820007FFC06480178837842788DE80E00C379F2
:102830008279818802A003F0FDF90EBD24040020F6
:10284000416C61726D2054696D653A25642D256473
:102850002D25642025643A25643A25640A00000089
:1028600010B5144904464FF4802008602068816840
:10287000C9040BD5C168C90508D5C16801F080013C
:1028800061F4C071C1602046FFF7C8FF206881680D
:1028900089040BD5C168890508D5C16801F080019C
:1028A00061F42071C1602046FFF7B6FF012084F873
:1028B000210010BD1404014010B500680B464168AA
:1028C0000D480140080CD870C1F304245C7001F07D
:1028D0003F049C70C1F34231197052B902F01AF9E9
:1028E000D870587802F016F95870987802F012F9FA
:1028F0009870002010BD00003FFFFF0010B50B4690
:102900000168896A596001680969C1F30E0199601B
:10291000006801680D480140C1F305401870C1F31B
:1029200006245C7001F07F049C70890DD97052B947
:1029300002F0F0F81870587802F0ECF858709878B7
:1029400002F0E8F89870002010BD00007F7F7F0043
:10295000704770477047000010B50446022249B125
:1029600004290ED0082913D094F84700012816D066
:10297000012010BD94F844000128F9D184F84420C6
:102980000FE094F845000128F2D184F8452008E0D2
:1029900094F846000128EBD184F8462001E084F841
:1029A00047200422206802F09EFB2068416C41F41D
:1029B000004141640B492068884205D0B0F1804F46
:1029C00002D00949884207D18168084A1140062986
:1029D00006D0B1F5803F03D0016841F001010160EC
:1029E000002010BD002C0140004001400700010004
:1029F00010B5040003D094F83D0010B107E00120A9
:102A000010BD002084F83C00204600F023F802208E
:102A100084F83D00211D206802F022FB012084F88B
:102A2000480084F83E0084F83F0084F8400084F8B1
:102A3000410084F8420084F8430084F8440084F89C
:102A4000450084F8460084F8470084F83D000020E3
:102A500010BD000008B5274A0168274891420ED1F1
:102A6000816D41F010018165806D032200F010003E
:102A7000009011463620FFF771FA362025E01F4AF4
:102A800091420ED1816D41F020018165806D03225C
:102A900000F02000009011463720FFF75FFA372042
:102AA00013E0B1F1804F14D0154A914220D1016E4C
:102AB00041F400610166006E032200F400600090A2
:102AC00002211920FFF74AFA1920BDE80840FFF754
:102AD00037BA816D41F001018165806D032200F0FC
:102AE0000100009011461C20FFF738FA1C20ECE78B
:102AF00008BD00000010004000100240001400401B
:102B0000002C014090F83D10012901D001207047B0
:102B1000022180F83D100168CA6842F00102CA60D3
:102B200000680B49884205D0B0F1804F02D00949B6
:102B3000884207D18168084A1140062906D0B1F5BC
:102B4000803F03D0016841F001010160002070471F
:102B5000002C0140004001400700010090F83C209B
:102B6000012A0CD0012200F83C2F0223437050F8B8
:102B70003C3C5961427000210170084670470220B8
:102B80007047000070B5044600682449884243D16C
:102B90000069C04380073DD50021214800F0D4FAE8
:102BA000204A83B21078010634D41D494506A1F1AC
:102BB0006C010CD540F0800010705380C86E026A22
:102BC00022F00A020262C86E016A016222E000205D
:102BD000508040231370CA6E136A41F211152B42C4
:102BE00007D1136AAD102B4203D1136823F0010300
:102BF0001360CA6E5062C86E026A22F00A02026254
:102C0000C86E026A42F002020262C86E016841F0B8
:102C1000010101602068006970BD0000002C0140C6
:102C20009C0400200800002070B50446006801697B
:102C30004FF00005C943890715D4C168C943890706
:102C400011D4E91E01610120207720688069800786
:102C5000204602D0FFF796FF04E000F0A7F82046D8
:102C600000F0BCF9257720680169C943490717D4EA
:102C7000C168C943490713D46FF004010161022000
:102C800020772068806910F4407F204602D0FFF74B
:102C900079FF04E000F08AF8204600F09FF92577DC
:102CA00020680169C943090716D4C168C9430907E7
:102CB00012D46FF008010161042020772068C069F8
:102CC0008007204602D0FFF75DFF04E000F06EF8B9
:102CD000204600F083F9257720680169C943C906B9
:102CE00017D4C168C943C90613D46FF0100101613C
:102CF000082020772068C06910F4407F204602D069
:102D0000FFF740FF04E000F051F8204600F066F9BC
:102D1000257720680169C943C90708D1C168C9433B
:102D2000C90704D1891E0161204600F0C1F920685D
:102D30000169C943090609D4C168C943090605D414
:102D40006FF0800101612046FFF703FE20680169F2
:102D5000C943C90509D4C168C943090605D46FF43C
:102D6000807101612046FFF7F3FD20680169C943C6
:102D7000490609D4C168C943490605D46FF040012A
:102D80000161204600F0F5F920680169C943890610
:102D90000BD4C168C943890607D46FF020010161D3
:102DA0002046BDE87040FFF7D5BD70BD704770B5D7
:102DB000044690F83C0000260D4601280BD0012067
:102DC00084F83C000C2A4AD007DC82B1042A20D0C7
:102DD000082A06D131E0022070BD102A53D0142AEF
:102DE00063D00126002084F83C00304670BD206886
:102DF00002F086F92068816941F00801816120684C
:102E0000816921F004018161206881692A69114387
:102E100011E0206802F0B0F92068816941F4006196
:102E200081612068816921F4806181612068816904
:102E30002A6941EA02218161D4E7206802F0D8F9C9
:102E40002068C16941F00801C1612068C16921F0B1
:102E50000401C1612068C1692A69114311E0206839
:102E600002F000FA2068C16941F40061C161206884
:102E7000C16921F48061C1612068C1692A6941EAA0
:102E80000221C161AEE7206802F01CFA2068416DA2
:102E900041F0080141652068416D21F00401416560
:102EA0002068416D2A69114311E0206802F038FA68
:102EB0002068416D41F4006141652068416D21F455
:102EC000806141652068416D2A6941EA02214165BE
:102ED00088E710B5040003D094F83D0010B107E076
:102EE000012010BD002084F83C00204600F022F8AC
:102EF000022084F83D00211D206802F0B1F8012075
:102F000084F8480084F83E0084F83F0084F84000CC
:102F100084F8410084F8420084F8430084F84400B7
:102F200084F8450084F8460084F8470084F83D00A2
:102F3000002010BD2DE9F041074600682549264CC8
:102F40000225012686B04FF0904888421CD11421FA
:102F50006846FDF7F4F9206E40F400602066206EAC
:102F600000F400600590E06C40F00100E064E06C6B
:102F7000694600F001000590E0148DE86100CDE99C
:102F800003564046FEF702FC3868B0F1804F1DD171
:102F900014216846FDF7D3F9A06D40F00100A0654B
:102FA000A06D00F001000590E06C40F00100E064CD
:102FB000E06C009600F0010005900020CDE9015082
:102FC000CDE9035669464046FEF7E0FB06B0BDE892
:102FD000F0810000002C014000100240704700000A
:102FE00010B50446022269B1042912D0082917D06D
:102FF0000C291CD0102921D094F84300012824D09A
:10300000012010BD94F83E000128F9D184F83E203B
:103010001DE094F83F000128F2D184F83F2016E02B
:1030200094F840000128EBD184F840200FE094F898
:1030300041000128E4D184F8412008E094F84200DE
:103040000128DDD184F8422001E084F843200122E8
:10305000206802F03BF812492068124A884204D0E6
:10306000904202D0104B984203D1436C43F400438A
:1030700043642068884204D0B0F1804F01D0904270
:1030800007D18168094A1140062906D0B1F5803F71
:1030900003D0016841F001010160002010BD000073
:1030A000002C0140004001400044014007000100A5
:1030B00070B5054600681E491E4C884209D121782A
:1030C000080606D4480604D5C843800607D0491C24
:1030D00021702868184EB0F1804F10D013E0174AC5
:1030E000D06E036A23F00A030362D06E026A0262A2
:1030F00041F0800020704FF6FF706080E9E7B188F2
:103100003068FEF733FC0E492868884206D1B18842
:103110003068FEF72BFCE06800B180470949286859
:10312000884203D1BDE87040FEF78CBE70BD000040
:10313000002C01400800002050B702083004002095
:1031400000100040001400400246002041B1042954
:1031500009D008290AD00C2901D11068006C7047E9
:103160001068406B70471068806B70471068C06BC8
:10317000704770477047704700680549884206D11C
:103180000F21016201220349034800F0C9B97047C9
:10319000004400409E000020E80A00202DE9F04194
:1031A00002680446D0691168936840F60F0528420A
:1031B0004FF0000505D186067ED58E067CD5616E62
:1031C0001BE1994F03F001060F40374374D0C70746
:1031D00009D0CF0507D501271762D4F8802042F027
:1031E0000102C4F8802082070AD5DA0708D02768D0
:1031F00002223A62D4F8802042F00402C4F880200F
:1032000042070AD5DA0708D0236804221A62D4F8E4
:10321000802042F00202C4F8802002070CD501F0A1
:103220002002324308D0236808221A62D4F8802092
:1032300042F00802C4F8802002050BD54A0109D5E6
:1032400023684FF400621A62D4F8802042F0200212
:10325000C4F88020D4F88020002A35D0800605D517
:10326000880603D5616E09B120468847D4F88000EE
:1032700021688968490602D410F0280F26D020461C
:1032800002F046FA2068806840061AD520680830A7
:1032900050E8001F21F0400140E80012002AF5D15B
:1032A000206F70B161498163206FFEF7CBF9002870
:1032B0000AD0206F816B01E00EE02046BDE8F041AE
:1032C00008472046FFF758FFBDE8F0812046FFF78A
:1032D00053FFC4F88050F7E7276E2026012F7BD1DB
:1032E000C70679D5CF0677D5102010622068806890
:1032F000400641D5216F086840680004000CE3D007
:10330000B4F858208242DFD9A4F85A00086800684F
:1033100080062AD4206850E8001F21F4807140E81C
:103320000012002AF6D12068083050E8001F21F072
:10333000010140E80012002AF5D12068083050E869
:10334000001F21F0400140E80012002AF5D1E66795
:103350002566216851E8000F20F0100041E80002C6
:10336000002AF6D1206FFEF748F9B4F85800B4F8F7
:103370005A10401A81B22AE0B4F85800B4F85A1032
:10338000401A81B2B4F85A0000289DD000299BD081
:10339000226852E8000F20F4907042E80003002BEE
:1033A000F6D12068083050E8002F22F0010240E8F2
:1033B0000023002BF5D1E66725666566226852E892
:1033C000000F20F0100042E80003002BF6D1204649
:1033D000FFF7D0FE78E7FFE7C70209D55B0207D504
:1033E0004FF4801010622046BDE8F041FFF7C3BEE5
:1033F000020606D50A0604D5A16E00297FF45DAF4A
:1034000062E74006E6D54806E4D52046026852E861
:10341000001F21F0400142E80013002BF6D186671F
:10342000856600F0CFF84FE720010004FD56000844
:1034300010B5040002D0A06F10B107E0012010BD4C
:10344000002084F87400204600F026F82420A067AD
:103450002068016821F001010160204602F01CFA99
:103460000128ECD0606A10B1204602F0B5F820685F
:10347000416821F4904141602068816821F02A016F
:1034800081602068016841F0010101602046BDE8CB
:10349000104002F005B9000070B500681E4986B002
:1034A000884236D11D48C16C41F00101C164C16C34
:1034B00001F001010591C16C41F00101C164C16CD1
:1034C00001F001010591816D41F400318165806D4C
:1034D000022400F400300590042001258DE831001D
:1034E0000320039007204FF0904604906946304631
:1034F000FEF74CF908208DE8310069463046FEF7AA
:1035000045F9032211462620FEF728FD2620FEF766
:1035100017FD06B070BD00000044004000100240DE
:1035200030B4C36F202B20D1E1B1DAB190F8743000
:10353000012B1AD0012380F87430002303660C4C51
:103540000368A3420BD05B681B0208D5046854E8EB
:10355000003F43F0806344E80035002DF6D130BCD5
:1035600002F09ABA012030BC70470220FBE700004D
:103570000080004000680F49884219D10E48B0F819
:103580000411FF290FD80D49B0F8002109788154A2
:10359000B0F80011491CC9B2A0F80011B0F804112C
:1035A000491CA0F80411012204490548FFF7B8BFDF
:1035B0007047000000440040E00900209D0000200A
:1035C000E80A002070470000014800F012B800002F
:1035D0006C0B002010B501684A68D243920507D4ED
:1035E0008A68D243D20703D1921E8A60FFF7ECFFAC
:1035F00010BDC1680068016000207047FEE70168E7
:103600008A69D243920701D400228A6200688169E4
:10361000C943C90703D0816941F001018161704745
:103620002DE9F04704460068884617468169002561
:103630002E46C906A9464FF0200A47D51021C16180
:1036400037E000BFB8F1FF3F33D0FEF79DF9C11B53
:10365000414502D8B8F1000F2BD12068416894F899
:10366000422001F480418369DB431B041CD4B1F583
:10367000804F19D0202A17D0416841F48041416021
:10368000FEF782F907460FE0FEF77EF9C01B192806
:103690000AD9606C40F02000606484F841A084F88E
:1036A000429084F84090012520688069C0438006DC
:1036B000EAD420688069C0F340102843C2D015B90D
:1036C0002168C1F81CA046F004060125216888691C
:1036D000C20505D54FF4807246F00106CA61012586
:1036E000410509D522684FF4806146F00806D16192
:1036F0000125800502D40AE0800507D521684FF432
:10370000007046F00206C861012500E08DB1204638
:10371000FFF775FF54F8240B4168074A11404160D8
:10372000206A3043206284F81DA084F81E9084F83B
:103730001C902846BDE8F08700E800FE2DE9F8431C
:1037400004461646DDE9089714489846DAB2009018
:103750000023204600F056F83A464946204600F03D
:1037600009F9B8B9F5B2B8F1010F08D02168300AEB
:1037700088623A464946204600F0FCF850B9206875
:1037800085624B46002240212046009700F052F807
:10379000002800D00120BDE8F88300000020008050
:1037A0002DE9F8430446164615489846DDE9089782
:1037B000DAB2C3020090204600F024F83A464946A7
:1037C000204600F0D7F8B8B9F5B2B8F1010F08D02B
:1037D0002168300A88623A464946204600F0CAF815
:1037E00050B9206885624B46002280212046009710
:1037F00000F020F8002800D00120BDE8F883000088
:103800000020008010B5C1F3090141EA02410268BD
:10381000029C19432143506821F000414FF480631A
:1038200003EA5453024C234398430843506010BDAD
:10383000FF63FF032DE9F0411D4617460E4604467F
:10384000DDF8188008E0681C06D0FEF79DF8A0EBB4
:103850000800A8420BD855B12068806936EA0000FC
:1038600012D00020B842EED00020BDE8F08154F81C
:10387000440F40F0200044F804092020607000202C
:10388000A07020700120F0E70120EBE72DE9F04166
:10389000202690460F460446002530E04246394631
:1038A0002046FFF7BDFE10BB20688069C04380063C
:1038B0001ED420688169C943490701D4218D19BBF1
:1038C0008169C943C90604D41021C1610420606420
:1038D00000E065642068C66120684168114A1140B3
:1038E000416084F8416084F8425084F8405016E00A
:1038F000FEF74AF8A0EB0800B84208D83FB12068AC
:103900008069C0434007C9D40020BDE8F08154F865
:10391000440F40F0200044F804096670257001202F
:10392000F3E7000000E800FE70B516460D460446B9
:103930000DE0324629462046FFF772FE08B101200D
:1039400070BDFEF721F8801BA84207D835B120686A
:103950008069C0438006ECD4002070BD54F8440F49
:1039600040F0200044F80409202060700020A0707E
:103970002070E4E770B516460D4604460FE0324667
:1039800029462046FFF74CFE08B1012070BD681C97
:1039900005D0FDF7F9FF801BA84207D835B1206894
:1039A0008069C0438007EAD4002070BD54F8440FFA
:1039B00040F0200044F80409202060700020A0702E
:1039C0002070E2E700B587B014216846FCF7B7FC29
:1039D0002748C16C41F00101C164C16C01F00101D3
:1039E0000591C16C41F00201C164C16C01F002019A
:1039F0000591C16C41F00401C164C06C00F0040089
:103A000005900120019002200290039019488188BE
:103A1000009100686946FDF7B9FE164808308188B4
:103A2000009100686946FDF7B1FE124810308188A8
:103A3000009100686946FDF7A9FE0E48183081889C
:103A4000009100686946FDF7A1FE0A482030818890
:103A5000009100686946FDF799FE06482830818884
:103A6000009100686946FDF791FE07B000BD0000B7
:103A700000100240B40000202DE9F04F4FF0000884
:103A800085B04746CDF80480CDF80880CDF80C808D
:103A90004446CDF8108000F0C5F8FDF775FF0646E6
:103AA0000DF10409DFF828A1DFF828B100F0A0FF2C
:103AB000050023D0442D3CD0432D67D0A5F1300024
:103AC00009281BD844A30122611C0820009504F09A
:103AD00037FD09F80450641CE4B20F2C0ED9BAF873
:103AE0000000002480B200903C48BBF80020702108
:103AF0000088203883B2204604F0D0FBFDF744FF55
:103B0000801BB0F5FA7F10D3002F52D0BAF8000016
:103B1000802380B20090BBF800201946002004F0FA
:103B200061FB0027FDF730FF0646142004F09CF8E7
:103B3000BCE709F8048001A929A002F07BF82D4810
:103B4000816801A8FCF70DFC80B14FF4784004F0C7
:103B50006BF929A20321052004F012FE4FF4FA604C
:103B600004F082F800F05EF80024C7E74FF4FC6030
:103B700004F05AF924A20321052004F001FE4FF4B9
:103B8000FA6004F071F805B000F048B8002C8DD050
:103B9000BAF80000E20080B20090A2F1080080B202
:103BA0008023702104F07AFB641EE4B209F80480DB
:103BB0007CE7194880231946008880B200900820CD
:103BC00000EBC402E00004F00DFB0127AAE70000AF
:103BD000B0000020A600002025630000A8000020FF
:103BE000E8BE93E585A5E5ADA6E58FB7EFBC9A25C0
:103BF000730D0A002C000020E5ADA6E58FB7E9940F
:103C000099E8AFAFEFBC8100E6ACA2E8BF8EE4BD9F
:103C1000A0EFBC8100000000AC00002030BCBDE87B
:103C2000C08F0000164910B50020086015494FF6F6
:103C3000FF700860002004F0F7F813A203210520AC
:103C400004F09EFD14A20121072004F099FD17A2A3
:103C500001210A2004F094FD16A3012205210A2067
:103C600004F06EFC14A205210A2004F089FD012253
:103C70000D21BDE8104012A30A2004F061BC000031
:103C8000B0000020AC000020E99481E5B18FE795F9
:103C90008CE99DA200000000E8AFB7E8BE93E5857F
:103CA000A5E5ADA6E58FB7EFBC9A0000E588A0E9D1
:103CB00099A4000028432900E7A1AEE8AEA40000C3
:103CC00028442900F8B505F059FC00240F4D104E8A
:103CD00012E00090D5E902210EA02B6901F0AAFFA5
:103CE0002878012806D1304603F0C8FD014617A008
:103CF00001F0A0FF641CE4B22878C0F10801A142E1
:103D0000E7DCBDE8F84005F059BC00002C000020BD
:103D10002000F014E6BC94E7A4BAE88085E4B8BAC1
:103D2000E2809C2573202573202573E2809DEFBCE3
:103D30008CE6ADA3E59CA8E5B195E7A4BAE7ACACE9
:103D400020257520E9A1B50D0A000000EFBC8CE527
:103D5000BD93E5898DE58589E785A7E5BCBAE5BA18
:103D6000A6E580BCE4B8BA2025640D0A0000000076
:103D70002DE9F041274C0026274D01460127A66179
:103D800067714FF6FF702860244804F15008066000
:103D90002278A068825C8A421AD1E66104F0A4FA13
:103DA000288880B204F040F8142003F05DFFFFF78C
:103DB00089FF288880B204F037F8142003F054FFFC
:103DC000207858F82010401CE1612070BDE8F08197
:103DD000FCF7C0FA2178884218D12770E66104F018
:103DE00083FA288880B204F01FF8142003F03CFF07
:103DF000FFF768FF288880B204F016F8142003F05B
:103E000033FF217858F82100E061DFE7BDE8F04199
:103E100003F05CBF2C000020B0000020AC000020AC
:103E20002DE9F04381468FB00F460846FCF792FA21
:103E3000C4B2142101A8FCF782FA35484FEA0913ED
:103E4000008880B20090A3F1100081B2314802884E
:103E5000002004F023FA002C56D02F4E0DF1040858
:103E6000102C36D8202106A8FCF769FA394606A896
:103E7000FCF785FA204606A9202204F1100501E08E
:103E80000A54401CA842FBDB002004E003193A5C02
:103E90000B44401C1A74A042F8DBB3780020424661
:103EA0001C1894FBF5F705FB17440C5D1454401CDB
:103EB0001028F5DB012219A311464846CDF80080F1
:103EC00004F03EFBB078401CB0FBF5F105FB11009F
:103ED00019E0B27800204146131893FBF4F504FB77
:103EE0001533FB5C0B54401C1028F5DB01220091BC
:103EF0000AA31146484604F023FBB078401CB0FBEF
:103F0000F4F104FB1100B0700FB0BDE8F0830000C5
:103F1000B0000020A60000202C0000202573000027
:103F200038B51C494FF6FF701B4A086000211B4C36
:103F300011600421617103F077FF01210846E268F6
:103F400004F01EFC012208211046A36804F0F8FAD0
:103F500001210220226904F013FC114801F0ECFA5F
:103F60000025D4E902210FA0236901F063FE14A00B
:103F7000616901F05FFE6D1CEDB2052DF1D31648AD
:103F8000A0611648642300901A463C210F2004F0DB
:103F9000BBFC38BDB0000020AC0000202C0000208D
:103FA000E13F0008E6BC94E7A4BAE88085E4B8BA2B
:103FB00020222573202573202573220D0A0000007E
:103FC000E4BAA7E59381E5908DE7A7B0E4B8BA3AE3
:103FD0002025730D0A0000007140000880A300082E
:103FE00010B5054CA06900B1804760796169BDE8F2
:103FF0001040FFF715BF00002C00002070B50A4CE0
:1040000005462168A0888862A4F1080081880068BC
:104010008161280A00F09EFFE8B200F09BFF216852
:10402000A088886170BD0000D400002030B50E4823
:1040300087B0C16C41F00401C164C06C4FF40054FE
:1040400000F0040005900120CDE900400220074D5A
:10405000039069462846FDF799FB00222146284631
:10406000FDF78CFC07B030BD00100240000800488E
:1040700010B503F0C9FE104C00280E49607807D037
:10408000022802D2D1E9000109E0D1E9020106E0EB
:10409000022802D2D1E9040101E0D1E9060104F0CD
:1040A000D8FC6078401CC0B26070042801D30020A6
:1040B000607010BD407802082C00002000EB8100E9
:1040C000006E00F0F84070478068C0F3C000704791
:1040D0008068C0F380007047C06810F4406F01D062
:1040E0000020704701207047042303EAD15310B524
:1040F00018444369C1F3045107248C40A3438A4008
:104100001343436110BD00EB8100016E21F00041BB
:1041100011430166704700002DE9F04781462DEDFF
:10412000028B924688463C2000F0B6FA04463B20BB
:1041300000F0B2FA000204FA80F006B23E2000F06D
:10414000ABFA04463D2000F0A7FA000204FA80F022
:1041500005B2402000F0A0FA04463F2000F09CFA8F
:10416000000204FA80F004B29FED1C1B9FED1D0BB2
:1041700001F066FE9FED1D1B51EC100B53EC112B53
:10418000FCF7B5F91B4F41EC180B7888FCF793FA54
:1041900053EC182BFCF720FAFCF7C6FA00EE906AF5
:1041A00000EE100AF8EEE00A87ED020A60EE800ADF
:1041B000C9ED000A00EE905AF8EEE00A60EE800ABF
:1041C000C8ED000A00EE904AF8EEE00A20EE800A00
:1041D0008AED000ABDEC028BBDE8F087000000000C
:1041E000000030400000000000000040000000001F
:1041F0000000E03FF40000202DE9F04781462DED5E
:10420000028B92468846442000F046FA044643203A
:1042100000F042FA000204FA80F006B2462000F0F4
:104220003BFA0446452000F037FA000204FA80F019
:1042300005B2482000F030FA0446472000F02CFA7E
:10424000000204FA80F004B29FED1C1B9FED1D0BD1
:1042500001F0F6FD9FED1D1B51EC100B53EC112BE3
:10426000FCF745F91B4F41EC180B3888FCF723FA93
:1042700053EC182BFCF7B0F9FCF756FA00EE906AF5
:1042800000EE100AF8EEE00A87ED010A60EE800AFF
:10429000C9ED000A00EE905AF8EEE00A60EE800ADE
:1042A000C8ED000A00EE904AF8EEE00A20EE800A1F
:1042B0008AED000ABDEC028BBDE8F087000000002B
:1042C000000030400000000000000040000000003E
:1042D0000000E03FF400002010B5422000F0DCF9BF
:1042E0000446412000F0D8F9000204FA80F000B240
:1042F00000EE100A9FED051AB8EEC00AC0EE010AE2
:10430000B3EE050A30EE800A10BD00005CEFA64354
:1043100000B587B014216846FCF711F80C48C16C51
:1043200041F00201C164C06C694600F002000590D2
:10433000C0200090122001900120029003200390E1
:10434000042004900348FDF721FA07B000BD0000E7
:1043500000100240000400481CB54D48816D41F436
:1043600000118165806D00F400100090FFF7D0FF10
:104370004948484901220160484941600021C0E99B
:104380000212016141618161C1610162FDF702FBBD
:1043900008B143A014E064200090012301AAD221B7
:1043A0003D48FDF753FB10B943A001F043FC52A078
:1043B00001F040FC80216B2000F0E8F918B155A015
:1043C00001F038FC4BE059A001F034FC642003F00C
:1043D0004BFC00216B2000F0D9F908B158A0EFE7A1
:1043E0005DA001F027FC032000F084F908B15FA074
:1043F000E6E7002000F066F908B164A0E0E73220AB
:1044000000F0ACF908B16AA0DAE70021382000F02A
:10441000BDF908B16CA0D3E700216A2000F0B6F91D
:1044200008B16FA0CCE70021232000F0AFF908B15C
:1044300072A0C5E78021372000F0A8F908B174A068
:10444000BEE703211A2000F0A1F908B176A0B7E772
:10445000752000F021F9712803D0702801D00020C8
:104460001CBD01216B2000F091F908B175A0A7E7F0
:1044700000216C2000F08AF908B178A0A0E7322072
:1044800000F06CF908B17CA09AE701201CBD000087
:104490000010024000540040800B0020825E80101B
:1044A00049324331E5889DE5A78BE58C96E5A4B1BB
:1044B000E8B4A50D0A000000E8ADA6E5918AEFBCBE
:1044C0009AE6A380E6B58BE588B0493243E59CB017
:1044D000E59D8030783639E69C89E5938DE5BA9480
:1044E000EFBC8CE58FAFE883BDE5AD98E59CA8E512
:1044F00086B2E7AA810D0A00E5BC80E5A78B4D5086
:104500005536303530E5889DE5A78BE58C962E2E07
:104510002E0D0A004D505536303530E5A48DE4BDE2
:104520008DE5A4B1E8B4A50D0A0000004D50553644
:10453000303530E5B7B2E5A48DE4BD8D0D0A00003D
:104540004D505536303530E594A4E98692E5A4B156
:10455000E8B4A50D0A0000004D505536303530E561
:10456000B7B2E594A4E986920D0A0000E8AEBEE772
:10457000BDAEE99980E89EBAE4BBAAE9878FE7A8B7
:104580008BE5A4B1E8B4A50D0A000000E8AEBEE7D3
:10459000BDAEE58AA0E9809FE5BAA6E8AEA1E987AD
:1045A0008FE7A88BE5A4B1E8B4A50D0A00000000D0
:1045B000E8AEBEE7BDAEE98787E6A0B7E78E87E540
:1045C000A4B1E8B4A50D0A00E585B3E997ADE4B858
:1045D000ADE696ADE5A4B1E8B4A50D0A0000000073
:1045E000E585B3E997AD493243E4B8BBE6A8A1E558
:1045F000BC8FE5A4B1E8B4A50D0A0000E585B3E9D8
:1046000097AD4649464FE5A4B1E8B4A50D0A0000B0
:10461000E9858DE7BDAE494E54E5BC95E8849AE541
:10462000A4B1E8B4A50D0A00E9858DE7BDAE444C00
:104630005046E5B8A6E5AEBDE5A4B1E8B4A50D0ABF
:1046400000000000E8AEBEE7BDAEE697B6E9929F77
:10465000E6BA90E5A4B1E8B4A50D0A00E9858DE7B6
:10466000BDAEE794B5E6BA90E7AEA1E7908632E535
:10467000A4B1E8B4A50D0A00E69C80E7BB88E8AECB
:10468000BEE7BDAEE98787E6A0B7E78E87E5A4B1B0
:10469000E8B4A50D0A0000001FB56423012203A998
:1046A0008DE80E0013460246D0210548FDF764FA56
:1046B00010B1FF2004B010BD9DF80C00FAE7000017
:1046C000800B00200A4930B1012806D002280BD007
:1046D000032804D10AE0022200E004224A80C00636
:1046E000010E1C2000F052B80822F7E71022F5E76F
:1046F000F40000200C4930B1012806D002280CD06B
:10470000032805D10CE0FA2201E04FF4FA720A8086
:10471000C006010E1B2000F039B84FF47A72F6E79C
:104720004FF4FA62F3E70000F4000020BC2801D344
:10473000012110E0622801D302210CE02A2801D3D4
:10474000032108E0142801D3042104E00A2801D33E
:10475000052100E006211A2000F018B810B5044623
:104760004FF47A70844201D9044602E0042C00D24E
:104770000424B0FBF4F0401EC1B2192000F006F88A
:104780006008BDE81040FFF7D1BF000003B583B05B
:104790006423012204A98DE80E0013460246D021AD
:1047A0000348FDF79FFA002800D0012005B000BDA6
:1047B000800B0020F0B595B000F096F803F094FD62
:1047C00004F04AF9FFF732FC01224FF090412C48E7
:1047D00003F03EF803F07CF8FFF7BEFD08B129A016
:1047E00000E02EA001F026FA324E334F00254FF69E
:1047F000FF7435603C60FFF73FF941F63F7241F2CC
:1048000087312E4800F09EFE346020463D6003F064
:104810000BFB142003F028FAFFF782FB03F002F9E8
:1048200003F010F901210022084605F0ACF8244CF1
:10483000606010B923A001F0FDF91C2229496846E7
:10484000FBF764FD0021684604F065F92549A06086
:104850001C221C3107A8FBF759FD002107A804F012
:104860005AF92049E0601C2238310EA8FBF74EFDB2
:1048700000210EA804F04FF9206115B0F0BD000032
:104880002000F0144D50553630353020696E697473
:104890002073756365657373210D0A004D5055369D
:1048A00030353020696E69742066616C69656421F9
:1048B0000D0A0000B0000020AC00002000100040F5
:1048C000180000204661696C656420746F20637273
:1048D00065617465206B6579207175657565210D5D
:1048E0000A00000018A3000870B586B014216846BD
:1048F000FBF725FD3C48C16C41F00101C164C16C6E
:1049000001F001010591C16C41F00201C164C16C6B
:1049100001F002010591C16C41F00401C164C06C59
:10492000012600F0040000250590CDE901652F4C1B
:1049300003956946A08880B20090A068FCF726FF26
:10494000A08A694680B20090A069FCF71FFFA08C86
:10495000694680B20090A06AFCF718FFA08E6946F5
:1049600080B20090A06BFCF711FFCDE901560395D2
:10497000B4F84400694680B20090A06CFCF706FFD2
:10498000B4F85400694680B20090A06DFCF7FEFEBA
:10499000B4F86400694680B20090A06EFCF7F6FEA1
:1049A000B4F87400694680B20090A06FFCF7EEFE88
:1049B00080340122A189206889B2FCF7DFFFA18B36
:1049C000012289B22069FCF7D9FFA18D012289B2A9
:1049D000206AFCF7D3FFA18F012289B2206BFCF77C
:1049E000CDFF06B070BD0000001002409CAC020874
:1049F0002DE9F04721489AB00DF12009B0E8FE10EA
:104A000089E8FE10FFC88DE8FF004FF0000845461A
:104A10006E46CA460AEBC5095AF83500B9F80410C3
:104A20000022FCF7ABFF002406EBC40756F8340065
:104A3000B988FCF796FFA0B1641CE4B2042CF3D350
:104A4000B9F804105AF835000122FCF797FFB8F1C5
:104A5000000003D16D1CEDB2042DDBD31AB0BDE80C
:104A6000F087074800EB850010F80480B98856F8F5
:104A70003400FCF776FF0028F8D0E1E75CAD0208CF
:104A8000E4000020FEE7FEE7FDF7A2BAF8B51C4DF2
:104A900006460024A86DC00002D5FDF791FA0DE08E
:104AA000A86D40F08050A865A86D00F0805000907F
:104AB000FDF786FAA96D21F08051A965B0F5007F58
:104AC00004D0802E07D94FF003040AE0802E08D9C5
:104AD000A02E01D804E001D1022402E0702E00D102
:104AE00001240848016821F00701214301600068A2
:104AF00000F00700A04201D00120F8BD0020F8BD61
:104B000000100240002002400148FDF7A9BE00004D
:104B100000040020010901EB810100F00F0000EB0F
:104B20004100C0B270470000F8B503F043F91D48DA
:104B300002F0A4FE00901CA302220121042003F035
:104B4000FFFC1C4C0122D4E9100103F07DFFD4E9E5
:104B50001201012203F078FFD4E91401012203F0CD
:104B600073FF04F15805646EE0CD03F04DF94FF08A
:104B7000000210B13146284601E02146384603F0D4
:104B800063FF0D4CE078401CC0B2E070142803D3E2
:104B900003F0AAFB0020E070BDE8F8404FF4FA7083
:104BA00004F064BD2000F0144144433A2025642001
:104BB00020200000407802082C00002010B503F0EF
:104BC000F9F81E48F7EE080A1D4A90ED090A30EE82
:104BD000200A80ED090A90ED0A1A10EE101A31EE43
:104BE000201A914280ED0A1AD0ED0B1A71EEA00A3C
:104BF000DFED141AC0ED0B0A03DB30EE610A80ED25
:104C0000090A11EE101A914203DB31EE610A80EDC0
:104C10000A0A10EE901A914203DB30EEE10A80EDB1
:104C20000B0A2430322290EC030A5F21BDE81040C9
:104C30004FF47843412003F02DB900002C000020F0
:104C40000000B4430000B44338B503F0B3F8134D8B
:104C5000002400BF55F82400642300901A46282140
:104C60000F2003F051FEC82002F0FEFF641CE4B2E6
:104C7000052CEFD35FF00404642355F82400009062
:104C80001A4628210F2003F03FFEC82002F0ECFF57
:104C9000641E64B2002CEFDA38BD00006CA300087B
:104CA00038B5234C207958B103F01EFB2148008809
:104CB00080B203F0B9F8142002F0D6FF0020207172
:104CC00003F078F81E211C4804F052FB002825D080
:104CD0001948FBF73FFB002820D01748FBF73AFBA9
:104CE0000246154915A000F0A5FF0020124C03E074
:104CF00030390A2913D2401C215C0029F8D1002840
:104D00000DDD16A302220121042003F019FC17A3D4
:104D1000022201210520009403F012FC38BD01B0ED
:104D20000222BDE83040012113A3042003F008BC97
:104D30002C000020B0000020C009002052656365EF
:104D40006976656420737472696E673A2025732CE6
:104D5000206C656E3A2025640D0A00004E756D6268
:104D600065723A202020202020202000257320205A
:104D700020202020202020006973206E6F74206185
:104D8000204E756D6265720038B503F013F81E2170
:104D9000104804F0EDFA00281BD00E48FBF7DAFAB1
:104DA000002816D00B48FBF7D5FA024609490AA09D
:104DB00000F040FF074C10A30222012104200094C0
:104DC00003F0BEFB0FA3022201210520009403F093
:104DD000B7FB38BDC009002052656365697665641C
:104DE00020737472696E673A2025732C206C656E8F
:104DF0003A2025640D0A0000737472696E673A20C8
:104E000000000000257320202020202020202000EA
:104E100010B588B002F0CEFFFFF75EFA10EE104A30
:104E200003AA04A906A8FFF7E7F902AA07A905A89B
:104E3000FFF772F92046FBF74BFCCDE9000127A3F1
:104E400000220121062003F07BFB0698FBF740FCC3
:104E5000CDE9000126A300220121072003F070FB09
:104E60000598FBF735FCCDE9000124A300220C21B5
:104E7000072003F065FB0498FBF72AFCCDE900014D
:104E800021A300220121082003F05AFB0498FBF71C
:104E90001FFCCDE900011FA300220C21082003F014
:104EA0004FFB0398FBF714FCCDE900011CA3002283
:104EB0000121092003F044FB0298FBF709FCCDE92E
:104EC00000011AA300220C21092003F039FB4FF442
:104ED000FA7002F0C9FE08B010BD000054656D7094
:104EE000657261747574653A20252E326620200043
:104EF00067783A20252E32662020200061783A20FB
:104F0000252E32662020000067793A20252E326651
:104F10002020200067793A20252E326620200000CC
:104F2000677A3A20252E326620202000617A3A20C6
:104F3000252E32662020000010B502F03BFFBDE8B0
:104F4000104002F0EBBD10B502F034FFBDE8104098
:104F500002F032BE70B50A4A082194881568083AF2
:104F600013689288060601D5AC6100E0AC629A62D3
:104F70009A614006000E491E11F0FF01F2D170BD8A
:104F8000BC00002010B5502080F31188BFF34F8F74
:104F9000BFF36F8F05F008F818B104494FF0805047
:104FA0000860002080F3118810BD000004ED00E0CF
:104FB0000248016841F470010160704788ED00E02B
:104FC0000148FDF731BE00009C04002010B5184CCC
:104FD000E06E0069C043C00729D116488168FF29E7
:104FE00005D9A1F5807181604FF4807108E011F05E
:104FF000FF0F12D04FF0000211F0FF0182600CD0C1
:105000000D48491E01600A4801216C30FDF7A6FDDC
:10501000E06E016841F0010104E0074830380168A2
:1050200021F001010160E16E6FF00100086110BD27
:105030003004002008000020302C01400148FDF71A
:10504000F3BD0000F80400200148FDF7EDBD0000AD
:10505000540500200148FDF7E7BD0000780100205D
:1050600070B50268164B4FF08046984201D0B042AE
:1050700003D122F070044A682243124C124D984228
:1050800005D0B04203D0A04201D0A84203D122F4FF
:105090004076CA6832434E6922F080023243026091
:1050A0008A68C2620A688262984203D0A04201D034
:1050B000A84201D1096901630121416170BD00006D
:1050C000002C0140004001400044014010B501F0B7
:1050D0001F030121046A99408C430462016A9A40CB
:1050E0001143016210BD10B501F01F030421046AD1
:1050F00099408C430462016A9A401143016210BDD9
:10510000F0B5026A22F001020262056A4368826910
:10511000154C25F0020522400C6822F003021443CE
:105120008A68134E2A43114D124FA84203D0B04251
:1051300001D0B84206D122F0080CCA6842EA0C023B
:1051400022F00402A84203D0B04201D0B84205D1F7
:105150004D6923F440731D438B692B434360846185
:10516000496841630262F0BD8FFFFEFF002C0140E1
:10517000004001400044014030B5026A22F01002B4
:105180000262046A42688369154D2B400D6823F45E
:10519000407343EA052524F020038C6843EA041396
:1051A000104CA04207D1CC6823F0800343EA0413DB
:1051B00023F0400305E00C4CA04202D00B4CA0426F
:1051C00007D14C6922F4406242EA84028C6942EAC7
:1051D00084024260856149688163036230BD0000DA
:1051E000FF8FFFFE002C01400040014000440140C1
:1051F00030B5026A22F480720262046A4268C369AE
:10520000144D2B400D6823F003031D4324F4007359
:105210008C6843EA0423104CA04207D1CC6823F4E5
:10522000006343EA042323F4806305E00B4CA042AF
:1052300002D00B4CA04207D14C6922F4405242EA02
:1052400004128C6942EA04124260C5614968C16374
:10525000036230BD8FFFFEFF002C01400040014083
:105260000044014030B5026A22F480520262046AAE
:105270004268C3690F4D24F400542B400D6823F499
:10528000407343EA05238D6844EA05340A4DA84279
:1052900005D00A4DA84202D0094DA84204D14D695B
:1052A00022F4804242EA85124260C3614968016487
:1052B000046230BDFF8FFFFE002C01400040014022
:1052C0000044014030B5026A22F480320262046A6E
:1052D0004268436D0E4D2B400D681D4324F400338E
:1052E0000C8943EA04430B4CA04205D00A4CA0426F
:1052F00002D00A4CA04204D14C6922F4803242EA26
:1053000004224260456549688165036230BD000042
:105310008FFFFEFF002C014000400140004401408F
:1053200030B5026A22F480120262046A4268436D58
:105330000E4D24F400142B400D6843EA05230D891B
:1053400044EA05540A4DA84205D00A4DA84202D0AD
:10535000094DA84204D14D6922F4802242EA8522F7
:10536000426043654968C165046230BDFF8FFFFE3E
:10537000002C0140004001400044014008B50020DD
:105380008DF8000004F0FAF818A000F053FC1C4C53
:10539000206838B9012004F0EBFA206010B919A098
:1053A00000F048FC04F00AF94FF496750A226946A9
:1053B000606804F0FDFB012814D19DF800101BA0CB
:1053C00000F038FC0A21206804F08EFC012809D185
:1053D0009DF80000FEF7CCFC00231A461946206811
:1053E00004F036FB284604F041F9DFE74C45442041
:1053F0005461736B20537461727465640D0A00000C
:10540000180000204661696C656420746F20637227
:10541000656174652052756E696E67536372656568
:105420006E4D757465780D0A000000005265636565
:1054300069766564206B65793A2025630D0A000062
:1054400004F09CF811A000F0F5FB164C206A38B966
:10545000012004F08DFA206210B913A000F0EAFBDD
:1054600004F0ACF8E06968B10A21206A04F03CFC61
:10547000012807D1E069804700231A461946206AAF
:1054800004F0E6FA322004F0F1F8EBE75461736BB4
:105490004C434452756E66756E632053746172742A
:1054A0000D0A00002C0000204661696C65642074C0
:1054B0006F2063726561746520784C434446756E55
:1054C000634D757465780D0A000000001CB500205E
:1054D0008DF8000004F09CF90EA000F0ABFB04F086
:1054E00095FE144CFFF784FA8DF8000070B16068E7
:1054F00003F0F3FF20B9002201A9606804F058FB13
:1055000000231A466946606804F0A2FA322004F0CB
:10551000ADF8E7E74D6174726978206B6579626F69
:10552000617264205461736B20537461727465649A
:105530000D0A0000180000200149C86070470000F3
:105540000800002070B5214D441BA84225D00CDC7A
:10555000B0F1804F15D01E4C041914D0B4F5806FF3
:1055600013D0B4F5D84F19D115E0B4F5184F06D0C3
:10557000B4F52C4F0BD0B4F5304F0FD109E0012317
:105580000CE002230AE0032308E0042306E00523DD
:1055900004E0062302E0072300E00823C3EBC30472
:1055A00004EB03140B4B03EB8403C3E90402002058
:1055B000C3E906011862986203F110000446FDF782
:1055C00017FA2046BDE87040FDF79CBA00940040F1
:1055D00000F0FFBF3004002090F82410C90706D067
:1055E00001684A68836A22F400321A434A6090F8DC
:1055F0002410890706D501684A68C36A22F48032FC
:105600001A434A6090F82410490706D501684A6891
:10561000036B22F480221A434A6090F82410090791
:1056200006D501684A68436B22F400421A434A6077
:1056300090F82410C90606D501688A68836B22F4A5
:1056400080521A438A6090F82410890606D50168B2
:105650008A68C36B22F400521A438A6090F82410BF
:10566000490611D501684A68036C22F480121A4376
:105670004A60016CB1F5801F06D101684A68436C2D
:1056800022F4C0021A434A6090F82410090606D595
:1056900001684A68806C22F4002202434A60704725
:1056A000F8B500260446C0F88060FCF76DF90546A1
:1056B000206800686FF07E47000708D52B4600225F
:1056C0004FF400112046009700F042FA60B92068BC
:1056D000006840070AD52B4600224FF4800120467F
:1056E000009700F035FA08B10320F8BD2020A0672C
:1056F000E067266684F874600020F8BD10B5806A03
:105700000021A0F85A10A0F85210FDF735FD10BD89
:10571000016851E8002F22F4907241E80023002B29
:10572000F6D10168083151E8002F22F0010241E86A
:105730000023002BF5D1016E012908D1026852E83F
:10574000001F21F0100142E80013002BF6D12021A8
:10575000C167002101664166704710B5B0F85C2052
:10576000C36F0168222B04D0088B40F00800088327
:1057700010BD898C436D11401980416D891C4165B4
:10578000B0F85A10491EA0F85A10B0F85A10002963
:10579000EED1026852E8001F21F4907142E8001334
:1057A000002BF6D10168083151E8002F22F00102E8
:1057B00041E80023002BF5D12021C167002141667B
:1057C000026E012A02D0FDF7D5FE10BD0166026807
:1057D00052E8001F21F0100142E80013002BF6D11F
:1057E0000168CA69D243D20601D410220A62B0F815
:1057F0005810FDF7BFFC10BD10B5B0F85C20C36FAA
:105800000168222B04D0088B40F00800088310BDEB
:10581000898C1140426D1170416D491C4165B0F891
:105820005A10491EA0F85A10B0F85A100029EED1AB
:10583000026852E8001F21F4907142E80013002B27
:10584000F6D10168083151E8002F22F0010241E849
:105850000023002BF5D12021C16700214166026E93
:10586000012A02D0FDF786FE10BD0166026852E8EB
:10587000001F21F0100142E80013002BF6D101684F
:10588000CA69D243D20601D410220A62B0F8581075
:10589000FDF770FC10BD00002DE9F04104460168E1
:1058A00080682269E3691043626900251A43104346
:1058B000714F0A68714B1A4002430A6020684168C0
:1058C000E26821F44051114341602168A069B94266
:1058D00001D0226A10438A6822F4306202438A604F
:1058E0006749236867488B420DD1D0F8880010F0D3
:1058F000030006D0012847D0022843D0032830D126
:1059000044E001212EE060498B420BD1D0F88800A1
:1059100010F00C0034D0042836D0082832D00C28DF
:105920001FD133E059498B420BD1D0F8880010F0D9
:10593000300025D0102827D0202823D0302810D19F
:1059400024E0BB420DD1D0F8880010F4406017D09D
:10595000B0F5806F18D0B0F5006F13D0B0F5406F80
:1059600014D010214A4A00264FF40040BB422FD1E8
:1059700071B102290FD004290FD0082973D10FE08B
:105980000021EFE70221EDE70421EBE70821E9E739
:10599000FCF71CFC03E0104602E0FCF73BFCE8B31C
:1059A000626802EB420181425DD8B0EB023F5AD8F7
:1059B000010E03025008181871410023FAF772FC17
:1059C000344AA0F5407191424DD82168C8604BE03F
:1059D000E3694FF6EF77834228D1092943D2DFE804
:1059E00001F005080B420D4242421000FCF7EEFBAD
:1059F00006E0FCF7FDFB03E0104602E0FCF70AFCC2
:105A000060B14100606801EB5001B1FBF0F0A0F122
:105A10001001B94227D84FF6F07100E024E00140B0
:105A2000C0F3420001432068C1601DE009291AD279
:105A3000DFE801F005080B190D1919191000FCF722
:105A4000C5FB06E0FCF7D4FB03E0104602E0FCF7E0
:105A5000E1FB48B1616800EB5100B0FBF1F0A0F14F
:105A60001001B94205D9012566662846A666BDE83B
:105A7000F08180B2A9E7000000800040F369FFEFE9
:105A8000003801400010024000440040004800403F
:105A90000024F400FFFC0F0030B54165A0F8582049
:105AA000A0F85A200022426681684FF48055FF23F7
:105AB000A94204D1016971BB40F2FF1131E07F249A
:105AC00039B3B1F1805F29D0A0F85C20C0F8802004
:105AD0002221C1670168083151E8003F43F001030A
