:020000040800F2
:10000000A02800201503000847200008A91E0008AA
:1000100045200008A5070008F5240008000000009E
:100020000000000000000000000000003502000891
:10003000CD07000800000000910200084D210008D3
:10004000F9240008492000082F0300082F030008A6
:100050002F0300082F030008CF0700082F03000814
:100060002F030008D5070008F90700082F03000830
:100070002F030008A90700082F0300082F0300081A
:10008000B5070008C10700082F0300082F03000868
:100090002F0300082F0300082F0300082F03000878
:1000A0002F030008952100082F030008892100086C
:1000B0000522000800000000000000002F030008D7
:1000C0002F0300082F0300082F0300082F03000848
:1000D0002F0300082F030008E92400082F0300085D
:1000E0002F030008C92000080000000000000000E5
:1000F0000000000000000000000000000000000000
:10010000000000002F030008000000002F0300087B
:100110000000000000000000112200081D2200085D
:100120002F0300082F0300082F0300082F030008E7
:100130002F03000800000000000000000000000085
:100140002F0300082F0300082F0300080000000001
:100150002F0300082F0300082F0300082F030008B7
:100160002F0300082F0300082F03000800000000E1
:100170002F0300082F03000800000000000000000B
:100180002F0300082F0300082F03000800F002F8D7
:1001900000F041F80AA090E8000C82448344AAF1E0
:1001A0000107DA4501D100F036F8AFF2090EBAE8DE
:1001B0000F0013F0010F18BFFB1A43F0010318479B
:1001C0001835000038350000103A24BF78C878C1CF
:1001D000FAD8520724BF30C830C144BF04680C604D
:1001E000704700000023002400250026103A28BF95
:1001F00078C1FBD8520728BF30C148BF0B60704799
:10020000642900F0B580002070471FB503F0B6F9EF
:100210001FBD10B510BD00F097FA1146FFF7F5FFAE
:1002200002F0A0FB00F0B5FA03B4FFF7F2FF03BC45
:1002300002F07FF92C4B1968086800F05AB880F377
:100240000988BFF36F8F4FF0000080F3118870476B
:100250000000000008480068006880F308884FF03C
:10026000000080F3148862B661B6BFF34F8FBFF30E
:100270006F8F00DF00BF00BF08ED00E0DFF80C006B
:10028000016841F470010160704700BF88ED00E033
:10029000EFF30980BFF36F8F134B1A681EF0100F36
:1002A00008BF20ED108A20E9F04F106009B44FF02C
:1002B000500080F31188BFF34F8FBFF36F8F02F0B0
:1002C00083FF4FF0000080F3118809BC19680868AB
:1002D00000F014B81EF0100F08BF00F014B880F33F
:1002E0000988BFF36F8F70476C000020EFF3058023
:1002F000704730C8B0E8C04FFFF7A1BF30C8B0E8C2
:10030000C04FFFF7E7BFB0EC088AB0EC08CAFFF7B0
:10031000E6BF00000948804709480047FEE7FEE7BE
:10032000FEE7FEE7FEE7FEE7FEE7FEE7FEE7FEE7A5
:1003300004480549054A064B70470000792100082A
:100340008D010008A0160020A0280020A018002081
:10035000A0180020704700000FB4044910B503AA8C
:10036000029800F0D7F910BC5DF814FB1C000020C7
:100370002DE9F0410646002410687529314616A57E
:1003800010D0AFF30080002802DA404213A507E046
:1003900031688A0701D512A502E0490704D511A5E5
:1003A000012401E0AFF3008000210A2206F12407B6
:1003B00009E0B0FBF2FCB0FBF2F302FB1C003030B2
:1003C00078541846491C0028F3D123462A46304663
:1003D000BDE8F04100F02CB9000000002D00000045
:1003E0002B000000200000002DE9F05F8946044644
:1003F0004FF0000ADFF874B1FB44C0F820A020469B
:10040000E1688847002874D0252806D0D4E9012166
:100410009047206A401C2062F1E700265F46204694
:10042000E16888472028054607DB312D05D2781979
:1004300010F8200C08B10643F1E7B00701D526F00B
:100440000406C4F81CA00027C4F818A02A2D09D05F
:10045000284602F067F838B304EB8708303DC8F847
:10046000185019E059F8041B204604EB87029161EB
:10047000E1688847012F054618D1E069002820DA95
:1004800026F020061DE0D8F8180000EB800005EBF0
:1004900040003038C8F818002046E1688847054613
:1004A00002F040F80028EED1012F0AD02E2D08D1FD
:1004B0002046E16888477F1C0546022F46F020064B
:1004C000C4DBA069002803DA404246F00106A061BF
:1004D000F00701D026F010066C2D0BD0682D09D046
:1004E0004C2D39D06A2D35D0742D35D07A2D33D09E
:1004F00016E038E0E1682F4620468847B8420546B6
:1005000009D16C2F26D04FF48060E1680643204665
:100510008847054604E06C2F1AD04FF480700643DC
:100520000DB3A5F14100192802D8203546F4006624
:100530004A462946204626604E46FFF761FE80B1B6
:1005400001280BD0F61D26F0070000F1080956E738
:100550004020E4E78020D8E70020D6E706F1040930
:100560004DE7284652E7206A00F002B8AC3200009E
:1005700030BCBDE8C09F10B5203AC0F00B80B1E898
:100580001850203AA0E81850B1E81850A0E81850C8
:10059000BFF4F5AF5FEA027C24BFB1E81850A0E8D1
:1005A000185044BF18C918C0BDE810405FEA827CEB
:1005B00024BF51F8043B40F8043B08BF7047D20702
:1005C00028BF31F8023B48BF11F8012B28BF20F8A3
:1005D000023B48BF00F8012B70474FF0000200B506
:1005E000134694469646203922BFA0E80C50A0E856
:1005F0000C50B1F12001BFF4F7AF090728BFA0E804
:100600000C5048BF0CC05DF804EB890028BF40F8CF
:10061000042B08BF704748BF20F8022B11F0804F11
:1006200018BF00F8012B704770477047704770473C
:100630002DE9F0470D4699469246044600F12408FC
:100640000168880604D5E06921F01001216000E00E
:100650000120A84201DD471B00E00027A1697A19AB
:1006600002EB0900081AA0612078C00602D42046D7
:10067000AFF30080002608E0D4E901211AF8060053
:100680009047206A401C761C20624E45F4DB20789F
:10069000C0060AD52046AFF3008006E0D4E9012168
:1006A00030209047206A401C2062381EA7F10107C5
:1006B000F4DC07E0D4E9012118F805009047206A2E
:1006C000401C2062281EA5F10105F3DC2046AFF393
:1006D00000802078000602D50220BDE8F0870120C6
:1006E000FBE7000001694A1C02610878704700B509
:1006F0008FB0CDE901310021059105497944CDE95B
:10070000031011466846FFF76FFE0FB000BD0000F2
:10071000E5FFFFFF074B70B50D467B44FFF7E7FF92
:100720000446284600F008F810B14FF0FF3070BDC5
:10073000204670BD4B1E0000007B00F0800070471B
:1007400000487047401600207546FFF7F9FFAE4697
:1007500005006946534620F00700854618B020B5CD
:10076000FFF7E6FDBDE820404FF000064FF0000720
:100770004FF000084FF0000B21F00701AC46ACE849
:10078000C009ACE8C009ACE8C009ACE8C0098D46B6
:10079000704710B50446AFF300802046BDE8104016
:1007A000FFF742BDFEE70000014800F081B80000FD
:1007B000F0010020014800F07BB800006801002033
:1007C000014800F075B800002001002070470120AA
:1007D00000F0E0B8064810B5B0F87C0080B200F038
:1007E000D9F8034803498030808880B2086010BD82
:1007F000903500081404014010B5054CA08980B262
:1008000000F0C8F8A08A034980B2086010BD00005B
:10081000103600081404014010B590F8251000228D
:10082000022905D00421C16380F82420012010BDD5
:1008300001680B6823F00E030B6001680B6823F05E
:1008400001030B6090F84410046C01F01C030121BB
:1008500001FA03F3636080F8251080F82420104625
:1008600010BD10B590F825100024022903D00421F2
:10087000C16301241AE001680A6822F00E020A60CE
:1008800001680A6822F001020A6090F84410036CC3
:1008900001F01C02012101FA02F25A6080F82510D1
:1008A000002180F82410816B01B18847204610BDDB
:1008B000F0B4016C0C6801680D6890F8442002F0F7
:1008C0001C06042202FA06F3234211D06B070FD54F
:1008D0000B689B0603D40B6823F004030B6090F8AD
:1008E000441001F01C018A40016C4A60016B1DE05C
:1008F000022303FA06F727424FF0000C4FF00102E3
:1009000018D0AF0716D50C68A40605D40C6824F0DF
:100910000A040C6080F8252090F8441001F01C01B6
:100920008B40016C4B6080F824C0C16A00291AD04A
:10093000F0BC08470823B340234214D02B0712D53C
:100940000B6823F00E030B6090F84410036C01F069
:100950001C0102FA01F15960C26380F8252080F879
:1009600024C0416BE2E7F0BC7047000070B504465C
:1009700000F014F90546601C02D0044800780444D5
:1009800000F00CF9401BA042FAD370BD60000020BB
:1009900070470000044910B50A68024202D008609E
:1009A000FFF7F6FF10BD0000140401402DE9F04FE1
:1009B000DFF8AC9100230325A9F1040B85B04FF0BB
:1009C000010C0F2709F1040AABF1040EBFE000BFD0
:1009D0000CFA03F6324075D00C7904F00304012CB4
:1009E00001D0022C1BD1846800945C0005FA04F845
:1009F0000494009C24EA08040094D1F80C80049C20
:100A000008FA04F8009C48EA0408C0F80880446822
:100A1000B4430E79C6F300169E40264346600C7917
:100A2000E443A4070AD0C4684FEA430805FA08F66D
:100A3000B4438E6806FA08F62643C6600C7904F0C3
:100A40000304022C10D1DC0800EB84040294246A15
:100A50005E074FEAD66807FA08F6B4430E6906FA4D
:100A600008F62643029C266204684FEA430805FA0A
:100A700008F6B4430E7906F0030606FA08F6264394
:100A800006604C6814F4403F60D0364C266E46F049
:100A900001062666246E23F0030604F00104009488
:100AA000314C34440294A4689E074FEA167807FA42
:100AB00008F6B443B0F1904F05D02C4EB04204D1AB
:100AC000012612E042E000260FE0294EB04201D19B
:100AD00002260AE0274EB04201D1032605E0264E49
:100AE000B04201D1042600E0072606FA08F62643A4
:100AF000029CA660D9F800604C46D1F80480964369
:100B00005FEAC82800D516432660DAF8004056464A
:100B1000D1F8048094435FEA882800D514433460F8
:100B2000DBF800405E46D1F8048094435FEA8838E1
:100B300000D514433460DEF800407646D1F80480D6
:100B400094435FEAC83800D5144334605B1C0A68DC
:100B500032FA03F47FF43CAF05B000F00FB80000A8
:100B60000804014000100240000001400004004859
:100B700000080048000C00480010004830BCBDE8E8
:100B8000C08F426921EA02030A4043EA02418161BF
:100B900070470AB18161704781627047014880687F
:100BA000704700006000002002488168027811440C
:100BB000816070476000002010B50024032000F021
:100BC0009FF80F2000F008F808B1012401E000F0C0
:100BD0004FF8204610BD000030B505461F4887B0CD
:100BE000816D41F020018165806D06A900F0200033
:100BF000009001A800F07CF90498B0B100F098F9D9
:100C000040001749174AB0FBF1F11748491E02602E
:100C1000416040F2E7320021C0E903218160816137
:100C200000F039FD040003D015E000F081F9E8E799
:100C30000D4800F0B9FD04000DD1372000F032F866
:100C4000102D07D200222946372000F039F8074836
:100C5000056000E0012407B0204630BD00100240CE
:100C600040420F0000140040D40000206400002027
:100C70000B4882B0016E41F001010166016E01F086
:100C800001010091816D41F080518165806D0022EC
:100C900000F0805000900F21901E02B000F010B8BC
:100CA00000100240002809DB00F01F0201219140E2
:100CB0004009800000F1E020C0F8001170470000FA
:100CC000F0B40E4B1B680C46C3F30223C3F10705B7
:100CD000042D00D90425191D072901D2002300E0A5
:100CE000DB1E012606FA05F1491E214099409E406F
:100CF000761E16403143F0BC01F004BC0CED00E060
:100D0000064900F0070208684FF6FF03184040EA62
:100D10000220034A10430860704700000CED00E019
:100D20000000FA050248006800F4C0607047000047
:100D30000070004010B50D4C2068C00304D500F0D1
:100D400019F84FF480302060084C20342068800669
:100D500003D500F00DF8202020602068400603D560
:100D600000F007F84020206010BD0000140401408E
:100D70007047704704484069000501D503A000E0B2
:100D800006A0FFF7E9BA000000700040E794B5E55F
:100D90008E8BE8BF87E4BD8E2E0D0A00E794B5E583
:100DA0008E8BE6ADA3E5B8B82E0D0A002DE9F0470D
:100DB0000F4605006BD0494E306800F00700B8427E
:100DC00009D2306820F0070038433060306800F006
:100DD0000700B8425BD12878414C80070AD5A86843
:100DE000A16801F0F001884204D9A16821F0F00166
:100DF0000143A1602878C0072CD06868032811D06F
:100E0000022812D0216898B1490500293FDAA1686B
:100E100021F003010143A160FFF7C0FE804641F2CB
:100E2000883910E021688901EFE721688903ECE740
:100E30008907EAE7FFF7B2FEA0EB0801494502D9AE
:100E40000320BDE8F087A068696800F00C00B0EBF3
:100E5000810FEFD1287880070AD5A868A16801F032
:100E6000F001884204D2A16821F0F0010143A160A1
:100E7000306800F00700B8420BD9306820F0070056
:100E800038433060306800F00700B84201D00120DC
:100E9000D7E72878400705D5A068E96820F4E06026
:100EA0000843A0602878000706D5A068296920F4C7
:100EB000605040EAC100A06000F04CF8A168094A07
:100EC000C1F30311515C01F01F01C84006490860DD
:100ED00006480068BDE8F047FFF77EBE00200240EC
:100EE00000100240283600080000002064000020A6
:100EF0000F2202600C4A936803F003034360936877
:100F000003F0F0038360936803F4E063C3609268C6
:100F10004FF4E06303EAD20202610448006800F083
:100F200007000860704700000010024000200240E7
:100F30000548064900688968054AC1F30221515CE9
:100F400001F01F01C840704700000020001002405F
:100F50006836000870B52549002318468A68CC68B1
:100F600012F00C0204F00306214C4FEA640509D08C
:100F70000C2A05D0042A32D0082A00D1284670BD98
:100F8000012E10D10B681B0704D4D1F89430C3F3A1
:100F9000032302E00B68C3F30313164E56F8233005
:100FA000DAB10C2AEBD1C86800F00300022818D08F
:100FB000032818D01846CA68CB68C2F30212C3F3DC
:100FC00006234343521CB3FBF2F2C868C0F34160EE
:100FD000401C4000B2FBF0F070BD184670BD2046CA
:100FE00070BD2046E7E72846E5E700000010024014
:100FF0000024F400383600082DE9F84304006FD0CF
:10100000FA4DA86800F00C06E86800F003072078A5
:10101000C00664D576B10C2E01D1012F0AD0A0698B
:10102000002828687AD040F001002860FFF7B6FD5C
:1010300080465DE02868800702D5A0690028DED0E0
:10104000216A2868000703D5286800F0F00004E052
:10105000D5F89400F02202EA1010814216D9084611
:1010600000F0F4FF00283BD1286840F00800286019
:101070002868216A20F0F000084328606868E16968
:1010800020F47F4040EA0120686016E0286840F0C4
:10109000080028602868216A20F0F00008432860D2
:1010A0006868E16920F47F4040EA0120686026B961
:1010B000206A00F0CBFF0028D5D1FFF74BFFA968CD
:1010C000CB4AC1F30311515C01F01F01C840C9496B
:1010D0000860C9480068FFF77FFD00287ED12EE038
:1010E000CAE000BFFFF75AFDA0EB0800022876D83F
:1010F00028688007F6D5286840F00800286028682E
:10110000216A20F0F000084328606868E16920F453
:101110007F4040EA0120686011E0FFE720F0010015
:101120002860FFF73BFD804606E000BFFFF736FD75
:10113000A0EB08000228DAD828688007F6D42078C7
:10114000C00740D0082E18D00C2E01D1032F14D088
:101150006068B0F5803F17D0B0F5A02F286817D091
:1011600020F480302860286820F48020286060689F
:10117000E0B1FFF713FD804614E02868800322D514
:101180006068002878D01EE0286840F48030EDE7E1
:1011900040F480202860F7E7FFF700FDA0EB08008F
:1011A0006428A4D828688003F6D50CE0FFF7F6FC85
:1011B000804605E0FFF7F2FCA0EB0800642896D813
:1011C00028688003F6D4207880073BD5042E11D000
:1011D0000C2E01D1022F0DD0E06801E0AAE1FFE062
:1011E000002828681ED040F480702860FFF7D6FCE5
:1011F00007460CE0286840050CD5E0680028C1D0FF
:1012000008E000BFFFF7CAFCC01B022893D828687B
:101210004005F7D56868217C20F0F85040EA01606D
:1012200068600FE020F480702860FFF7B7FC074685
:1012300005E000BFFFF7B2FCC01B0228B1D8286848
:101240004005F7D42078000729D560690028D5F833
:10125000940012D040F00100C5F89400FFF79EFC06
:10126000074604E0FFF79AFCC01B022899D8D5F87E
:1012700094008007F6D512E02BE120F00100C5F8BC
:101280009400FFF78BFC074605E000BFFFF786FCE4
:10129000C01B022885D8D5F894008007F6D42078A2
:1012A000400766D5A86D0027C00008D4A86D40F09F
:1012B0008050A865A86D012700F0805000904F482D
:1012C0000168C90512D40168814641F4807101604A
:1012D000FFF764FC804605E0FFF760FCA0EB080028
:1012E00002287DD8D9F80000C005F5D5A0680128EE
:1012F00016D00528D5F8900017D020F00100C5F8C9
:101300009000D5F8900020F0040000BFC5F89000D0
:10131000A06841F28839C0B1FFF740FC80460FE079
:10132000D5F8900040F00100F0E740F00400C5F867
:101330009000F5E7FFF732FCA0EB080149454FD8D4
:10134000D5F890008007F5D50EE0FFF727FC804622
:1013500006E000BFFFF722FCA0EB080149453FD89B
:10136000D5F890008007F5D41FB1A86D20F080500B
:10137000A8652078800628D5606A0028D5F89800EE
:1013800012D040F00100C5F89800FFF707FC0746AF
:1013900005E000BFFFF702FCC01B022820D8D5F8EB
:1013A00098008007F6D510E020F00100C5F89800FD
:1013B000FFF7F4FB074604E0FFF7F0FBC01B022831
:1013C0000ED8D5F898008007F6D4A06AF0B30228AA
:1013D00016D00C2E7DD0286820F08070286000E0A8
:1013E000A7E0FFF7DBFB0446A6E000000010024088
:1013F0002836000800000020640000200070004033
:10140000E868E26A00F00301914228D1216B00F004
:10141000700209011039914221D1626B00F4FE4142
:10142000B1EB022F1BD194F8382000F07841B1EBDA
:10143000C26F14D1A18F00F4C00249084905A1F57B
:10144000001191420BD194F8401000E06AE0490885
:10145000490600F0C060A1F1007181424BD00C2E12
:1014600073D02868400170D4286820F0807028600C
:10147000FFF794FB064604E0FFF790FB801B022871
:1014800057D828688001F7D4F4E90B016FF00F02F8
:1014900002EB01110843218A5204490802EB415131
:1014A000A26841EA02210843217D4FF07E424908AB
:1014B00002EB41610843217B40EAC160E968244AAC
:1014C00011400843E860286840F080702860E868B0
:1014D00000E03AE040F08070E860FFF75FFB044610
:1014E00005E000BFFFF75AFB001B022821D828683F
:1014F0008001F7D527E02868800124D4286840F0CF
:1015000080702860E86840F08070E860FFF746FB74
:10151000044604E0FFF742FB001B022809D82868B4
:101520008001F7D50FE000BFFFF738FB001B022852
:1015300002D90320BDE8F88328688001F4D4E86864
:1015400004490840E8600020F4E70120F2E70000C9
:101550008C809D01FCFFEEFE704700000EB501F08F
:1015600077FC06480178837842788DE80E00C379CD
:101570008279818802A0FEF7EFFE0EBD5C0200209A
:10158000416C61726D2054696D653A25642D256446
:101590002D25642025643A25643A25640A0000005C
:1015A00010B5144904464FF4802008602068816813
:1015B000C9040BD5C168C90508D5C16801F080010F
:1015C00061F4C071C1602046FFF7C8FF20688168E0
:1015D00089040BD5C168890508D5C16801F080016F
:1015E00061F42071C1602046FFF7B6FF012084F846
:1015F000210010BD1404014010B500680B4641687D
:101600000D480140080CD870C1F304245C7001F04F
:101610003F049C70C1F34231197052B900F05AFD79
:10162000D870587800F056FD5870987800F052FD48
:101630009870002010BD00003FFFFF0010B50B4662
:101640000168896A596001680969C1F30E019960EE
:10165000006801680D480140C1F305401870C1F3EE
:1016600006245C7001F07F049C70890DD97052B91A
:1016700000F030FD1870587800F02CFD5870987804
:1016800000F028FD9870002010BD00007F7F7F00D3
:1016900070477047704710B5040003D094F83D00C0
:1016A00010B107E0012010BD002084F83C00204666
:1016B00000F022F8022084F83D00211D206800F08F
:1016C000B3FD012084F8480084F83E0084F83F0010
:1016D00084F8400084F8410084F8420084F8430014
:1016E00084F8440084F8450084F8460084F84700F4
:1016F00084F83D00002010BD08B5274A016827483E
:1017000091420ED1816D41F010018165806D0322FF
:1017100000F01000009011463620FFF7D1FA362075
:1017200025E01F4A91420ED1816D41F02001816573
:10173000806D032200F02000009011463720FFF753
:10174000BFFA372013E0B1F1804F14D0154A91420F
:1017500020D1016E41F400610166006E032200F4A5
:101760000060009002211920FFF7AAFA1920BDE8B5
:101770000840FFF797BA816D41F001018165806DE6
:10178000032200F00100009011461C20FFF798FA98
:101790001C20ECE708BD00000010004000100240D3
:1017A00000140040002C014090F83D10012901D0A8
:1017B00001207047022180F83D100168CA6842F09C
:1017C0000102CA6000680B49884205D0B0F1804F21
:1017D00002D00949884207D18168084A1140062988
:1017E00006D0B1F5803F03D0016841F001010160EE
:1017F00000207047002C014000400140070001001C
:1018000090F83C20012A0CD0012200F83C2F022342
:10181000437050F83C3C5961427000210170084609
:10182000704702207047000070B5044600682449E4
:10183000884243D10069C04380073DD5002121483B
:1018400000F050F9204A83B21078010634D41D49C3
:101850004506A1F16C010CD540F08000107053805A
:10186000C86E026A22F00A020262C86E016A016250
:1018700022E00020508040231370CA6E136A41F2A8
:1018800011152B4207D1136AAD102B4203D11368F7
:1018900023F001031360CA6E5062C86E026A22F020
:1018A0000A020262C86E026A42F002020262C86E56
:1018B000016841F0010101602068006970BD00000D
:1018C000002C0140D40200200400002070B5044622
:1018D000006801694FF00005C943890715D4C16844
:1018E000C943890711D4E91E0161012020772068CE
:1018F00080698007204602D0FFF796FF04E000F0E1
:10190000A7F8204600F0A5F8257720680169C943AB
:10191000490717D4C168C943490713D46FF00401BC
:101920000161022020772068806910F4407F204602
:1019300002D0FFF779FF04E000F08AF8204600F0BB
:1019400088F8257720680169C943090716D4C1685A
:10195000C943090712D46FF0080101610420207700
:101960002068C0698007204602D0FFF75DFF04E0D1
:1019700000F06EF8204600F06CF8257720680169C9
:10198000C943C90617D4C168C943C90613D46FF047
:1019900010010161082020772068C06910F4407FA1
:1019A000204602D0FFF740FF04E000F051F8204647
:1019B00000F04FF8257720680169C943C90708D1AD
:1019C000C168C943C90704D1891E0161204600F0DE
:1019D00041F820680169C943090609D4C168C943AF
:1019E000090605D46FF0800101612046FFF751FE22
:1019F00020680169C943C90509D4C168C9430906FA
:101A000005D46FF4807101612046FFF741FE206824
:101A10000169C943490609D4C168C943490605D4C7
:101A20006FF040010161204600F071F82068016903
:101A3000C94389060BD4C168C943890607D46FF02E
:101A4000200101612046BDE87040FFF723BE70BD54
:101A50007047704770B5054600681C4988420AD136
:101A60001B490A78100606D4500604D5D0438006D8
:101A700007D0521C0A702868164CB0F1804F10D065
:101A800013E01548C36E1C6A24F00A041C62C06E81
:101A9000036A036242F0800008704FF6FF704880CE
:101AA000E9E7A1882068FFF76CF80C4928688842AC
:101AB00003D1A1882068FFF764F8094928688842A3
:101AC00003D1BDE87040FFF76FB870BD002C014036
:101AD0000400002088350008680200200010004043
:101AE000001400400246002041B1042909D0082911
:101AF0000AD00C2901D11068006C70471068406B47
:101B000070471068806B70471068C06B70477047F3
:101B10007047704700680549884206D10F2101626D
:101B200001220349034800F051B9704700440040C6
:101B30001A000020000900202DE9F0410268044647
:101B4000D0691168936840F60F0528424FF00005F0
:101B500005D186067ED58E067CD5616E1BE1994F38
:101B600003F001060F40374374D0C70709D0CF05F3
:101B700007D501271762D4F8802042F00102C4F88B
:101B8000802082070AD5DA0708D0276802223A6245
:101B9000D4F8802042F00402C4F8802042070AD51D
:101BA000DA0708D0236804221A62D4F8802042F0B1
:101BB0000202C4F8802002070CD501F02002324353
:101BC00008D0236808221A62D4F8802042F0080264
:101BD000C4F8802002050BD54A0109D523684FF4CB
:101BE00000621A62D4F8802042F02002C4F88020FB
:101BF000D4F88020002A35D0800605D5880603D584
:101C0000616E09B120468847D4F880002168896850
:101C1000490602D410F0280F26D0204600F044FBDD
:101C20002068806840061AD52068083050E8001FF8
:101C300021F0400140E80012002AF5D1206F70B178
:101C400061498163206FFEF70CFE00280AD0206FE7
:101C5000816B01E00EE02046BDE8F04108472046D8
:101C6000FFF758FFBDE8F0812046FFF753FFC4F8A7
:101C70008050F7E7276E2026012F7BD1C70679D544
:101C8000CF0677D51020106220688068400641D5C5
:101C9000216F086840680004000CE3D0B4F85820B5
:101CA0008242DFD9A4F85A000868006880062AD466
:101CB000206850E8001F21F4807140E80012002ADB
:101CC000F6D12068083050E8001F21F0010140E8FB
:101CD0000012002AF5D12068083050E8001F21F0DA
:101CE000400140E80012002AF5D1E6672566216828
:101CF00051E8000F20F0100041E80002002AF6D160
:101D0000206FFEF789FDB4F85800B4F85A10401A55
:101D100081B22AE0B4F85800B4F85A10401A81B2DF
:101D2000B4F85A0000289DD000299BD0226852E8C0
:101D3000000F20F4907042E80003002BF6D12068D9
:101D4000083050E8002F22F0010240E80023002B69
:101D5000F5D1E66725666566226852E8000F20F037
:101D6000100042E80003002BF6D12046FFF7D0FE1A
:101D700078E7FFE7C70209D55B0207D54FF480106B
:101D800010622046BDE8F041FFF7C3BE020606D54B
:101D90000A0604D5A16E00297FF45DAF62E7400614
:101DA000E6D54806E4D52046026852E8001F21F037
:101DB000400142E80013002BF6D18667856600F0EB
:101DC00057F84FE7200100049522000830B4C36F94
:101DD000202B20D1E1B1DAB190F87430012B1AD068
:101DE000012380F87430002303660C4C0368A3427F
:101DF0000BD05B681B0208D5046854E8003F43F031
:101E0000806344E80035002DF6D130BC00F010BBF3
:101E1000012030BC70470220FBE70000008000403A
:101E200000680F49884219D10E48B0F80411FF2903
:101E30000FD80D49B0F8002109788154B0F800118D
:101E4000491CC9B2A0F80011B0F80411491CA0F84F
:101E50000411012204490548FFF7B8BF704700008C
:101E600000440040F807002019000020000900206D
:101E700070470000014800F012B8000084090020FB
:101E800010B501684A68D243920507D48A68D243E4
:101E9000D20703D1921E8A60FFF7ECFF10BDC16824
:101EA0000068016000207047FEE7000000B587B0C1
:101EB00014216846FEF791FB2748C16C41F00101EF
:101EC000C164C16C01F001010591C16C41F00201D6
:101ED000C164C16C01F002010591C16C41F00401C3
:101EE000C164C06C00F00400059001200190022044
:101EF0000290039019488188009100686946FEF7B6
:101F000055FD164808308188009100686946FEF743
:101F10004DFD124810308188009100686946FEF737
:101F200045FD0E4818308188009100686946FEF72B
:101F30003DFD0A4820308188009100686946FEF71F
:101F400035FD064828308188009100686946FEF713
:101F50002DFD07B000BD0000001002403000002041
:101F600070B50A4C05462168A0888862A4F1080073
:101F7000818800688161280A00F0B6F8E8B200F0B4
:101F8000B3F82168A088886170BD0000500000206F
:101F900010B58EB01C220B496846FEF7ECFA002102
:101FA000684600F003FD084C06491C2220601C31E5
:101FB00007A8FEF7E0FA002107A800F0F7FC606030
:101FC0000EB010BD703600081000002030B587B08C
:101FD00014216846FEF701FB1848C16C41F004016A
:101FE000C164C16C01F004010591C16C41F0800134
:101FF000C164C16C01F080010591C16C41F0010127
:10200000C164C06C012200F001000D4D5403059025
:1020100021462846FEF7BDFD01210220CDE9021030
:10202000CDE9004169462846FEF7C0FC0122214661
:102030002846FEF7AEFD07B030BD0000001002409C
:1020400000080048FEE7FEE7FEF774BEF8B51C4D39
:1020500006460024A86DC00002D5FEF763FE0DE021
:10206000A86D40F08050A865A86D00F080500090E9
:10207000FEF758FEA96D21F08051A965B0F5007FEB
:1020800004D0802E07D94FF003040AE0802E08D92F
:10209000A02E01D804E001D1022402E0702E00D16C
:1020A00001240848016821F007012143016000680C
:1020B00000F00700A04201D00120F8BD0020F8BDCB
:1020C00000100240002002400148FFF769BA0000FA
:1020D00038020020010901EB810100F00F0000EB44
:1020E0004100C0B27047000070B50A4A08219488C8
:1020F0001568083A13689288060601D5AC6100E0BD
:10210000AC629A629A614006000E491E11F0FF010E
:10211000F2D170BD3800002000F068FA4FF6E07090
:1021200000F02EFA012000F035FCFBE7064D4FF4DD
:1021300000544FF4FA7621462846FEF722FD304639
:1021400000F0F8F9F7E700000008004810B550204B
:1021500080F31188BFF34F8FBFF36F8F01F046F903
:1021600018B104494FF080500860002080F31188B6
:1021700010BD000004ED00E00248016841F4700168
:102180000160704788ED00E00148FFF79FBB000049
:10219000D402002010B5184CE06E0069C043C0079F
:1021A00029D116488168FF2905D9A1F58071816080
:1021B0004FF4807108E011F0FF0F12D04FF00002D1
:1021C00011F0FF0182600CD00D48491E01600A48E1
:1021D00001216C30FFF714FBE06E016841F0010152
:1021E00004E007483038016821F001010160E16E28
:1021F0006FF00100086110BD68020020040000209B
:10220000302C01400148FFF761BB00003003002083
:102210000148FFF75BBB00008C0300200148FFF77B
:1022200055BB0000D400002070B50268164B4FF07B
:102230008046984201D0B04203D122F070044A682F
:102240002243124C124D984205D0B04203D0A04216
:1022500001D0A84203D122F44076CA6832434E69C5
:1022600022F08002324302608A68C2620A68826297
:10227000984203D0A04201D0A84201D1096901636C
:102280000121416170BD0000002C0140004001406F
:102290000044014010B5806A0021A0F85A10A0F84F
:1022A0005210FFF737FC10BD016851E8002F22F4EF
:1022B000907241E80023002BF6D10168083151E803
:1022C000002F22F0010241E80023002BF5D1016E1E
:1022D000012908D1026852E8001F21F0100142E8EC
:1022E0000013002BF6D12021C16700210166416651
:1022F000704710B5B0F85C20C36F0168222B04D082
:10230000088B40F00800088310BD898C436D114094
:102310001980416D891C4165B0F85A10491EA0F81A
:102320005A10B0F85A100029EED1026852E8001F86
:1023300021F4907142E80013002BF6D101680831B6
:1023400051E8002F22F0010241E80023002BF5D1D3
:102350002021C16700214166026E012A02D0FFF7E9
:102360005FFD10BD0166026852E8001F21F01001F8
:1023700042E80013002BF6D10168CA69D243D206A5
:1023800001D410220A62B0F85810FFF7C1FB10BD4B
:1023900010B5B0F85C20C36F0168222B04D0088B05
:1023A00040F00800088310BD898C1140426D117007
:1023B000416D491C4165B0F85A10491EA0F85A10E9
:1023C000B0F85A100029EED1026852E8001F21F43B
:1023D000907142E80013002BF6D10168083151E8F2
:1023E000002F22F0010241E80023002BF5D120212B
:1023F000C16700214166026E012A02D0FFF710FD7D
:1024000010BD0166026852E8001F21F0100142E889
:102410000013002BF6D10168CA69D243D20601D459
:1024200010220A62B0F85810FFF772FB10BD0000CE
:1024300030B54165A0F85820A0F85A200022426625
:1024400081684FF48055FF23A94204D1016971BB13
:1024500040F2FF1131E07F2439B3B1F1805F29D020
:10246000A0F85C20C0F880202221C16701680831F3
:1024700051E8003F43F0010341E80034002CF5D15E
:102480008168A94201D10169E9B11549416680F825
:1024900074200169C9B1026852E8001F41F49071CB
:1024A00042E80013002BF6D118E0016941B9A0F809
:1024B0005C30D7E7016919B13F21A0F85C10D1E782
:1024C000A0F85C40CEE70749E0E7026852E8001F49
:1024D00041F0200142E80013002BF6D1002030BD6E
:1024E00091230008F32200080148FFF725BB0000F4
:1024F00000090020FEE700000148FFF7C1BC000012
:10250000840900200907090E002804DB00F1E020FF
:1025100080F80014704700F00F0000F1E02080F810
:10252000141D704730380A2801D20120704700205E
:102530007047704770B5044600F04AFF022809D082
:10254000FEF72CFB4FEA0005FEF728FB401BA042DC
:10255000FAD370BD4FF47A704443B4FBF0F0BDE899
:10256000704000F0CDBD000004490A681206FCD599
:10257000024AC1B20C321180704700001C44004076
:102580002DE9F041104C07460021A088401E83B27F
:102590006088401E82B2084600F092F92C2000F0BC
:1025A000BDF900260BE0002504E03846FFF7D8FC13
:1025B0006D1CEDB2A0888542F7D3761CF6B2608818
:1025C0008642F0D3BDE8F081200000200649802239
:1025D000A023087020B14B808A80032000F032B91C
:1025E0004A808B80F9E700002000002010B5FFF73B
:1025F0005DFC934C2168A08888626420FFF79AFFF5
:102600002168A08888613220FFF794FF112000F034
:1026100085F97820FEF7AAF9B12000F07FF90120B2
:1026200000F08EF92C2000F08BF92D2000F088F9B5
:10263000B22000F073F9012000F082F92C2000F0A4
:102640007FF92D2000F07CF9B32000F067F901201C
:1026500000F076F92C2000F073F92D2000F070F9CD
:10266000012000F06DF92C2000F06AF92D2000F017
:1026700067F9B42000F052F9072000F061F9C0209A
:1026800000F04CF9A22000F05BF9022000F058F9AC
:10269000842000F055F9C12000F040F9C52000F079
:1026A0004FF9C22000F03AF90A2000F049F9002061
:1026B00000F046F9C32000F031F98A2000F040F91B
:1026C0002A2000F03DF9C42000F028F98A2000F00B
:1026D00037F9EE2000F034F9C52000F01FF90E2084
:1026E00000F02EF9362000F019F9C02000F028F98A
:1026F000E02000F013F90F2000F022F91A2000F07A
:102700001FF90F2000F01CF9182000F019F92F20F4
:1027100000F016F9282000F013F9202000F010F93D
:10272000222000F00DF91F2000F00AF91B2000F014
:1027300007F9232000F004F9372000F001F9002008
:1027400000F0FEF8072000F0FBF8022000F0F8F897
:10275000102000F0F5F8E12000F0E0F80F2000F084
:10276000EFF81B2000F0ECF80F2000F0E9F817203C
:1027700000F0E6F8332000F0E3F82C2000F0E0F859
:10278000292000F0DDF82E2000F0DAF8302000F0EB
:10279000D7F8302000F0D4F8392000F0D1F83F20ED
:1027A00000F0CEF8002000F0CBF8072000F0C8F8C9
:1027B000032000F0C5F8102000F0C2F82A2000F035
:1027C000ADF8002000F0BCF8002000F0B9F80020BF
:1027D00000F0B6F87F2000F0B3F82B2000F09EF850
:1027E000002000F0ADF8002000F0AAF8002000F072
:1027F000A7F89F2000F0A4F8F02000F08FF8012047
:1028000000F09EF8F62000F089F8002000F098F81B
:102810003A2000F083F8052000F092F8292000F01B
:102820007DF80120FFF7D2FEA4F12000808980B25C
:10283000FFF7A6FE04F1180081880068816110BDD1
:102840004000002070B50024082812D2DFE800F014
:10285000110406080A0C0E1080240AE0402408E047
:10286000C02406E0202404E0602402E0A02400E06C
:10287000E024124D2968A8888862362000F04EF8BE
:10288000204600F05DF8A5F13000A106418882885D
:1028900002D5914202D303E0914201D94280818066
:1028A00081884088491E8BB2401E82B200210846B2
:1028B00000F006F82968A888886170BD50000020E3
:1028C0002DE9F04107461C4615460E462A2000F029
:1028D00025F8002000F034F8BF1CF8B200F030F802
:1028E000002000F02DF8AD1CE8B200F029F82B20F4
:1028F00000F014F8002000F023F8761CF0B200F08D
:102900001FF8002000F01CF8A41CE0B200F018F83A
:10291000BDE8F0412C2000F001B8000010B5074CD4
:102920002268A1889162A4F108018A8809688A62F4
:10293000FFF7DAFB2168A088886110BD50000020F5
:1029400010B5074C2268A1889162A4F108018A8819
:1029500009688A61FFF7C8FB2168A088886110BDFB
:1029600050000020FEF728F9142000F0BFFAFFF70E
:102970002DFBFFF73BFE4FF6E070FFF701FEFFF780
:1029800007FB00F00EF8FEE701460020842900D086
:10299000C81C704710B500B9012000F0B1FB002041
:1029A00010BD10B500F0D2FB002010BD7FB50D4664
:1029B00004464169B0F9080081B1A16971B1FFF71E
:1029C000E3FFD4E905128DE80700D4E900102B4697
:1029D000226900F0D1FC039004B070BDFFF7D4FF72
:1029E00003A9CDE90001208A2B4682B2D4E9001068
:1029F00000F092FC012801D00020EDE70398EBE7FE
:102A00002DE9F041184C0F460546E6682068001D88
:102A100000F0AEFA38B9206890F82C1001208840F8
:102A2000216981432161681C07D137B12168BDE864
:102A3000F0410E48091D00F0DFBA20683544B54268
:102A40004560216805D2A06BBDE8F041091D00F08A
:102A5000BBBA606B091D00F0B7FAA06A854200D2CC
:102A6000A562BDE8F08100006C000020740A00201F
:102A70002DE9F041054600F0CBFA2E4CA068401C31
:102A8000A06020682C4F10B1606940B32DE0256034
:102A9000A068012829D1002606EB860007EB8000FC
:102AA00000F084FA761C072EF6D323488C3000F011
:102AB0007DFA2148A03000F079FA1F48B43000F0C8
:102AC00075FA1D48C83000F071FA1B48DC3000F080
:102AD0006DFA19488C3060631430A06305E02068FB
:102AE000E96AC06A884200D82560606A401C60625A
:102AF000E96A0120226988401043206101EB8100CE
:102B000007EB8000291D00F077FA00F0A1FA606958
:102B100000280CD02068E96AC06A884207D20749B9
:102B20004FF080500860BFF34F8FBFF36F8FBDE849
:102B3000F08100006C0000209809002004ED00E006
:102B400010B5044690F8510058B101280CD0022865
:102B50000FD0502080F31188BFF34F8FBFF36F8FDA
:102B6000FEE7206B00F088FA2046BDE8104000F038
:102B700083BA10BD0F4840F6B831420705D0C01DDA
:102B80000C4A20F00700821A891A0B4A00230144DC
:102B9000C2E900030839183A21F0070111604B60BF
:102BA0000B600B1AC0E9001393604FF000405360B4
:102BB00050617047880A0020C0000020144E154C58
:102BC000A6F1C8074FF08058DFF84C9012E000BF24
:102BD00000F01EFAF068C568281D00F0C9F9A06869
:102BE000401EA0606068401E606000F031FA284618
:102BF000FFF7A6FF60680028EAD138680128F9D9F4
:102C0000C9F80080BFF34F8FBFF36F8FF2E700006A
:102C1000600A00206C00002004ED00E02DE9F04780
:102C20009A46DDE9098481466FF00303206B03EBCC
:102C300082021044089E20F00707780707D0502032
:102C400080F31188BFF34F8FBFF36F8FFEE700252E
:102C500061B1002023180A5C83F834200A5C12B1A9
:102C6000401C1028F6D384F8435001E084F8345017
:102C7000072E00D30626E662C4E91165201D00F088
:102C8000A0F904F1180000F09CF92461C6F10700D6
:102C90006462A061E56484F8505052464946384663
:102CA00000F0C0F82060B8F1000F01D0C8F8004073
:102CB000BDE8F08730B5114900E011460A6882424C
:102CC000FBD34B685C18844203D1406818444860C9
:102CD000084643681C18944209D1084C183C2468E3
:102CE000A24209D052681A4442600A68126802601F
:102CF000814200D0086030BD0460F9E7C0000020C8
:102D00000648416B096829B1416BC968C9684968BF
:102D1000816270474FF0FF31FAE700006C0000203D
:102D200008484068401C4FF0500080F3118804D0E0
:102D3000BFF34F8FBFF36F8FFEE7BFF34F8FBFF32C
:102D40006F8FFEE7C80000202DE9F04105460027FF
:102D500000F032FA324E306808B9FFF70BFF7069A5
:102D600005424ED1C5B3083568070ED005F00700FF
:102D7000C0F108000544680707D0502080F311888F
:102D8000BFF34F8FBFF36F8FFEE72DB3706885429F
:102D900037D82348183001460C6801E020460C461D
:102DA0006168A94202D221680029F7D131688C42BA
:102DB00027D007682168016060680837411B102927
:102DC0000FD96019420708D0502080F31188BFF353
:102DD0004F8FBFF36F8FFEE713E041606560FFF731
:102DE00069FF61687068401A7060B268904200D2F2
:102DF000B060706901430020C4E90001F068401C24
:102E0000F06000F059FB780707D0502080F311885C
:102E1000BFF34F8FBFF36F8FFEE73846BDE8F081F9
:102E2000A800002010B5031F4FF080741C601B1F0A
:102E300021F001011960191F044B0B6014390A605D
:102E4000091F6FF0020244380A6010BD212D0008EE
:102E500000B587B0002269461548FEF7EFFB08B1C0
:102E600014A006E0002205A91148FEF7C5FB20B119
:102E700017A0FDF771FA07B000BD0D489DF81710B7
:102E8000243001F5FA6181809DF8151081719DF85B
:102E90001610C1719DF8141001729DF80010017098
:102EA0009DF8011041709DF802108170E3E7000069
:102EB000380200204661696C656420746F20676584
:102EC00074205254432074696D65210A000000008B
:102ED0004661696C656420746F2067657420525484
:102EE000432064617465210A0000000030B597B08A
:102EF000044644216846FDF770FB142111A8FDF734
:102F00006CFB01210804CDE9001002200325CDE966
:102F10000A05CDE90C140721CDE90E101090684682
:102F2000FEF76AF800B1FEE70F20CDE91105002099
:102F30004FF48061CDE913011590102C01D90421C3
:102F400004E00E2C01D9032100E0022111A8FDF7B5
:102F50002DFF00B1FEE70548016E41F00101016659
:102F6000006E00F00100169017B030BD0010024056
:102F7000D0E9013201699A60D0E901235A604A68B8
:102F8000824201D182684A60002202610868401EC4
:102F90000860086870470000034B036003F15400A9
:102FA0000860802010607047A405002000F108012F
:102FB0004FF0FF32C0E90112C160016100210160E0
:102FC000704700210161704730B50B685A1C02D070
:102FD00000F1080202E0026904E022465468256814
:102FE0009D42FAD953684B6099608A6051600861CC
:102FF0000168491C016030BD42684A6093688B607B
:1030000093685960916008610168491C01607047CC
:10301000502080F31188BFF34F8FBFF36F8F0A49A1
:103020004868401C486001280CD10848006810F02E
:10303000FF0F07D0502080F31188BFF34F8FBFF3ED
:103040006F8FFEE770470000C800002004ED00E02D
:103050000849486828B1401E486001D180F31188B2
:103060007047502080F31188BFF34F8FBFF36F8FED
:10307000FEE70000C800002070B500282AD0164DD9
:10308000A0F1080460686969084207D1502080F304
:103090001188BFF34F8FBFF36F8FFEE722683AB1FD
:1030A000502080F31188BFF34F8FBFF36F8FFEE77F
:1030B0008843606000F080F8606869680844686070
:1030C0002046FFF7F7FD2869401C2861BDE87040E5
:1030D00000F0F2B970BD0000A80000204FF0E02021
:1030E00000210161816105494FF47A720968B1FBE1
:1030F000F2F1491E41610721016170470000002083
:1031000010B5020014D00F48006B38B1502080F386
:103110001188BFF34F8FBFF36F8FFEE700F04CF8BD
:1031200000211046FFF76CFC00F0C6F9002807D11B
:1031300005494FF080500860BFF34F8FBFF36F8F8A
:1031400010BD00006C00002004ED00E010B586B05A
:103150000024039405AA04A903A80494FFF71CFF04
:10316000DDE903010094CDE9011000230EA1104810
:10317000059A00F001F90F490028C86211D05020CB
:1031800080F31188BFF34F8FBFF36F8F4FF0FF3085
:10319000886201204861CC6006B0BDE8104000F0B4
:1031A00041B806B010BD000049444C450000000085
:1031B000BD2B00086C0000200248016B491C016314
:1031C000704700006C0000201448016B11B1012110
:1031D000C16170470021C1610169B1FA81F1C1F19A
:1031E0001F0101EB81020E4951F822306BB101EB56
:1031F000820101F108034A6852684A609A4201D18B
:1032000052684A60D16801607047502080F311888D
:10321000BFF34F8FBFF36F8FFEE700006C000020FD
:10322000980900201CB537480168374A914207D1F8
:10323000502080F31188BFF34F8FBFF36F8FFEE7ED
:1032400000683149491E884207D1502080F3118817
:10325000BFF34F8FBFF36F8FFEE72C4908780190C3
:10326000FF20087008788DF800009DF800009DF898
:10327000002000F0F000904207D0502080F3118829
:10328000BFF34F8FBFF36F8FFEE79DF80000204C18
:1032900000F0500020700720A06005E09DF800209D
:1032A00052008DF80020401E9DF800201206F5D433
:1032B000A060032807D0502080F31188BFF34F8F00
:1032C000BFF36F8FFEE74FF44070A0600198087065
:1032D0000C482030016841F470010160016841F040
:1032E00070410160FFF7FAFE00206060FCF7C6FF46
:1032F0000848016841F040410160FCF7ABFF002045
:103300001CBD000000ED00E071C20F4100E400E0D0
:10331000C800002034EF00E02DE9FF5F8346DDE9BF
:103320000E87994616468A469000FFF70DFD050068
:103330001CD05420FFF708FD040014D000202563A2
:1033400084F85100CDE90240CDE900874B46324672
:1033500051465846FFF762FC2046FFF789FB0120E3
:1033600004B000F006B82846FFF786FE4FF0FF30A5
:10337000F6E730BCBDE8C09FF0B585B0DDE90B6471
:103380000A9DA6B1DCB1542700972663022684F873
:103390005160002604AFCDE90246CDE90057FFF7A2
:1033A0003DFC2046FFF764FB049805B0F0BD5020BB
:1033B00080F31188BFF34F8FBFF36F8FFEE750206C
:1033C00080F31188BFF34F8FBFF36F8FFEE70000CC
:1033D0000548416919B1006B18B100207047012000
:1033E00070470220704700006C0000202DE9F0417A
:1033F0002F4C0026206B28B1A069401CA0613046EC
:10340000BDE8F081E5686D1CE56013D1606B006874
:1034100038B1502080F31188BFF34F8FBFF36F8F07
:10342000FEE7606BA16B6163A063206A401C2062B1
:10343000FFF766FCA06ADFF87C80854209D3606BE9
:103440000068A0B1606BC068C7687868854211D217
:10345000A0622068C06A00EB800158F821000128B2
:1034600000D90126E0690028C9D00126C7E74FF03E
:10347000FF30EDE7381DFFF77BFDB86A18B107F1A3
:103480001800FFF775FDF96A012022698840104392
:10349000206101EB810108EB8100391DFFF7ACFDD4
:1034A000F86A2168C96A8842C9D30126C7E70000C3
:1034B0006C000020980900202DE9F0472C4D0024D5
:1034C0002746286B38B1FFF7A3FD286B401E286301
:1034D000286B40B146E0502080F31188BFF34F8F36
:1034E000BFF36F8FFEE7A968224E0120D1B3A6F18A
:1034F000B40980463068E8B1F068C46804F1180087
:10350000FFF736FD201DFFF733FDE06A2A6908FA50
:1035100000F11143296100EB800109EB8100211DBD
:10352000FFF76AFDE06A2968C96A8842E2D3C5F8F4
:103530001C80DFE70CB1FFF7E3FBAC6944B1464602
:10354000FFF754FF00B1EE61641EF9D10020A861BD
:10355000E86938B10849012738070860BFF34F8F81
:10356000BFF36F8FFFF774FD3846BDE8F0870000AA
:103570006C0000204C0A002004ED00E04FF0407089
:10358000E1EE100A7047000000080048002000002B
:10359000000400482000000000040048040000006F
:1035A000000000480080000000000048008000008B
:1035B000000400482000000000040048040000004F
:1035C0000004004820000000000400482000000023
:1035D000000000480080000000000048008000005B
:1035E000000400480400000000040048040000003B
:1035F000000400480800000000040048100000001B
:10360000000400481000000000040048080000000A
:1036100000040048080000000004004810000000FA
:10362000000400481000000000000000000000003E
:103630000102030406070809A0860100400D0300EB
:10364000801A060000350C0040420F0080841E00E6
:1036500000093D0000127A000024F40000366E01DB
:103660000048E801006CDC020000000001020304D5
:10367000CC360008192100080000000000000000FE
:10368000800000000000000000000000BC360008C0
:103690002D21000800000000000000008000000054
:1036A000000000000000000004000008000000000E
:1036B0000000000200010000100000006C6564546E
:1036C0006F67676C655461736B00000064656661C9
:1036D000756C745461736B00F836000800000020AC
:1036E000D4000000C8010008CC370008D400002036
:1036F000CC270000E401000800093D0000000000A4
:1037000000000000000000000000000000000000B9
:10371000000000000000000000008000A000000089
:1037200000000000FFFF000000040048000100004E
:1037300000040048000200000000004820000000D3
:1037400000080048040000000000004801000000DC
:103750000000004810000000010000001000000000
:103760000000000000000000000000000000000059
:103770000000000000000000000000000000000049
:103780000000000000000000000000000000000039
:103790000000000000000000000000000000000029
:1037A0000000000000000000000000000000000019
:1037B0000000000000000000000000000000000009
:0C37C00000000000AAAAAAAA0000000055
:040000050800018D61
:00000001FF
