:020000040800F2
:10000000A80B0020610200084B200008631F0008B5
:10001000492000086F090008592B00080000000063
:10002000000000000000000000000000A101000826
:100030009509000800000000FD01000831240008B7
:100040007B020008612300087B0200087B02000895
:100050007B0200087B020008970900087B02000869
:100060007B0200089D090008C10900087B02000806
:100070007B020008710900087B0200087B0200086F
:100080007D090008890900087B0200087B0200083E
:100090007B0200087B0200087B0200087B0200084C
:1000A0007B020008792400087B0200086D24000808
:1000B000E924000800000000000000007B020008A6
:1000C0007B0200087B0200087B0200087B0200081C
:1000D0007B0200087B0200084D2B00087B02000811
:1000E0007B020008E123000800000000000000007F
:1000F0000000000000000000000000000000000000
:10010000000000007B020008000000007B020008E5
:100110000000000000000000F52400080125000890
:100120007B0200087B0200087B0200087B020008BB
:100130007B0200080000000000000000000000003A
:100140007B0200087B0200087B0200080000000020
:100150007B0200087B0200087B0200087B0200088B
:100160007B0200087B0200087B0200080000000000
:100170007B0200087B020008000000000000000075
:100180007B0200087B0200087B020008DFF80CD02D
:1001900000F0BCFB0048004759480008A80B0020AD
:1001A0002C4B19680868B0E8F04F80F30988BFF35A
:1001B0006F8F4FF0000080F311887047000000003F
:1001C00008480068006880F308884FF0000080F35A
:1001D000148862B661B6BFF34F8FBFF36F8F00DF35
:1001E00000BF00BF08ED00E0DFF80C00016841F43B
:1001F00070010160704700BF88ED00E0EFF30980F7
:10020000BFF36F8F134B1A681EF0100F08BF20ED5D
:10021000108A20E9F04F106009B44FF0500080F3CD
:100220001188BFF34F8FBFF36F8F04F0B1FC4FF015
:10023000000080F3118809BC19680868B0E8F04F25
:100240001EF0100F08BFB0EC108A80F30988BFF3CE
:100250006F8F704710000020EFF30580704700009B
:100260000648804706480047FEE7FEE7FEE7FEE750
:10027000FEE7FEE7FEE7FEE7FEE7FEE75D24000897
:100280008D0100082DE9F05F0546002092469B464F
:1002900088460646814640241BE02846414647469C
:1002A000224600F054FA53465A46C01A914110D3E0
:1002B00011461846224600F03BFA2D1A67EB01085A
:1002C0004F4622460120002100F032FA17EB0009C8
:1002D0004E41201EA4F10104DFDC484631462A4687
:1002E0004346BDE8F09F40EA01039B0703D009E0C5
:1002F00008C9121F08C0042AFAD203E011F8013B12
:1003000000F8013B521EF9D27047D2B201E000F86A
:10031000012B491EFBD270470022F6E710B51346A9
:100320000A4604461946FFF7F0FF204610BD10B5F7
:10033000002200E0521C835C8C5CA34201D1002BA4
:10034000F8D1D8B2E1B2401A10BD2DE9FE4F804677
:1003500081EA0300C00F0C46009021F0004123F019
:100360000045B8EB0200A94105D24046214690461F
:100370001C460B46024623F00040104347D0270D91
:10038000C7F30A00C3F30A510290401A01904028B3
:100390006BDAC3F3130040F4801B0098924620B13F
:1003A0000023D2EB030A63EB0B0B01985946C0F113
:1003B0004002504600F0BCF906460D4650465946EC
:1003C000019A00F0D4F910EB08006141002487EA9B
:1003D000115284EAE7731A4340D0009A62B3019A3B
:1003E000012A4FEA075215DC001B61EB02014FF0B6
:1003F000004202EA0752CDE90042001C41F580119B
:1004000032462B4600F00BFA03B0BDE8F08F4046B1
:100410002146F9E7001B61EB0201001C41F5801346
:1004200000185B412018A2F5001747EB030140EAD2
:10043000D570B6196D4111E06D084FEA360645EAF0
:10044000C0754FEA0752001B61EB0201001C41F529
:10045000801149084FEA30000019514132462B46BD
:1004600003B0BDE8F04F00F0CBB900980122400086
:100470000023D0EB020263EBE073009821464FEAC1
:10048000E074B8EB000061EB0401E9E783F000439E
:100490005BE781F0004158E72DE9FE4F81EA030454
:1004A00004F0004421F0004100944FF0000B23F0D1
:1004B000004350EA01045ED052EA03045BD0C3F368
:1004C0000A54C1F30A552C44A4F2F3340194A0FB5E
:1004D0000254C1F3130141F48011C3F3130343F435
:1004E000801301FB024400FB034E840A970A44EA8E
:1004F000815447EA8357A4FB076802958D0A05FBE0
:1005000007854FEA932C04FB0C542705029D4FEA04
:10051000065847EA1637B5EB08056EEB070C870E51
:10052000920E47EA811742EA8312A7FB0201B6EB5B
:100530000B0164EB00042B0D43EA0C335E1844EB13
:100540001C50DA465146E7FB0201C5F313044FEA9B
:100550000B3343EA14534FEA0432019C43EA060387
:10056000A4F10C040294009CCDE900B400F057F90A
:1005700003B0BDE8F08F00200146F9E72DE9F04D0A
:1005800081EA030404F0004B21F0004514464FF0CB
:10059000000A23F0004150EA050220D054EA01028B
:1005A0001DD0C5F30A570246C5F31303C1F3130068
:1005B000C1F30A5640F4801543F48013A7EB0608F4
:1005C000101BD64608F2FD3873EB050002D308F184
:1005D000010801E092185B41B8F1000F03DA002036
:1005E0000146BDE8F08D00204FF480110646844698
:1005F0000EE0171B73EB050705D3121B63EB050316
:1006000006434CEA010C49084FEA300092185B415E
:1006100050EA0107EDD152EA030012D082EA040049
:1006200083EA0501084305D0101BAB4106D2012225
:10063000002306E000224FF0004302E06FF00102C9
:1006400053101AEB06004CEB085110EB0A0041EB7B
:100650000B01BDE8F04D00F0D3B80EB540F23341C8
:1006600002910021CDE900110A460B4600F0D7F8AF
:1006700003B000BD00F0004230F000400AD0C10DD0
:1006800001F56071C0F3160042EA0151C20840074B
:1006900011437047002001467047000030B5041E2A
:1006A00071F1000404DB4FF00044404264EB0101AF
:1006B000141E73F1000405DB1C464FF00043524248
:1006C00063EB0403994208BF904230BD01F0004340
:1006D00030B421F0004150EA010206D00A0DA2F523
:1006E0006072C1F31301002A02DC30BC00207047A5
:1006F000440F44EAC104C100E01830BC00EBC25012
:1007000000F047B830B50B460146002020220124F6
:1007100009E021FA02F59D4205D303FA02F5491BCF
:1007200004FA02F52844151EA2F10102F1DC30BDE5
:10073000202A04DB203A00FA02F1002070479140A1
:10074000C2F1200320FA03F3194390407047202A96
:1007500004DB203A21FA02F00021704721FA02F36B
:10076000D040C2F120029140084319467047202A28
:1007700006DBCB17203A41FA02F043EAE07306E0C9
:1007800041FA02F3D040C2F12002914008431946D9
:1007900070470029A8BF7047401C490008BF20F0DF
:1007A0000100704710B4B0FA80FC00FA0CF050EA77
:1007B000010404BF10BC704749B1CCF1200421FAF8
:1007C00004F411FA0CF118BF012121430843A3EBF3
:1007D0000C01CB1D4FEA00614FEA102042BF002000
:1007E00010BC704700EBC35010440029A4BF10BCDC
:1007F0007047401C490008BF20F0010010BC704742
:1008000010B5141E73F1000408DA401C41F1000118
:1008100092185B411A4301D120F0010010BD2DE96F
:10082000F04D92469B4611B1B1FA81F202E0B0FA66
:1008300080F220329046FFF77BFF04460F4640EAE5
:100840000A0041EA0B0153465A46084313D01146A9
:1008500053EA010019D0C8F140025046FFF777FF74
:1008600005460E46504659464246FFF761FF08438B
:1008700005D0012004E020463946BDE8F08D002077
:10088000054346EAE0762C4337430A986305E40AB9
:10089000A0EB08000022FD0A44EA47540A3002D5C2
:1008A00000200146E9E7010510196941DDE9084525
:1008B00000196941BDE8F04DA2E70EB5C10F80EA0D
:1008C000E0700844CA07002140F233438DE80E006F
:1008D0000A460B46FFF7A3FF03B000BDC1F30A525F
:1008E000C1F3130140F2FF3341F480119A4202DA5E
:1008F00000200146704740F233439A42A2F233424D
:1009000002DC5242FFF723BFFFF712BF064C074D30
:1009100006E0E06840F0010394E8070098471034CF
:10092000AC42F6D3FFF736FC7886000898860008BC
:1009300070B5C1F30A5201F000450024C1F3130160
:1009400040F2FF3341F480119A4201DA002070BD79
:1009500040F233439A42A2F2334203DC5242FFF7A1
:10096000F6FE00E090402C43F1D0404270BDFEE71F
:10097000014800F083B8000078010020014800F031
:100980007DB80000F0000020014800F077B80000BA
:10099000A80000207047012000F0E2B8064810B51A
:1009A000B0F87C0080B200F0DBF8034803498030E7
:1009B000808880B2086010BDC04C0008140401405B
:1009C00010B5054CA08980B200F0CAF8A08A03498E
:1009D00080B2086010BD0000404D000814040140C2
:1009E00072B6FEE710B590F825100022022905D056
:1009F0000421C16380F82420012010BD01680B6828
:100A000023F00E030B6001680B6823F001030B60F9
:100A100090F84410046C01F01C03012101FA03F367
:100A2000636080F8251080F82420104610BD10B5B2
:100A300090F825100024022903D00421C163012469
:100A40001AE001680A6822F00E020A6001680A686A
:100A500022F001020A6090F84410036C01F01C02BD
:100A6000012101FA02F25A6080F82510002180F875
:100A70002410816B01B18847204610BDF0B4016C91
:100A80000C6801680D6890F8442002F01C060422EE
:100A900002FA06F3234211D06B070FD50B689B06B1
:100AA00003D40B6823F004030B6090F8441001F0AA
:100AB0001C018A40016C4A60016B1DE0022303FAAD
:100AC00006F727424FF0000C4FF0010218D0AF0795
:100AD00016D50C68A40605D40C6824F00A040C6032
:100AE00080F8252090F8441001F01C018B40016C27
:100AF0004B6080F824C0C16A00291AD0F0BC0847B6
:100B00000823B340234214D02B0712D50B6823F0DF
:100B10000E030B6090F84410036C01F01C0102FA04
:100B200001F15960C26380F8252080F824C0416B30
:100B3000E2E7F0BC7047000070B5044600F012F91F
:100B40000546601C02D004480078044400F00AF90D
:100B5000401BA042FAD370BD4C000020704700003B
:100B6000044910B50A68024202D00860FFF7F6FF98
:100B700010BD0000140401402DE9F04FDFF8AC91E6
:100B800000230325A9F1040B85B04FF0010C0F27BA
:100B900009F1040AABF1040EBFE000BF0CFA03F642
:100BA000324075D00C7904F00304012C01D0022CE2
:100BB0001BD1846800945C0005FA04F80494009C3E
:100BC00024EA08040094D1F80C80049C08FA04F884
:100BD000009C48EA0408C0F808804468B4430E79D1
:100BE000C6F300169E40264346600C79E443A407F2
:100BF0000AD0C4684FEA430805FA08F6B4438E6881
:100C000006FA08F62643C6600C7904F00304022CA9
:100C100010D1DC0800EB84040294246A5E074FEADA
:100C2000D66807FA08F6B4430E6906FA08F62643B2
:100C3000029C266204684FEA430805FA08F6B443AA
:100C40000E7906F0030606FA08F6264306604C689D
:100C500014F4403F60D0364C266E46F001062666FE
:100C6000246E23F0030604F001040094314C344454
:100C70000294A4689E074FEA167807FA08F6B44370
:100C8000B0F1904F05D02C4EB04204D1012612E0B5
:100C900042E000260FE0294EB04201D102260AE0D0
:100CA000274EB04201D1032605E0264EB04201D1C5
:100CB000042600E0072606FA08F62643029CA660F2
:100CC000D9F800604C46D1F8048096435FEAC82802
:100CD00000D516432660DAF800405646D1F8048065
:100CE00094435FEA882800D514433460DBF8004061
:100CF0005E46D1F8048094435FEA883800D51443F7
:100D00003460DEF800407646D1F8048094435FEA10
:100D1000C83800D5144334605B1C0A6832FA03F407
:100D20007FF43CAF05B0BDE8F08F0000080401403F
:100D30000010024000000140000400480008004884
:100D4000000C004800100048426921EA02030A40F2
:100D500043EA0241816170470AB181617047816253
:100D60007047000001488068704700004C00002078
:100D700010B50024052000F071F80F2000F008F8ED
:100D800008B1012401E000F025F8204610BD000064
:100D900070B50E4E05460024307898B14FF47A7144
:100DA000B1FBF0F00A490968B1FBF0F000F010FD6A
:100DB00040B9102D06D200222946501E00F02EF810
:100DC000756000E00124204670BD00004C0000204A
:100DD00000000020094808B5016E41F001010166DC
:100DE000016E01F001010091816D41F0805181653A
:100DF000806D00F08050009008BD0000001002409F
:100E0000002809DB00F01F02012191404009800009
:100E100000F1E020C0F8001170470000F0B40E4B64
:100E20001B680C46C3F30223C3F10705042D00D948
:100E30000425191D072901D2002300E0DB1E01262D
:100E400006FA05F1491E214099409E40761E164043
:100E50003143F0BC01F0BCBE0CED00E0064900F0EF
:100E6000070208684FF6FF03184040EA0220034AD1
:100E700010430860704700000CED00E00000FA0528
:100E80000248006800F4C060704700000070004035
:100E900010B50D4C2068C00304D500F019F84FF4CC
:100EA00080302060084C20342068800603D500F094
:100EB0000DF8202020602068400603D500F007F8D8
:100EC0004020206010BD00001404014070477047AE
:100ED00004484069000501D503A000E006A001F028
:100EE0003DBE000000700040E794B5E58E8BE8BF82
:100EF00087E4BD8E2E0D0A00E794B5E58E8BE6AD36
:100F0000A3E5B8B82E0D0A002DE9F0470F460500FD
:100F10006BD0494E306800F00700B84209D2306803
:100F200020F0070038433060306800F00700B84216
:100F30005BD12878414C80070AD5A868A16801F0E8
:100F4000F001884204D9A16821F0F0010143A160B9
:100F50002878C0072CD06868032811D0022812D046
:100F6000216898B1490500293FDAA16821F0030101
:100F70000143A160FFF7F6FE804641F2883910E098
:100F800021688901EFE721688903ECE78907EAE72F
:100F9000FFF7E8FEA0EB0801494502D90320BDE8B0
:100FA000F087A068696800F00C00B0EB810FEFD10A
:100FB000287880070AD5A868A16801F0F001884266
:100FC00004D2A16821F0F0010143A160306800F073
:100FD0000700B8420BD9306820F007003843306072
:100FE000306800F00700B84201D00120D7E7287828
:100FF000400705D5A068E96820F4E0600843A060D8
:101000002878000706D5A068296920F4605040EAD6
:10101000C100A06000F03EF8A168094AC1F30311C5
:10102000515C01F01F01C84006490860064800688D
:10103000BDE8F047FFF7ACBE0020024000100240C0
:10104000584D0008000000205000002005480649C7
:1010500000688968054AC1F30221515C01F01F0153
:10106000C84070470000002000100240984D000862
:101070000548064900688968054AC1F3C221515CE8
:1010800001F01F01C840704700000020001002401E
:10109000984D000870B52549002318468A68CC6829
:1010A00012F00C0204F00306214C4FEA640509D04B
:1010B0000C2A05D0042A32D0082A00D1284670BD57
:1010C000012E10D10B681B0704D4D1F89430C3F360
:1010D000032302E00B68C3F30313164E56F82330C4
:1010E000DAB10C2AEBD1C86800F00300022818D04E
:1010F000032818D01846CA68CB68C2F30212C3F39B
:1011000006234343521CB3FBF2F2C868C0F34160AC
:10111000401C4000B2FBF0F070BD184670BD204688
:1011200070BD2046E7E72846E5E7000000100240D2
:101130000024F400684D00082DE9F84304006FD046
:10114000FA4DA86800F00C06E86800F00307207864
:10115000C00664D576B10C2E01D1012F0AD0A0694A
:10116000002828687AD040F001002860FFF7FAFDD7
:1011700080465DE02868800702D5A0690028DED09F
:10118000216A2868000703D5286800F0F00004E011
:10119000D5F89400F02202EA1010814216D90846D0
:1011A00001F0E0F800283BD1286840F008002860F2
:1011B0002868216A20F0F000084328606868E16927
:1011C00020F47F4040EA0120686016E0286840F083
:1011D000080028602868216A20F0F0000843286091
:1011E0006868E16920F47F4040EA0120686026B920
:1011F000206A01F0B7F80028D5D1FFF74BFFA968A6
:10120000CB4AC1F30311515C01F01F01C840C94929
:101210000860C9480068FFF7BBFD00287ED12EE0BA
:10122000CAE000BFFFF79EFDA0EB0800022876D8B9
:1012300028688007F6D5286840F0080028602868EC
:10124000216A20F0F000084328606868E16920F412
:101250007F4040EA0120686011E0FFE720F00100D4
:101260002860FFF77FFD804606E000BFFFF77AFDAC
:10127000A0EB08000228DAD828688007F6D4207886
:10128000C00740D0082E18D00C2E01D1032F14D047
:101290006068B0F5803F17D0B0F5A02F286817D050
:1012A00020F480302860286820F48020286060685E
:1012B000E0B1FFF757FD804614E02868800322D58F
:1012C0006068002878D01EE0286840F48030EDE7A0
:1012D00040F480202860F7E7FFF744FDA0EB08000A
:1012E0006428A4D828688003F6D50CE0FFF73AFDFF
:1012F000804605E0FFF736FDA0EB0800642896D88D
:1013000028688003F6D4207880073BD5042E11D0BE
:101310000C2E01D1022F0DD0E06801E0AAE1FFE020
:10132000002828681ED040F480702860FFF71AFD5E
:1013300007460CE0286840050CD5E0680028C1D0BD
:1013400008E000BFFFF70EFDC01B022893D82868F5
:101350004005F7D56868217C20F0F85040EA01602C
:1013600068600FE020F480702860FFF7FBFC074600
:1013700005E000BFFFF7F6FCC01B0228B1D82868C3
:101380004005F7D42078000729D560690028D5F8F2
:10139000940012D040F00100C5F89400FFF7E2FC81
:1013A000074604E0FFF7DEFCC01B022899D8D5F8F9
:1013B00094008007F6D512E02BE120F00100C5F87B
:1013C0009400FFF7CFFC074605E000BFFFF7CAFC1B
:1013D000C01B022885D8D5F894008007F6D4207861
:1013E000400766D5A86D0027C00008D4A86D40F05E
:1013F0008050A865A86D012700F0805000904F48EC
:101400000168C90512D40168814641F48071016008
:10141000FFF7A8FC804605E0FFF7A4FCA0EB08005E
:1014200002287DD8D9F80000C005F5D5A0680128AC
:1014300016D00528D5F8900017D020F00100C5F887
:101440009000D5F8900020F0040000BFC5F890008F
:10145000A06841F28839C0B1FFF784FC80460FE0F4
:10146000D5F8900040F00100F0E740F00400C5F826
:101470009000F5E7FFF776FCA0EB080149454FD84F
:10148000D5F890008007F5D50EE0FFF76BFC80469D
:1014900006E000BFFFF766FCA0EB080149453FD816
:1014A000D5F890008007F5D41FB1A86D20F08050CA
:1014B000A8652078800628D5606A0028D5F89800AD
:1014C00012D040F00100C5F89800FFF74BFC07462A
:1014D00005E000BFFFF746FCC01B022820D8D5F866
:1014E00098008007F6D510E020F00100C5F89800BC
:1014F000FFF738FC074604E0FFF734FCC01B022866
:101500000ED8D5F898008007F6D4A06AF0B3022868
:1015100016D00C2E7DD0286820F08070286000E066
:10152000A7E0FFF71FFC0446A6E000000010024001
:10153000584D0008000000205000002000700040BE
:10154000E868E26A00F00301914228D1216B00F0C3
:10155000700209011039914221D1626B00F4FE4101
:10156000B1EB022F1BD194F8382000F07841B1EB99
:10157000C26F14D1A18F00F4C00249084905A1F53A
:10158000001191420BD194F8401000E06AE0490844
:10159000490600F0C060A1F1007181424BD00C2ED1
:1015A00073D02868400170D4286820F080702860CB
:1015B000FFF7D8FB064604E0FFF7D4FB801B0228A8
:1015C00057D828688001F7D4F4E90B016FF00F02B7
:1015D00002EB01110843218A5204490802EB4151F0
:1015E000A26841EA02210843217D4FF07E4249086A
:1015F00002EB41610843217B40EAC160E968244A6B
:1016000011400843E860286840F080702860E8686E
:1016100000E03AE040F08070E860FFF7A3FB04468A
:1016200005E000BFFFF79EFB001B022821D82868B9
:101630008001F7D527E02868800124D4286840F08D
:1016400080702860E86840F08070E860FFF78AFBEF
:10165000044604E0FFF786FB001B022809D828682F
:101660008001F7D50FE000BFFFF77CFB001B0228CD
:1016700002D90320BDE8F88328688001F4D4E86823
:1016800004490840E8600020F4E70120F2E7000088
:101690008C809D01FCFFEEFE704700000EB503F04C
:1016A000A5F906480178837842788DE80E00C37961
:1016B0008279818802A001F051FA0EBDE401002078
:1016C000416C61726D2054696D653A25642D256405
:1016D0002D25642025643A25643A25640A0000001B
:1016E00010B5144904464FF48020086020688168D2
:1016F000C9040BD5C168C90508D5C16801F08001CE
:1017000061F4C071C1602046FFF7C8FF206881689E
:1017100089040BD5C168890508D5C16801F080012D
:1017200061F42071C1602046FFF7B6FF012084F804
:10173000210010BD1404014010B500680B4641683B
:101740000D480140080CD870C1F304245C7001F00E
:101750003F049C70C1F34231197052B900F046FE4B
:10176000D870587800F042FE5870987800F03EFE2D
:101770009870002010BD00003FFFFF0010B50B4621
:101780000168896A596001680969C1F30E019960AD
:10179000006801680D480140C1F305401870C1F3AD
:1017A00006245C7001F07F049C70890DD97052B9D9
:1017B00000F01CFE1870587800F018FE58709878E9
:1017C00000F014FE9870002010BD00007F7F7F00A5
:1017D00010B5401EB0F1807F01D3012010BD4FF045
:1017E000E02460610F21601701F0F2F90020A06190
:1017F00007202061002010BD70477047704790F8A7
:101800003C20012A0CD0012200F83C2F0223437017
:1018100050F83C3C59614270002101700846704705
:101820000220704770B5044600682449884243D1BD
:101830000069C04380073DD50021214800F052F9DE
:10184000204A83B21078010634D41D494506A1F11F
:101850006C010CD540F0800010705380C86E026A95
:1018600022F00A020262C86E016A016222E00020D0
:10187000508040231370CA6E136A41F211152B4237
:1018800007D1136AAD102B4203D1136823F0010373
:101890001360CA6E5062C86E026A22F00A020262C7
:1018A000C86E026A42F002020262C86E016841F02C
:1018B000010101602068006970BD0000002C01403A
:1018C0005C0200200400002070B504460068016935
:1018D0004FF00005C943890715D4C168C94389077A
:1018E00011D4E91E016101202077206880698007FA
:1018F000204602D0FFF796FF04E000F0A7F820464C
:1019000000F0A5F8257720680169C943490717D475
:10191000C168C943490713D46FF004010161022073
:1019200020772068806910F4407F204602D0FFF7BE
:1019300079FF04E000F08AF8204600F088F8257767
:1019400020680169C943090716D4C168C94309075A
:1019500012D46FF008010161042020772068C0696B
:101960008007204602D0FFF75DFF04E000F06EF82C
:10197000204600F06CF8257720680169C943C90644
:1019800017D4C168C943C90613D46FF010010161AF
:10199000082020772068C06910F4407F204602D0DC
:1019A000FFF740FF04E000F051F8204600F04FF848
:1019B000257720680169C943C90708D1C168C943AF
:1019C000C90704D1891E0161204600F041F8206852
:1019D0000169C943090609D4C168C943090605D488
:1019E0006FF0800101612046FFF707FF2068016961
:1019F000C943C90509D4C168C943090605D46FF4B0
:101A0000807101612046FFF7F7FE20680169C94334
:101A1000490609D4C168C943490605D46FF040019D
:101A20000161204600F073F820680169C943890606
:101A30000BD4C168C943890607D46FF02001016146
:101A40002046BDE87040FFF7D9BE70BD70477047B3
:101A500070B5054600681D4988420AD11C490A78BC
:101A6000100606D4500604D5D043800607D0521C79
:101A70000A702868174CB0F1804F10D013E0164B55
:101A8000D86E046A24F00A040462D86E036A036202
:101A900042F0800008704FF6FF704880E9E7A188A7
:101AA0002068FFF751F90D492868884203D1A188C1
:101AB0002068FFF749F90A492868884205D1A188BA
:101AC0002068BDE87040FFF73FB970BD002C0140B1
:101AD00004000020B84C0008F00100200010004075
:101AE000001400400246002041B1042909D0082911
:101AF0000AD00C2901D11068006C70471068406B47
:101B000070471068806B70471068C06B70477047F3
:101B10007047704700680549884206D10F2101626D
:101B200001220349034800F0C9B97047004400404E
:101B30005E000020240700202DE9F04102680446E1
:101B4000D0691168936840F60F0528424FF00005F0
:101B500005D186067ED58E067CD5616E1BE1994F38
:101B600003F001060F40374374D0C70709D0CF05F3
:101B700007D501271762D4F8802042F00102C4F88B
:101B8000802082070AD5DA0708D0276802223A6245
:101B9000D4F8802042F00402C4F8802042070AD51D
:101BA000DA0708D0236804221A62D4F8802042F0B1
:101BB0000202C4F8802002070CD501F02002324353
:101BC00008D0236808221A62D4F8802042F0080264
:101BD000C4F8802002050BD54A0109D523684FF4CB
:101BE00000621A62D4F8802042F02002C4F88020FB
:101BF000D4F88020002A35D0800605D5880603D584
:101C0000616E09B120468847D4F880002168896850
:101C1000490602D410F0280F26D0204600F012FD0D
:101C20002068806840061AD52068083050E8001FF8
:101C300021F0400140E80012002AF5D1206F70B178
:101C400061498163206FFEF7F2FE00280AD0206F01
:101C5000816B01E00EE02046BDE8F04108472046D8
:101C6000FFF758FFBDE8F0812046FFF753FFC4F8A7
:101C70008050F7E7276E2026012F7BD1C70679D544
:101C8000CF0677D51020106220688068400641D5C5
:101C9000216F086840680004000CE3D0B4F85820B5
:101CA0008242DFD9A4F85A000868006880062AD466
:101CB000206850E8001F21F4807140E80012002ADB
:101CC000F6D12068083050E8001F21F0010140E8FB
:101CD0000012002AF5D12068083050E8001F21F0DA
:101CE000400140E80012002AF5D1E6672566216828
:101CF00051E8000F20F0100041E80002002AF6D160
:101D0000206FFEF76FFEB4F85800B4F85A10401A6E
:101D100081B22AE0B4F85800B4F85A10401A81B2DF
:101D2000B4F85A0000289DD000299BD0226852E8C0
:101D3000000F20F4907042E80003002BF6D12068D9
:101D4000083050E8002F22F0010240E80023002B69
:101D5000F5D1E66725666566226852E8000F20F037
:101D6000100042E80003002BF6D12046FFF7D0FE1A
:101D700078E7FFE7C70209D55B0207D54FF480106B
:101D800010622046BDE8F041FFF7C3BE020606D54B
:101D90000A0604D5A16E00297FF45DAF62E7400614
:101DA000E6D54806E4D52046026852E8001F21F037
:101DB000400142E80013002BF6D18667856600F0EB
:101DC000CFF84FE7200100043126000810B50400C9
:101DD00002D0A06F10B107E0012010BD002084F8F0
:101DE0007400204600F026F82420A06720680168CF
:101DF00021F001010160204600F0E8FC0128ECD050
:101E0000606A10B1204600F081FB2068416821F42F
:101E1000904141602068816821F02A01816020683A
:101E2000016841F0010101602046BDE8104000F06A
:101E3000D1BB000070B500681E4986B0884236D11B
:101E40001D48C16C41F00101C164C16C01F0010188
:101E50000591C16C41F00101C164C16C01F0010147
:101E60000591816D41F400318165806D022400F49B
:101E700000300590042001258DE8310003200390F7
:101E800007204FF09046049069463046FEF774FEF6
:101E900008208DE8310069463046FEF76DFE0322CA
:101EA00011462620FEF7BAFF2620FEF7A9FF06B04E
:101EB00070BD0000004400400010024030B4C36F09
:101EC000202B20D1E1B1DAB190F87430012B1AD077
:101ED000012380F87430002303660C4C0368A3428E
:101EE0000BD05B681B0208D5046854E8003F43F040
:101EF000806344E80035002DF6D130BC00F066BDAB
:101F0000012030BC70470220FBE700000080004049
:101F100000680F49884219D10E48B0F80411FF2912
:101F20000FD80D49B0F8002109788154B0F800119C
:101F3000491CC9B2A0F80011B0F80411491CA0F85E
:101F40000411012204490548FFF7B8BF704700009B
:101F5000004400401C0600205D00002024070020F3
:101F60007047FEE700B587B014216846FEF7D4F944
:101F70002748C16C41F00101C164C16C01F001014D
:101F80000591C16C41F00201C164C16C01F0020114
:101F90000591C16C41F00401C164C06C00F0040003
:101FA0000590012001900220029003901948818839
:101FB000009100686946FEF7DFFD16480830818809
:101FC000009100686946FEF7D7FD124810308188FD
:101FD000009100686946FEF7CFFD0E4818308188F1
:101FE000009100686946FEF7C7FD0A4820308188E5
:101FF000009100686946FEF7BFFD064828308188D9
:10200000009100686946FEF7B7FD07B000BD00000B
:10201000001002407400002070B50A4C054621688B
:10202000A0888862A4F10800818800688161280A7C
:1020300000F0E6F9E8B200F0E3F92168A0888861D1
:1020400070BD000094000020FEE7FEE7F0B50646F4
:10205000504200EBD070441000EE104A2DED068B7C
:10206000D3B0B8EEC00A52089DED5F1ADDED5E1ADE
:102070008DED310A00EE104A0D46B8EEC00A8DED26
:10208000320A00EE104AB8EEC00A8DED330A00EEB7
:10209000102AB8EE400A8DED340A00EE104AB8EE70
:1020A000C00A8DED350A00EE104AB8EEC00A8DED7B
:1020B000360A00EE102AB8EE400A8DED370A00EE1F
:1020C000102AB8EE400A8DED380A00EE104AB8EE3C
:1020D000C00A8DED390A00EE104AB8EEC00A8DED47
:1020E0003A0A00EE102AB8EE400A8DED3B0A00EEE7
:1020F000104AB8EEC00A8DED3C0A00EE104AB8EE68
:10210000C00A8DED3D0A00EE104AB8EEC00A8DED12
:102110003E0A00EE102AB8EE400A8DED3F0A00EEAE
:10212000102AB8EE400A8DED400A00EE104AB8EED3
:10213000C00A8DED410A00EE102AB8EE400A8DED7E
:10214000420A00EE102AB8EE400A8DED430A00EE76
:10215000102AB8EE400A8DED440A00EE102AB8EEBF
:10216000400A8DED450A00EE104AB8EEC00A8DED2A
:10217000460A00EE102AB8EE400A8DED470A00EE3E
:10218000102AB8EE400A8DED480A00EE103AB8EE7B
:10219000C00ADFED700A20EE202A9FED6F0AF8EEEC
:1021A000E11AB8EEC11A82EE008A61EEA01A61EE61
:1021B000200AC1EE808A18EE100AC0EE80AAFEF74F
:1021C00059FA41EC100B00F013FD51EC100BFEF727
:1021D0007DFA0AEE100A18EE100AFEF74BFA41ECEF
:1021E000100B00F069FD51EC100BFEF76FFA09EED1
:1021F000900A18EE900AFEF73DFA41EC100B00F041
:10220000F7FC51EC100BFEF761FA09EE100A18EE1C
:10221000900AFEF72FFA41EC100B00F04DFD51EC47
:10222000100BFEF753FA08EE900A1AEE900AFEF72A
:1022300021FA41EC100B00F0DBFC51EC100BFEF727
:1022400045FA08EE100A1AEE900AFEF713FA41EC6E
:10225000100B00F031FD51EC100BFEF737FA01EED8
:10226000900A002031AA01AC00EB400302EB83018D
:10227000401C91ED010A91ED022AD1ED002A20EED9
:10228000291A60EE0A0A22EE890A04EB830102EEA3
:102290000A1A42EE690A082801EE280A21EE092AE4
:1022A00002EEE82A20EE081A20EE210A00EEE11ADA
:1022B00000EE880A00EE906AF8EEE00A71EE200A5D
:1022C000C1ED000A00EE905AF8EEE00A30EE200A66
:1022D00081ED010A81ED022AC6DB60221F4919A89F
:1022E000FEF701F8002519AE4FF6E07706EBC501C1
:1022F00056F835004968009701EB410104EB810174
:1023000000EB400091ED010A04EB8000BCEEC00A36
:1023100010EE102A91ED000A93B2BCEEC00A10EE46
:10232000101A90ED010A8AB2BCEEC00A10EE101A23
:1023300090ED000A89B2BCEEC00A10EE100A80B21D
:1023400001F04CFE6D1C0C2DD0DB53B0BDEC068BA8
:10235000F0BD0000DB0F494000003443A04D0008F1
:10236000FEF796BDF8B51C4D06460024A86DC000CA
:1023700002D5FEF785FD0DE0A86D40F08050A86500
:10238000A86D00F080500090FEF77AFDA96D21F055
:102390008051A965B0F5007F04D0802E07D94FF099
:1023A00003040AE0802E08D9A02E01D804E001D150
:1023B000022402E0702E00D101240848016821F0B7
:1023C000070121430160006800F00700A04201D02E
:1023D0000120F8BD0020F8BD00100240002002409E
:1023E0000148FFF77DB90000C0010020010901EBA1
:1023F000810100F00F0000EB4100C0B27047000007
:1024000070B50A4A082194881568083A13689288BA
:10241000060601D5AC6100E0AC629A629A614006A2
:10242000000E491E11F0FF01F2D170BD7C000020AA
:1024300010B5502080F31188BFF34F8FBFF36F8F1B
:1024400002F0D4FB18B104494FF08050086000201E
:1024500080F3118810BD000004ED00E0024801681F
:1024600041F470010160704788ED00E00148FFF71A
:102470002BBA00005C02002010B5184CE06E006919
:10248000C043C00729D116488168FF2905D9A1F5A5
:10249000807181604FF4807108E011F0FF0F12D05D
:1024A0004FF0000211F0FF0182600CD00D48491E70
:1024B00001600A4801216C30FFF7A1F9E06E016864
:1024C00041F0010104E007483038016821F00101C2
:1024D0000160E16E6FF00100086110BDF0010020A5
:1024E00004000020302C01400148FFF7EDB9000046
:1024F000B80200200148FFF7E7B9000014030020EC
:102500000148FFF7E1B900007003002090F82410A3
:10251000C90706D001684A68836A22F400321A4368
:102520004A6090F82410890706D501684A68C36A92
:1025300022F480321A434A6090F82410490706D5E5
:1025400001684A68036B22F480221A434A6090F8BB
:102550002410090706D501684A68436B22F400423B
:102560001A434A6090F82410C90606D501688A68A3
:10257000836B22F480521A438A6090F824108906F3
:1025800006D501688A68C36B22F400521A438A6038
:1025900090F82410490611D501684A68036C22F4AA
:1025A00080121A434A60016CB1F5801F06D10168A0
:1025B0004A68436C22F4C0021A434A6090F824101F
:1025C000090606D501684A68806C22F4002202439D
:1025D0004A607047F8B500260446C0F88060FEF7F0
:1025E000C1FB0546206800686FF07E47000708D5EC
:1025F0002B4600224FF400112046009700F042FACB
:1026000060B92068006840070AD52B4600224FF4C5
:1026100080012046009700F035FA08B10320F8BD8C
:102620002020A067E067266684F874600020F8BD6B
:1026300010B5806A0021A0F85A10A0F85210FFF7D8
:1026400069FA10BD016851E8002F22F4907241E848
:102650000023002BF6D10168083151E8002F22F049
:10266000010241E80023002BF5D1016E012908D1B8
:10267000026852E8001F21F0100142E80013002B0D
:10268000F6D12021C167002101664166704710B56F
:10269000B0F85C20C36F0168222B04D0088B40F097
:1026A0000800088310BD898C436D11401980416D6D
:1026B000891C4165B0F85A10491EA0F85A10B0F8AC
:1026C0005A100029EED1026852E8001F21F49071DF
:1026D00042E80013002BF6D10168083151E8002FC1
:1026E00022F0010241E80023002BF5D12021C1672F
:1026F00000214166026E012A02D0FFF709FC10BDDD
:102700000166026852E8001F21F0100142E8001340
:10271000002BF6D10168CA69D243D20601D4102237
:102720000A62B0F85810FFF7F3F910BD10B5B0F811
:102730005C20C36F0168222B04D0088B40F0080096
:10274000088310BD898C1140426D1170416D491C88
:102750004165B0F85A10491EA0F85A10B0F85A1046
:102760000029EED1026852E8001F21F4907142E87E
:102770000013002BF6D10168083151E8002F22F038
:10278000010241E80023002BF5D12021C16700217F
:102790004166026E012A02D0FFF7BAFB10BD016646
:1027A000026852E8001F21F0100142E80013002BDC
:1027B000F6D10168CA69D243D20601D410220A6256
:1027C000B0F85810FFF7A4F910BD00002DE9F04152
:1027D0000446016880682269E36910436269002544
:1027E0001A431043714F0A68714B1A4002430A6042
:1027F00020684168E26821F440511143416021683A
:10280000A069B94201D0226A10438A6822F430627A
:1028100002438A606749236867488B420DD1D0F82C
:10282000880010F0030006D0012847D0022843D0CA
:10283000032830D144E001212EE060498B420BD1C6
:10284000D0F8880010F00C0034D0042836D00828C6
:1028500032D00C281FD133E059498B420BD1D0F82C
:10286000880010F0300025D0102827D0202823D051
:10287000302810D124E0BB420DD1D0F8880010F4EC
:10288000406017D0B0F5806F18D0B0F5006F13D04E
:10289000B0F5406F14D010214A4A00264FF4004092
:1028A000BB422FD171B102290FD004290FD00829C2
:1028B00073D10FE00021EFE70221EDE70421EBE700
:1028C0000821E9E7FEF7C2FB03E0104602E0FEF74D
:1028D000E1FBE8B3626802EB420181425DD8B0EBF4
:1028E000023F5AD8010E0302500818187141002304
:1028F000FDF7C8FC344AA0F5407191424DD82168DB
:10290000C8604BE0E3694FF6EF77834228D109298D
:1029100043D2DFE801F005080B420D4242421000AD
:10292000FEF794FB06E0FEF7A3FB03E0104602E08F
:10293000FEF7B0FB60B14100606801EB5001B1FBF4
:10294000F0F0A0F11001B94227D84FF6F07100E085
:1029500024E00140C0F3420001432068C1601DE053
:1029600009291AD2DFE801F005080B190D19191908
:102970001000FEF76BFB06E0FEF77AFB03E0104663
:1029800002E0FEF787FB48B1616800EB5100B0FB45
:10299000F1F0A0F11001B94205D90125666628467B
:1029A000A666BDE8F08180B2A9E700000080004083
:1029B000F369FFEF0038014000100240004400407E
:1029C000004800400024F400FFFC0F0030B54165D2
:1029D000A0F85820A0F85A200022426681684FF4DF
:1029E0008055FF23A94204D1016971BB40F2FF1158
:1029F00031E07F2439B3B1F1805F29D0A0F85C20A9
:102A0000C0F880202221C1670168083151E8003FE9
:102A100043F0010341E80034002CF5D18168A9425C
:102A200001D10169E9B11549416680F87420016955
:102A3000C9B1026852E8001F41F4907142E80013E6
:102A4000002BF6D118E0016941B9A0F85C30D7E756
:102A5000016919B13F21A0F85C10D1E7A0F85C40F2
:102A6000CEE70749E0E7026852E8001F41F0200185
:102A700042E80013002BF6D1002030BD2D270008BE
:102A80008F2600082DE9F0479A4617460E46044661
:102A90004FF000094FF02008089D4AE0681C48D01C
:102AA000FEF760F9A0EB0A00A8422AD84DB32068CF
:102AB000016849073DD5C069C043000539D4216884
:102AC0004FF400600862206850E8001F21F4D071C4
:102AD00040E80012002AF6D12068083050E8001FB4
:102AE00021F0010140E80012002AF5D1C4F87880F5
:102AF000C4F87C80C4F8808084F874900320BDE81A
:102B0000F087216851E8000F20F4D07041E80002FE
:102B1000002AF6D12068083050E8001F21F001019A
:102B200040E80012002AF5D1C4F87880C4F87C800F
:102B3000E2E72068C06936EA000004D00020B8420D
:102B4000ACD00020DBE70120F9E700000148FEF7E8
:102B5000F3BF000024070020FEE700000FB4054B80
:102B600010B503A9044A029800F0E6FD10BC5DF818
:102B700014FB0000E13E0008600000207CB5491E07
:102B80001C461546CDE90001044B6A4621462846FD
:102B900000F0D2FD009A002111707CBD673E000854
:102BA00003B401984100009850EAC12018BF0420E6
:102BB0004A0D18BF40F0010040F2FF72B2EB515FC6
:102BC00008BF40F00200012808BF052002B070478E
:102BD0000907090E002804DB00F1E02080F800144A
:102BE000704700F00F0000F1E02080F8141D7047DE
:102BF00010B52F499FED2C1B2DED020B84B00598CD
:102C000020F000408842D8BF9DED040B2DDD2949FE
:102C1000884209D1049840B94FF0010000F0D4FC7B
:102C200000F0A2FC06B010BD05DB9DED040B00F02A
:102C30008FFC06B010BD68469DED040B00F0A0F8B7
:102C400010F0030004BF9DED021B9DED000B0CD0A6
:102C500001280ED09DED021B9DED000B022817D020
:102C6000012000F0DDFB06B010BD00F0A5FA06B0B3
:102C700010BD9DED021B9DED000B012000F0D0FB6F
:102C800051EC100B81F0004106B041EC100B10BD6F
:102C900000F092FA51EC100B81F0004106B041ECCB
:102CA000100B10BD0000000000000000000000003C
:102CB000FB21E93F0000F07F10B52F499FED2C1B51
:102CC0002DED020B84B0059820F000408842DCBF57
:102CD00000209DED040B32DD2849884209D104987B
:102CE00040B94FF0010000F06FFC00F03DFC06B071
:102CF00010BD05DB9DED040B00F02AFC06B010BDF5
:102D000068469DED040B00F03BF810F0030011D075
:102D1000012818D09DED021B9DED000B02281AD052
:102D200000F04AFA51EC100B81F0004106B041EC82
:102D3000100B10BD9DED021B9DED000B012000F05E
:102D40006FFB06B010BD9DED021B9DED000B00F06A
:102D500033FA06B010BD012000F062FB51EC100BFD
:102D600081F0004106B041EC100B10BD00000000E6
:102D70000000000000000000FB21E93F0000F07FA0
:102D80002DE9F14F04462DED020B2DED088B8AB095
:102D90009FEDE70B80ED020B139EE74826F0004500
:102DA00085420ADC9DED120B002084ED000B0AB079
:102DB000BDEC088B03B0BDE8F08FE0489FEDE0ABC1
:102DC0009FEDE1BBA84247DDE14F9FEDE39B9FED07
:102DD000E48B9DED120B53EC1A2B51EC100B002ED3
:102DE0001CDDFDF753FB41EC100BBD4208D053EC4A
:102DF0001B2B51EC100BFDF749FBC4E900010BE064
:102E000053EC192B51EC100BFDF740FB53EC182B36
:102E1000FDF73CFBC4E900010120C8E7FDF795FA86
:102E200041EC100BBD4208D053EC1B2B51EC100BA6
:102E3000FDF78BFAC4E900010BE053EC192B51ECC0
:102E4000100BFDF782FA53EC182BFDF77EFAC4E95C
:102E500000014FF0FF30AAE7C348A84279DB9DED9F
:102E6000120B51EC100B01F02FF841EC180B9FEDF9
:102E7000C00B53EC102BFDF70FFB9FEDBF1B53EC6A
:102E8000112BFDF762FAFDF753FD0746FDF715FD1F
:102E900041EC190B53EC1A2BFDF7FEFA53EC182BEF
:102EA000FDF7F7FA41EC180B53EC1B2B51EC190B07
:102EB000FDF7F2FADFF8C8A241EC100B4FEA155803
:102EC0000125FA4453EC102B51EC180BFDF7DEFAF8
:102ED000032DC4E900013DD0C1F30A5005EB4511B3
:102EE000A8EB00001139814234DA0AEB051BB0EE81
:102EF00048AA9BED000BF0EE68AA53EC102B51ECA6
:102F0000190BFDF7C9FA41EC1B0B51EC1A0B53ECF2
:102F10001B2BFDF7BBFA41EC180B51EC1A0B53ECD1
:102F2000182BFDF7B3FA53EC1B2BFDF7AFFA9BED13
:102F3000020B41EC1A0B53EC102B51EC190BFDF763
:102F4000ABFA53EC1A2BFDF7A1FA41EC100B6D1CF8
:102F5000B8E70EE0002EA8BF3846BFF628AF94EDC4
:102F6000000B51EC100B81F00041C4E900017842E4
:102F70001DE7C6F3130040F4801EC6F30A50A0F20A
:102F8000F530471100F01F05C5F12000DDF848B00D
:102F900008900020069007900520EC467949002D06
:102FA00007EB0002794408BF51F8221009D051F80C
:102FB000223001EB8201AB404A68089922FA01F104
:102FC0001943A1FB0E26A1FB0B131A449A4234BFEE
:102FD0000123002303EB06080CEB8003D3E901A6D1
:102FE0000E448E4234BF0121002192448A4411B123
:102FF000924502D903E0924501D2012100E000216F
:10300000C3E901A641444CF82010011EA0F10100C3
:10301000C4DC029800F10050850F0298DDE90367D7
:103020008000DDF81480FDF748FC41EC1A0B3046B7
:10303000FDF713FB9FED541B53EC112BFDF72CFAFE
:1030400041EC1B0B3846FDF708FB9FED511B53EC81
:10305000112BFDF721FA41EC180B4046FDF7FDFA64
:103060009FED4D1B53EC112BFDF716FA41EC190B9C
:1030700051EC180B53EC192BFDF767F953EC1B2B94
:10308000FDF763F953EC1A2BFDF75FF9CDE9080161
:10309000002008909DED080B53EC1A2B51EC100BFF
:1030A000FDF7F4F953EC1B2BFDF7F0F953EC182B5B
:1030B000FDF7ECF953EC192BFDF7EBF99FED381BFD
:1030C00053EC112BFDF7E8F99FED370B41EC180B92
:1030D00053EC102B9DED080B51EC100BFDF7DCF9B8
:1030E00053EC182BFDF731F99FED310B41EC180B28
:1030F00053EC102B9DED080B51EC100BFDF7CCF9A8
:1031000053EC182BFDF721F941EC100B139810F03C
:10311000004F06D06D4251EC100B81F0004141ECA4
:10312000100B284684ED000B41E600000000000073
:103130000000000000000000FB21E93F7CD90240B4
:1031400000004054FB21F93F3163621A61B4D03D65
:10315000FB21F93F000000000000601A61B4D03D7F
:103160007370032E8A19A33BFB2139410000000034
:1031700083C8C96D305FE43F000000000000E03FFD
:10318000C256000010560000000000000000103E73
:10319000000000000000103C000000000000103A99
:1031A000182D4454FB21F93D3326A611460B113C42
:1031B00000000054FB21F93D10B52DED040B2DED61
:1031C000088B82B0B0EE419AF0EE619A0B9820F035
:1031D00000449FED4BABB4F1795F11DA9DED0A0B22
:1031E00051EC100BFDF7A4FB002801BFB0EE4A0A1A
:1031F000F0EE6A0A02B0BDEC088B04BF04B010BD4B
:103200009DED0A0B53EC102B51EC100BFDF744F91C
:1032100041EC180B3C480621B0EE480AF0EE680A73
:10322000784400F081F853EC182B51EC100BFDF7AB
:1032300033F99DED0A0B41EC1B0B53EC192B51ECB0
:10324000100BFDF729F941EC190B53EC1B2B51EC3A
:10325000180BFDF721F953EC192BFDF717F99FED2A
:103260002C0B41EC190B53EC102B51EC180BFDF708
:1032700013F941EC100B2848844210DA53EC192B57
:1032800051EC100BFDF702F953EC1A2BFDF701F985
:1032900041EC100B02B0BDEC088B04B010BD1F4810
:1032A000A042BCBF9FED1E1B8DED001B06DBA4F5ED
:1032B00000100190002000909DED001B51EC100BC0
:1032C00053EC112BFDF7E2F89DED000B41EC180BD0
:1032D00053EC102B51EC1A0BFDF7D8F841EC1A0BFC
:1032E00053EC192B51EC180BFDF7D0F853EC1A2BBB
:1032F000FDF7CFF841EC100BCCE700000000000018
:10330000000000000000F03F345300000000000007
:10331000000000000000E03F3333D33F0000E93FEE
:10332000000000000000D23F70B504462DED028B76
:103330004D1E00EBC500B0EE408AF0EE608A90EDC5
:10334000000B35F0060017D053EC182B51EC100B86
:10335000FDF7A2F841EC100B6D1E04EBC50090EDDB
:10336000001B51EC100B53EC112BFCF7EEFF41EC62
:10337000100B35F00600E7D1022D36D0042D1CD0FD
:10338000062D1CBFBDEC028B70BD53EC182B51EC0D
:10339000100BFDF781F894ED0A1B53EC112BFCF791
:1033A000D4FF53EC182BFDF777F894ED081B53EC82
:1033B000112BFCF7CAFF41EC100B53EC182B51EC0E
:1033C000100BFDF769F894ED061B53EC112BFCF77D
:1033D000BCFF53EC182BFDF75FF894ED040B53EC96
:1033E000102BFCF7B2FF41EC100B53EC182B51ECF7
:1033F000100BFDF751F894ED021B53EC112BFCF769
:10340000A4FF53EC182BFDF747F894ED001B53EC89
:10341000112BFCF79AFFBDEC028B41EC100B70BD39
:1034200031B504462DED040B2DED0A8BB0EE41BAFB
:10343000F0EE61BA0B989DED0A0B20F00040B0F160
:10344000795F0DDA51EC100BFFF7AAFB042808BFD7
:1034500000F09AF89DED0A0BBDEC0A8B05B030BD6B
:1034600053EC102B51EC100BFDF716F841EC180B38
:103470009DED0A0B53EC182B51EC100BFDF70CF8DB
:1034800041EC190B2C48B0EE480AF0EE680A052111
:103490007844FFF749FF9FED2ACBB0EE40AAF0EE4B
:1034A00060AA9CB353EC1C2B51EC190BFCF7F4FFF6
:1034B00041EC1C0B53EC1A2B51EC190BFCF7ECFFF5
:1034C0009FED210B41EC190B53EC102B51EC1B0B16
:1034D000FCF7E2FF53EC192BFCF7D8FF53EC182B49
:1034E000FCF7DAFF53EC1B2BFCF7D0FF53EC1C2B43
:1034F000FCF7CCFF9DED0A1B53EC112BFCF7C9FF29
:10350000BDEC0A8B05B041EC100B30BDFFE753EC6E
:103510001A2B51EC180BFCF7BFFF53EC1C2BFCF7DC
:1035200014FF53EC192BFCF7B7FF9DED0A1B53EC6E
:10353000112BFCF70AFFE3E7BC510000000000007C
:10354000495555555555C5BF000000000000E03FE6
:1035500010B553EC102B51EC100BFCF7F6FE41ECC0
:10356000100B10BD000000009FED050B10B553ECD3
:10357000102B51EC100BFDF701F841EC100B10BDB6
:1035800000000000000000009FED050B10B553EC9B
:10359000102B51EC100BFCF77FFF41EC100B10BD12
:1035A000000000000000001002E008C8121F08C15F
:1035B000002AFAD170477047002001E001C1121FB4
:1035C000002AFBD1704700000149086070470000E5
:1035D000A40000202DE9FF5FDDE90220010DDDF8E8
:1035E00038B0024318D044F61050A1F2FF314143E5
:1035F0000D140F98012820D0A5EB0B00401C5FEAAA
:10360000000A4FF00004474EDFF81C91A0465046D8
:1036100016D5CAF1000728E00F98012443A201281B
:1036200008D0002100980F9BC0E90021C0E90243A7
:10363000BDE8FF9F6FEA0B01F4E7CBF10000DEE786
:10364000074612E0F80707D022463346404649466F
:10365000FCF722FF8046894622463346104619462B
:10366000FCF71AFF04460E467F10002FEAD1DDE971
:103670000201BAF1000F42464B4602DAFCF70CFF9A
:1036800001E0FCF77BFF04460E460022284BFDF7C5
:1036900005F803D84FF0FF30014607E00022254B24
:1036A00020463146FCF751FEFDF718F9102409E0D9
:1036B000002C0ADB0A220023FCF7E4FD019B3032D8
:1036C0001A55641E50EA0102F2D1641C019AC4F139
:1036D000110314440F9A012A03D0012208430DD18B
:1036E0000AE0084304D000204FF0110B0F9080E750
:1036F000A3EB0B056D1E0DE05B4504DD4FF00002F2
:1037000005F1010504E003DA4FF00002A5F101051F
:10371000002AECD000980F99C0E90231C0E90045B9
:1037200086E70000000024400000F03F3000000069
:103730000000F0430000E03F2DE9FF4F95B09B46AD
:103740008946064600250FE2252877D10024274622
:10375000F84A0121059400E0044316F8013F203B9C
:1037600001FA03F01042F7D130782A2811D06FF017
:103770002F033078A0F13002092A16D8059A44F0B8
:10378000020402EB820203EB42021044761C059015
:10379000EFE759F8042B0592002A03DA504244F46B
:1037A0000054059044F00204761C30782E2816D17F
:1037B00016F8010F44F004042A280DD06FF02F02F0
:1037C0003078A0F13003092B09D807EB870302EB0F
:1037D0004303C718761CF3E759F8047B761C30784E
:1037E0006C280FD006DC4C2817D068280DD06A282A
:1037F00014D104E0742810D07A280FD10DE044F4DD
:1038000000140AE044F4801401E044F44014727897
:10381000824202D104F58014761C761C307866282A
:103820000BD013DC582877D009DC002875D0452848
:10383000F6D04628F4D047281AD19DE118E0632835
:1038400035D0642879D0652812D195E1702873D0DD
:1038500008DC6728F1D069286FD06E280DD06F285A
:1038600006D1B5E073282CD0752875D0782874D08F
:103870005A46179990476D1C75E1C4F3025002280F
:1038800009D003280DD0D9F8001004280DD00D6000
:1038900009F1040967E1D9F80010EA17C1E90052FB
:1038A000F6E7D9F800100D80F2E70D70F0E719F88F
:1038B000041B8DF8001000208DF80100EA4601205D
:1038C00003E059F804AB4FF0FF3061074FF00001FF
:1038D00002D40DE008F101018846B9420FDA8045B3
:1038E000F8DB1AF808100029F4D108E008F101010A
:1038F00088468142FADB1AF808100029F6D10598AB
:103900005B46A0EB080721463846179A00F094FA68
:10391000284400EB080507E04DE029E10DE01AF826
:10392000010B5A4617999047B8F10108F7D25B4648
:1039300021463846179A13E142E00A220092C4F366
:1039400002524FF0000A022A08D059F804CB032A89
:103950004FEAEC710AD00DE029E02AE009F10701F5
:1039600021F00702F2E802C1914609E00FFA8CFC4F
:103970004FEAEC71042A03D14FFA8CFC4FEAEC7148
:10398000002907DA0A460021DCF1000C61EB020194
:103990002D2202E0220504D52B228DF804200122DD
:1039A00003E0E20701D02022F7E7904659E00A2120
:1039B00002E010220DE010214FF0000A00910BE010
:1039C00010224FF0000A44F004040827009203E09C
:1039D00008224FF0000A0092C4F30252022A05D0D6
:1039E00059F804CB0021032A08D009E009F10701A6
:1039F00021F00702F2E802C1914605E01FFA8CFCB3
:103A0000042A01D10CF0FF0C4FF00008220728D542
:103A1000702806D0009B83F0100353EA0A0305D0F8
:103A20000EE040228DF80420012208E05CEA010249
:103A300006D030228DF804208DF805000222904631
:103A4000009B83F0080353EA0A030AD15CEA0102EF
:103A500001D1620705D530228DF804204FF001080E
:103A60007F1E582804D034A003900EA802900DE0C9
:103A700036A0F9E753466046009AFCF703FC8446FB
:103A80000398825C0298401E029002705CEA01007A
:103A9000F0D1029806A9081A00F1200A600702D5A1
:103AA00024F4803400E00127574502DDA7EB0A002B
:103AB00000E0002000EB0A01009005984144401A04
:103AC0000590E00306D45B462146179A059800F05E
:103AD000B3F90544002706E001A85A46C05D1799CE
:103AE00090476D1C7F1C4745F6DBE0030CD55B4619
:103AF0002146179A059800F09FF9054404E030200C
:103B00005A46179990476D1C0099481E009000294D
:103B1000F5DC08E0029802995A460078491C0291A7
:103B2000179990476D1CBAF10001AAF1010AF1DC66
:103B300065E1000009280100303132333435363771
:103B400038396162636465660000000030313233E9
:103B50003435363738394142434445460000000089
:103B600000F058F90544761C307800287FF4ECAD5D
:103B700019B02846BDE8F08F620700D4062709F186
:103B8000070222F0070CFCE80223E14603F000489C
:103B90005FEA080C02D00FF2702C0DE05FEA045CC3
:103BA00002D50FF2682C07E05FEAC47C02D00FF266
:103BB000602C01E0AFF2700C4FF0FF3823F00043AF
:103BC000CDF850C065280CD006DC452809D0462821
:103BD0001DD047283DD13DE0662818D067287ED10A
:103BE00038E00021112F01DB112000E0781CCDE925
:103BF000000106A90EA8FFF7EDFCDDE90F010E9A02
:103C000003910021009207F1010A04914DE04FF069
:103C100000400097CDE9011006A90EA8FFF7DAFCD5
:103C2000DDE90F0203920E9B11990022DDF80CA032
:103C30000093049211B9791C00EB010AB7EB0A005A
:103C400004D4C0F1FF3007F1010A0490AAEB070089
:103C5000019044E0012F00DA01270021112F01DD3E
:103C6000112000E03846CDE9000106A90EA8FFF7B3
:103C7000B1FCDDE90F010E9A03910021049100923D
:103C8000BA4621070CD40399514500DA8A46BAF1A5
:103C9000010F05DD009AAAF10101515C302908D01D
:103CA000B84202DA10F1040F06DA0121CDE9011061
:103CB00015E0AAF10101E9E7002805DC04990144B7
:103CC0000491AAEB000102E0411C514500DD8A4647
:103CD0000499401A401C01904FF0004002902007C8
:103CE00004D40198504501DBCDF8048000208DF804
:103CF0004F0002980DF14F07B0F1004F25D02B2057
:103D00000E9002984FF0020800280CDA4042029010
:103D10002D200E9007E00A210298FCF7F3FC3031C9
:103D2000029007F8011DB8F10001A8F10108F2DCCA
:103D300002980028EFD1791E0E980870307800F0B4
:103D4000200040F0450007F8020D12A8C01B00F14A
:103D500007081498007800B1012000EB0A010198CF
:103D600001EBE07105984144401A401E0590E003C4
:103D700006D45B462146179A059800F05DF8054485
:103D80001498007818B15A46179990476D1CE003B3
:103D900024D55B462146179A059800F04DF8054456
:103DA0001CE00498002807DBDDE90301884203DDFD
:103DB0000098405C179901E0179930205A469047C7
:103DC000049805F10105401C04900198401E0190E3
:103DD00004D12E205A46179990476D1CBAF1000164
:103DE000AAF1010ADDDC05E017F8010B5A46179924
:103DF00090476D1CB8F10001A8F10108F4DC5B46A6
:103E00002146179A0598ABE62D0000002B00000014
:103E1000200000002DE9F041044600251E4617460B
:103E2000880404D405E039462020B0476D1C641E88
:103E3000F9D52846BDE8F0812DE9F041044600257A
:103E40001E469046C80301D5302700E0202788048D
:103E500004D505E041463846B0476D1C641EF9D5CF
:103E60002846BDE8F0814A68002A06D00A68531C3B
:103E70000B6010704868401E486070470149086038
:103E800070470000580000204FF47A71484300F05A
:103E900001B8000070B54FF0E024002265690949BF
:103EA000A36909684843A1699942FCD002D2A3EBF7
:103EB000010302E0A5EB010633441A440B4682429B
:103EC000F1D370BD5800002082B0CDE9000121F08F
:103ED000004001909DED000B02B051EC100B7047BB
:103EE00004490A681206FCD5024AC1B20C3211809C
:103EF000704700001C44004030B51A4887B0C16CC0
:103F000041F00201C164C06C174C00F00200059042
:103F100034F8640F154D218980B289B208430090AE
:103F20004FF4041001900120029069462846FCF7E6
:103F300023FE218A88B2009069462846FCF71CFEC1
:103F4000022200210920FCF769FF0920FCF758FF35
:103F5000022200210A20FCF761FF0A20FCF750FF33
:103F600007B030BD00100240C04C000800040048FB
:103F70002DE9F041104C07460021A088401E83B275
:103F80006088401E82B2084600F046FA2C2000F0FD
:103F9000FBFB00260BE0002504E03846FEF73CF86A
:103FA0006D1CEDB2A0888542F7D3761CF6B260880E
:103FB0008642F0D3BDE8F0816400002006498022EB
:103FC000A023087020B14B808A80032000F0E6B95E
:103FD0004A808B80F9E70000640000202DE9FC5F37
:103FE000164698460C460546B04201D2701B00E0CA
:103FF000A81B1FFA80F9444502D2A8EB040001E097
:10400000A4EB08001FFA80FA4FF0FF30B54201D24E
:10401000012100E001460191444500D20120834680
:10402000A9EB0A0007B2414630460C9A00F022F88C
:10403000CAF10000009017E0214628460C9A00F0D3
:1040400019F87800009900B2884205DDA7EB0A0153
:104050000FB2019929448DB2484505DA07EB0900F2
:1040600007B204EB0B0084B2B542E5D14445E3D17D
:10407000BDE8FC9F10B514464A1C93B2421C92B294
:1040800000F0CAF92046BDE81040FDF7C5BF0000AA
:104090002DE9F041161A5C1A641C761C66430E4C1E
:1040A000069F0025D4F800E0B4F804C0CEF828C07C
:1040B00000F0B2F9A4F1080081880068816103E092
:1040C0003846FDF7A9FF6D1CB542F9D32168A088D9
:1040D0008861BDE8F08100009400002010B5FDF774
:1040E00041FF934C2168A08888626420FFF7CCFED2
:1040F0002168A08888613220FFF7C6FE112000F0F9
:1041000043FB7820FCF718FDB12000F03DFB0120B7
:1041100000F04CFB2C2000F049FB2D2000F046FB6A
:10412000B22000F031FB012000F040FB2C2000F019
:104130003DFB2D2000F03AFBB32000F025FB0120D1
:1041400000F034FB2C2000F031FB2D2000F02EFB82
:10415000012000F02BFB2C2000F028FB2D2000F08C
:1041600025FBB42000F010FB072000F01FFBC0204F
:1041700000F00AFBA22000F019FB022000F016FB61
:10418000842000F013FBC12000F0FEFAC52000F0EF
:104190000DFBC22000F0F8FA0A2000F007FB002017
:1041A00000F004FBC32000F0EFFA8A2000F0FEFAD2
:1041B0002A2000F0FBFAC42000F0E6FA8A2000F082
:1041C000F5FAEE2000F0F2FAC52000F0DDFA0E203C
:1041D00000F0ECFA362000F0D7FAC02000F0E6FA42
:1041E000E02000F0D1FA0F2000F0E0FA1A2000F0F1
:1041F000DDFA0F2000F0DAFA182000F0D7FA2F20AD
:1042000000F0D4FA282000F0D1FA202000F0CEFAF5
:10421000222000F0CBFA1F2000F0C8FA1B2000F08B
:10422000C5FA232000F0C2FA372000F0BFFA0020C0
:1042300000F0BCFA072000F0B9FA022000F0B6FA4C
:10424000102000F0B3FAE12000F09EFA0F2000F0F9
:10425000ADFA1B2000F0AAFA0F2000F0A7FA1720F1
:1042600000F0A4FA332000F0A1FA2C2000F09EFA0E
:10427000292000F09BFA2E2000F098FA302000F060
:1042800095FA302000F092FA392000F08FFA3F20A2
:1042900000F08CFA002000F089FA072000F086FA7E
:1042A000032000F083FA102000F080FA2A2000F0AA
:1042B0006BFA002000F07AFA002000F077FA002074
:1042C00000F074FA7F2000F071FA2B2000F05CFA05
:1042D000002000F06BFA002000F068FA002000F0E7
:1042E00065FA9F2000F062FAF02000F04DFA0120FC
:1042F00000F05CFAF62000F047FA002000F056FAD1
:104300003A2000F041FA052000F050FA292000F090
:104310003BFA0120FFF752FEA4F12000808980B211
:10432000FFF726FE04F1180081880068816110BD46
:10433000840000200FB470B5C2B016460C46054686
:104340004AAB4FF4807101A8499AFEF717FCCEB131
:10435000012E1AD0022E1BD0032E0FD110202023A5
:104360000D4A6D1E641E12895D4392B24443009251
:10437000A0B2A9B201AB324600F0C2F942B070BCA3
:104380005DF814FB06200C23EAE708201023E7E77A
:104390000C201823E4E700006400002070B500241E
:1043A000082812D2DFE800F0110406080A0C0E10EB
:1043B00080240AE0402408E0C02406E0202404E031
:1043C000602402E0A02400E0E024124D2968A888BF
:1043D0008862362000F0D8F9204600F0E7F9A5F110
:1043E0003000A1064188828802D5914202D303E0C1
:1043F000914201D94280818081884088491E8BB2D8
:10440000401E82B20021084600F006F82968A888FC
:10441000886170BD940000202DE9F04107461C46DC
:1044200015460E462A2000F0AFF9002000F0BEF934
:10443000BF1CF8B200F0BAF9002000F0B7F9AD1CCB
:10444000E8B200F0B3F92B2000F09EF9002000F054
:10445000ADF9761CF0B200F0A9F9002000F0A6F941
:10446000A41CE0B200F0A2F9BDE8F0412C2000F05D
:104470008BB900002DE9FF5FA2F12000203A4FF038
:10448000000BD1B25C46C0B201EB410163B1012B1C
:1044900011D0022B23D0032B5BD12F49202501EB18
:1044A000801A102040210CE02C4800EB810A0620E5
:1044B0000C25294605E02A4901EB001A08201025A1
:1044C000294688460099014426484288914240D8AE
:1044D00001998088294481423BD8002637E0224850
:1044E000182500EB011A0C203021EAE71AF80670B3
:1044F0004FF00009380607D501980F9A204481B281
:104500000098584480B20BE00E9858B91548009BAB
:10451000808982B20198204481B203EB0B0080B203
:10452000FFF7A8FD641CE4B2AC4205D10BF1010019
:10453000002400F0FF0B08E07806070E09F10100E7
:1045400000F0FF09B9F1080FD4D3761CF6B2464546
:10455000CCD3BDE8FF9F0000346A0008004E00087D
:104560007452000864000020645800082DE9F84FD8
:1045700092462A4A000100250901103812781039A4
:10458000C9B242B1884600F0FF0900200446DFF8B6
:1045900090B000903BE0894600F0FF08F5E700BFCF
:1045A0000DF805006D1CEDB2032D2ED300252E460F
:1045B00006E038466946FBF7BAFE58B1761CF6B2FB
:1045C00006EBC6010BEB810716A13846FBF7AFFEE1
:1045D0000028EED111484FF003010078002804F1C3
:1045E000010008D0B0FBF1F108EB0110103881B2E6
:1045F0003246484607E0B0FBF1F009EB00101038F6
:1046000080B23246414600F00FF8641CE4B21AF85A
:1046100004000028C4D1BDE8F88F00006400002029
:10462000F4810008000000002DE9F0470D468046A7
:1046300000F1100130484388994236D8838805F14B
:104640001001994231D8814603782C4902EBC2000F
:104650004FF0000401EB800627461BB12AE000273B
:10466000082C13D2F019C4F10701007912E000BF41
:10467000B9F80810B9F804008AB2E919401A81B2F1
:1046800008EB040080B2FFF7F5FC06E0F019C4F176
:104690000F01007DC840C007EAD17F1CFFB2102F78
:1046A000DED3641CE4B2102CD9D3BDE8F087002718
:1046B000082C10D2F019C4F1070100790FE000BFF7
:1046C000B9F8080082B208EB040081B2E81980B2A0
:1046D000FFF7D0FC06E0F019C4F10F01007DC840DF
:1046E000C007EDD17F1CFFB2102FE1D3641CE4B2F0
:1046F000102CDCD3D9E7000064000020F48100080E
:104700002DE9FF4F83B08846044681461D49059830
:104710001F4640B1012809D002280AD003282ED113
:104720001026202507E006260C2504E00826102583
:1047300001E00C2618258A464FF0000B3A78A2F1CA
:1047400020005E281BD8BAF80230A119994204D97A
:1047500008EB05014C461FFA81F8BAF8040008EB93
:10476000050181420BD810984146CDE900B02046A2
:10477000059BFFF77FFEA01984B27F1CDEE707B020
:10478000BDE8F08F6400002010B5074C2268A188B6
:104790009162A4F108018A8809688A62FDF730FEF7
:1047A0002168A088886110BD9400002010B5074CD6
:1047B0002268A1889162A4F108018A8809688A6147
:1047C000FDF71EFE2168A088886110BD94000020BE
:1047D00070B51E4886B0C16C41F00101C164C16C66
:1047E00001F001010591C16C41F00201C164C06C8E
:1047F000174C00F002000590A188A08989B280B210
:1048000001430120CDE900100220124D03906946BA
:104810002846FCF7B1F9A08A4FF0904680B200908C
:1048200069463046FCF7A8F9A08B012281B23046D8
:10483000FCF792FAA08CA28D81B290B201430122C2
:104840002846FCF789FA06B070BD0000001002404F
:10485000C04C0008000400481CB5FCF789FA14207D
:1048600000F012F95020FFF709FBFFF745FBFFF7B7
:10487000AFFF4FF4E13000F049F9FFF72FFC38A00B
:10488000FEF76CF90020FFF773FB39480025394C1F
:1048900005601F26012138A208462660FFF766FE44
:1048A000012238A308211046FFF744FDF0022060E2
:1048B00037A201210220FFF759FE3CA2012103206B
:1048C000FFF754FE3BA2042103202660FFF74EFEB3
:1048D0003AA301220B210320FFF72CFD38A2072168
:1048E0000320FFF743FEA946364DDFF8DC804FF08A
:1048F000140A4FF4B4744FF00F0B00BFCDF80090C2
:104900002B88B8F8002059080020FFF7C1FBFCF7FE
:1049100029FAB0FBFAF0B0FBF4F104FB1107FCF745
:1049200021FAB0FBFBF0B0FBF4F104FB1106FCF73D
:1049300019FA0A21B0FBF1F0B0FBF4F104FB11030A
:10494000CDE9006728882322283801B2B8F8000092
:10495000283800B2FDF77AFB3220FCF7EDF8CDE7FE
:10496000746573742073746172742E2E2E0D0A0098
:10497000700000206C000020E5BCA0E5BAADE58D1C
:104980008E00000034323330313731370000000000
:10499000E5B58CE585A5E5BC8FE7B3BBE7BB9FE834
:1049A000AEBEE8AEA1E4B88E00000000E5BC80E534
:1049B0008F910000E699BAE7A7910000303200001D
:1049C000E78FAD0068000020660000200648416BBC
:1049D000096829B1416BC968C96849688162704733
:1049E0004FF0FF31FAE700001000002000B587B05B
:1049F000002269461548FCF7C1FE08B114A006E084
:104A0000002205A91148FCF797FE20B117A0FEF778
:104A1000A5F807B000BD0D489DF81710243001F52A
:104A2000FA6181809DF8151081719DF81610C17191
:104A30009DF8141001729DF8001001709DF801108E
:104A400041709DF802108170E3E70000C001002072
:104A50004661696C656420746F20676574205254E8
:104A6000432074696D65210A000000004661696C8D
:104A7000656420746F20676574205254432064611C
:104A80007465210A0000000030B597B00446442147
:104A90006846FBF741FC142111A8FBF73DFC0121FE
:104AA0000804CDE9001002200325CDE90A05CDE96F
:104AB0000C140721CDE90E1010906846FCF73CFB62
:104AC00000B1FEE70F20CDE9110500204FF4806111
:104AD000CDE913011590102C01D9042104E00E2C0E
:104AE00001D9032100E0022111A8FCF70DFA00B161
:104AF000FEE70548016E41F001010166006E00F01D
:104B00000100169017B030BD001002400E4910B5DC
:104B10000C4AC1E9002000208860C8600C220861AE
:104B2000C1E90520C86108620846FDF74FF908B1E0
:104B3000FBF756FFBDE81040012204490248FDF78B
:104B4000BDB9000000440040240700205C000020A4
:104B5000D0E9013201699A60D0E901235A604A68BC
:104B6000824201D182684A60002202610868401EC8
:104B700008600868704742684A6093688B60936871
:104B80005960916008610168491C0160704700002C
:104B90001448016B11B10121C16170470021C1614D
:104BA0000169B1FA81F1C1F11F0101EB81020E49E6
:104BB00051F822306BB101EB820101F108034A6820
:104BC00052684A609A4201D152684A60D1680160D5
:104BD0007047502080F31188BFF34F8FBFF36F8F62
:104BE000FEE70000100000202C0500202DE9F04118
:104BF0002F4C0026206B28B1A069401CA0613046D4
:104C0000BDE8F081E5686D1CE56013D1606B00685C
:104C100038B1502080F31188BFF34F8FBFF36F8FEF
:104C2000FEE7606BA16B6163A063206A401C206299
:104C3000FFF7CCFEA06ADFF87C80854209D3606B69
:104C40000068A0B1606BC068C7687868854211D2FF
:104C5000A0622068C06A00EB800158F8210001289A
:104C600000D90126E0690028C9D00126C7E74FF026
:104C7000FF30EDE7381DFFF76BFFB86A18B107F199
:104C80001800FFF765FFF96A012022698840104388
:104C9000206101EB810108EB8100391DFFF76BFFFB
:104CA000F86A2168C96A8842C9D30126C7E70000AB
:104CB000100000202C050020000800480020000003
:104CC0000004004820000000000400480400000028
:104CD0000000004800800000000000480080000044
:104CE0000004004820000000000400480400000008
:104CF00000040048200000000004004820000000DC
:104D00000000004800800000000000480080000013
:104D100000040048040000000004004804000000F3
:104D200000040048080000000004004810000000D3
:104D300000040048100000000004004808000000C3
:104D400000040048080000000004004810000000B3
:104D500000040048100000000000000000000000F7
:104D60000102030406070809A0860100400D0300A4
:104D7000801A060000350C0040420F0080841E009F
:104D800000093D0000127A000024F40000366E0194
:104D90000048E801006CDC0200000000010203048E
:104DA00000000000010000000100000002000000FF
:104DB00002000000030000000300000000000000EB
:104DC00004000000050000000500000006000000CF
:104DD00006000000070000000700000004000000BB
:104DE00000000000040000000100000005000000B9
:104DF00002000000060000000300000007000000A1
:104E000000000000000000000000000000000000A2
:104E10003F40000000000000000030004000300073
:104E20004000000009000BC03D000BC03D00090020
:104E300018C024407FE0224031800000180024C0C8
:104E40001B000D803240018003801C4027401C80E5
:104E5000074000401000600000000000000000005B
:104E60000000000000001F80204040200000402083
:104E700020401F8000000000090006001F8006007F
:104E800009000000040004003F800400040000004A
:104E9000001000600000000000000000040004009A
:104EA00004000400040000000000004000000000B6
:104EB00000000000002001C0060038004000000093
:104EC0001F802040204020401F8000000000104034
:104ED0003FC000400000000018C021402240244094
:104EE0001840000010802040244024401B80000017
:104EF00002000D0011003FC0014000003C80244032
:104F000024402440238000001F802440244034405B
:104F1000038000003000200027C03800200000007F
:104F20001B802440244024401B8000001C0022C021
:104F3000224022401F8000000000000008400000C6
:104F400000000000000000000460000000000000FD
:104F5000000004000A001100208040400900090000
:104F600009000900090000000000404020801100F5
:104F70000A0004001800200023402400180000004C
:104F80001F802040274029401F400000004007C0EC
:104F900039000F0001C0004020403FC024402440A1
:104FA0001B8000001F8020402040204030800000F7
:104FB00020403FC0204020401F80000020403FC0D4
:104FC00024402E4030C0000020403FC024402E002E
:104FD000300000000F00108020402240338002008B
:104FE00020403FC0040004003FC02040204020403B
:104FF0003FC02040204000000060202020203FC013
:105000002000200020403FC024400B0030C0204042
:1050100020403FC020400040004000C03FC03C0056
:1050200003C03C003FC0000020403FC00C402300B4
:105030003FC020001F802040204020401F800000F3
:1050400020403FC024402400180000001F80214061
:10505000214020E01FA0000020403FC02440260047
:1050600019C0004018C02440244022403180000074
:10507000300020403FC020403000000020003F8032
:10508000004000403F80200020003E0001C007009B
:1050900038002000380007C03C0007C0380000007E
:1050A000204039C0060039C02040000020003840B0
:1050B00007C0384020000000304021C02640384062
:1050C00020C00000000000007FE0402040200000E1
:1050D000000070000C000380004000000000402031
:1050E00040207FE000000000000020004000200081
:1050F0000000000000100010001000100010001050
:1051000000000000400000000000000000000280DD
:105110000540054003C0004020003FC0044004405B
:1051200003800000000003800440044006400000AB
:1051300000000380044024403FC000400000038082
:105140000540054003400000000004401FC024400B
:1051500024402000000002E00550055006500420C5
:1051600020403FC00440040003C000400000044051
:1051700027C000400000000000100010041027E0CD
:105180000000000020403FC00140070004C0044070
:10519000204020403FC000400040000007C0040005
:1051A00007C0040003C00000044007C0044004001E
:1051B00003C000400000038004400440038000005E
:1051C000041007F004500440038000000000038036
:1051D0000440045007F00010044007C002400400DF
:1051E00004000000000006400540054004C0000027
:1051F000000004001F8004400040000004000780FD
:105200000040044007C000400400070004C00180C3
:1052100006000400060001C0070001C006000000EF
:10522000044006C0010006C004400000041007103E
:1052300004E00180060004000000044005C00640B0
:10524000044000000000000004007BE0402000005B
:10525000000000000000FFF00000000000004020FF
:105260007BE00400000000004000800040002000BF
:1052700020004000000000000000000000000000CE
:10528000000000000000000000001FCC000C000027
:10529000000000000000080030006000080030003E
:1052A00060000000022003FC1E20022003FC1E20E0
:1052B0000220000000000E1811043FFF10840C783B
:1052C000000000000F0010840F3800C00778188419
:1052D0000078000000780F8410C411240E9800E4B8
:1052E0000084000808006800700000000000000052
:1052F0000000000000000000000007E01818200473
:1053000040020000000040022004181807E00000DE
:10531000000000000240024001800FF001800240C6
:10532000024000000080008000800FF800800080B4
:10533000008000000001000D000E000000000000D1
:1053400000000000000000800080008000800080DD
:10535000008000800000000C000C00000000000035
:105360000000000000000006001800600180060038
:1053700018002000000007F00808100410040808B6
:1053800007F000000000080408041FFC00040004EB
:105390000000000000000E0C1014102410441184B2
:1053A0000E0C000000000C181004110411041288E7
:1053B0000C700000000000E00320042408241FFCFF
:1053C0000024000000001F981084110411041088AC
:1053D00010700000000007F00888110411041888FC
:1053E0000070000000001C00100010FC13001C00E6
:1053F0001000000000000E38114410841084114485
:105400000E38000000000700088C10441044088883
:1054100007F00000000000000000030C030C000077
:105420000000000000000000000101060000000074
:105430000000000000000080014002200410080865
:10544000100400000220022002200220022002207C
:10545000022000000000100408080410022001408F
:105460000080000000000E001200100C106C108074
:105470000F00000003E00C1813E4142417C40828DC
:1054800007D000000004003C03C41C40074000E4B7
:10549000001C000410041FFC1104110411040E88E8
:1054A0000070000003E00C18100410041004100831
:1054B0001C10000010041FFC100410041004080845
:1054C00007F0000010041FFC1104110417C410049D
:1054D0000818000010041FFC1104110017C0100070
:1054E0000800000003E00C181004100410441C789D
:1054F0000040000010041FFC108400800080108415
:105500001FFC10040000100410041FFC1004100401
:105510000000000000030001100110011FFE100038
:105520001000000010041FFC110403801464181CF8
:105530001004000010041FFC100400040004000408
:10554000000C000010041FFC1F0000FC1F001FFCCB
:105550001004000010041FFC0C04030000E01018ED
:105560001FFC100007F008081004100410040808BD
:1055700007F0000010041FFC1084108010801080C1
:105580000F00000007F0081810241024101C080A4F
:1055900007F2000010041FFC1104110011C01130AB
:1055A0000E0C000400000E1C110410841084104422
:1055B0001C3800001800100010041FFC100410001C
:1055C0001800000010001FF810040004000410046C
:1055D0001FF8100010001E0011E0001C0070138066
:1055E0001C0010001FC0103C00E01F0000E0103C39
:1055F0001FC000001004180C163401C001C016347E
:10560000180C100410001C00130400FC13041C00F0
:10561000100000000804101C1064108413041C0403
:10562000101800000000000000007FFE4002400251
:1056300040020000000030000C0003800060001CED
:105640000003000000004002400240027FFE000014
:10565000000000000000000020004000400040006A
:105660002000000000010001000100010001000114
:105670000001000100004000400020000000000088
:10568000000000000000009801240144014401448E
:1056900000FC000410001FFC0088010401040088C5
:1056A0000070000000000070008801040104010483
:1056B0000088000000000070008801040104110847
:1056C0001FFC0004000000F80144014401440144AF
:1056D00000C800000000010401040FFC11041104C3
:1056E00011001800000000D601290129012901C973
:1056F0000106000010041FFC0084010001000104E9
:1057000000FC000400000104190419FC000400045A
:10571000000000000000000300010101190119FE52
:105720000000000010041FFC0024004001B4010C24
:10573000010400000000100410041FFC0004000419
:1057400000000000010401FC0104010001FC01044F
:10575000010000FC010401FC0084010001000104BF
:1057600000FC0004000000F801040104010401042D
:1057700000F80000010101FF008501040104008818
:1057800000700000000000700088010401040105A1
:1057900001FF00010104010401FC00840104010077
:1057A00001800000000000CC012401240124012418
:1057B0000198000000000100010007F80104010445
:1057C00000000000010001F80004000400040108CA
:1057D00001FC0004010001800170000C0010016058
:1057E0000180010001F0010C003001C00030010C0B
:1057F00001F0010000000104018C00740170018CB3
:1058000001040000010101810171000E0018016016
:105810000180010000000184010C01340144018475
:10582000010C0000000000000000000001003EFC30
:10583000400240020000000000000000FFFF0000E6
:10584000000000000000400240023EFC0100000099
:105850000000000000006000800080004000400068
:1058600020002000000000000000000000000000F8
:105870000000000000000000000000000000000028
:105880000000000000000000000000000000000018
:105890000000000000000000000000000000000008
:1058A0000000000F80380FFE380F80380000000025
:1058B00000000000000000000000000000000000E8
:1058C00000000000000000000000010000060000D1
:1058D0000C00003800003100000600000C00003809
:1058E0000000300000000000000000000000000088
:1058F000000000000000000061800067F807F980E8
:105900000061800061800061800061800067F807AD
:10591000F98000618000000000000000000000002D
:105920000000000000000000000001C0E003E0F003
:105930000630080418081FFFFE040E080787F0034E
:1059400081E00000000000000000000000000000F6
:105950000000000001F000060C00040408060C70B2
:1059600001F9C0000E00003BE000EC180708080435
:105970000C180003E0000000000000000000000020
:10598000000000000001E00007F003F818041C0804
:1059900004170807E1D003C0E00023B0003C080072
:1059A00020080000100000000000000000000000BF
:1059B0000000000000000001000031000032000083
:1059C0001C000000000000000000000000000000BB
:1059D00000000000000000000000000000000000C7
:1059E00000000000000000000000000000000000B7
:1059F000000000007F0001FFC00780F00C001810BD
:105A00000004200002000000000000000000000070
:105A1000000000000000002000021000040C00182C
:105A20000780F001FFC0007F0000000000000000C0
:105A30000000000000000000000000000000000066
:105A40000000000000000000420000660000660048
:105A5000003C0000180003FFC0001800003C0000DC
:105A60006600006600004200000000000000000028
:105A7000000000000000000008000008000008000E
:105A800000080000080001FFC00008000008000036
:105A900008000008000008000000000000000000EE
:105AA0000000000000000000000100003100003292
:105AB00000001C00000000000000000000000000CA
:105AC00000000000000000000000000000000000D6
:105AD00000000000000000000800000800000800AE
